{
	"contracts/ExampleMappingStruct.sol": {
		"MappingStructExample": {
			"abi": [
				{
					"inputs": [],
					"name": "depositMoney",
					"outputs": [],
					"stateMutability": "payable",
					"type": "function"
				},
				{
					"inputs": [
						{
							"internalType": "address payable",
							"name": "_to",
							"type": "address"
						},
						{
							"internalType": "uint256",
							"name": "_amount",
							"type": "uint256"
						}
					],
					"name": "withdrawMoney",
					"outputs": [],
					"stateMutability": "nonpayable",
					"type": "function"
				}
			],
			"devdoc": {
				"kind": "dev",
				"methods": {},
				"version": 1
			},
			"evm": {
				"assembly": "    /* \"contracts/ExampleMappingStruct.sol\":74:2306  contract MappingStructExample {\r... */\n  mstore(0x40, 0x80)\n  callvalue\n  dup1\n  iszero\n  tag_1\n  jumpi\n  0x00\n  dup1\n  revert\ntag_1:\n  pop\n  dataSize(sub_0)\n  dup1\n  dataOffset(sub_0)\n  0x00\n  codecopy\n  0x00\n  return\nstop\n\nsub_0: assembly {\n        /* \"contracts/ExampleMappingStruct.sol\":74:2306  contract MappingStructExample {\r... */\n      mstore(0x40, 0x80)\n      jumpi(tag_1, lt(calldatasize, 0x04))\n      shr(0xe0, calldataload(0x00))\n      dup1\n      0x16c05aa2\n      eq\n      tag_2\n      jumpi\n      dup1\n      0xf274c897\n      eq\n      tag_3\n      jumpi\n    tag_1:\n      0x00\n      dup1\n      revert\n        /* \"contracts/ExampleMappingStruct.sol\":1200:2212  function depositMoney() public payable {\r... */\n    tag_2:\n      tag_4\n      tag_5\n      jump\t// in\n    tag_4:\n      stop\n        /* \"contracts/ExampleMappingStruct.sol\":2220:2303  function withdrawMoney(address payable _to, uint _amount) public {\r... */\n    tag_3:\n      callvalue\n      dup1\n      iszero\n      tag_6\n      jumpi\n      0x00\n      dup1\n      revert\n    tag_6:\n      pop\n      tag_7\n      0x04\n      dup1\n      calldatasize\n      sub\n      dup2\n      add\n      swap1\n      tag_8\n      swap2\n      swap1\n      tag_9\n      jump\t// in\n    tag_8:\n      tag_10\n      jump\t// in\n    tag_7:\n      stop\n        /* \"contracts/ExampleMappingStruct.sol\":1200:2212  function depositMoney() public payable {\r... */\n    tag_5:\n        /* \"contracts/ExampleMappingStruct.sol\":1414:1423  msg.value */\n      callvalue\n        /* \"contracts/ExampleMappingStruct.sol\":1377:1385  balances */\n      0x00\n        /* \"contracts/ExampleMappingStruct.sol\":1377:1397  balances[msg.sender] */\n      dup1\n        /* \"contracts/ExampleMappingStruct.sol\":1386:1396  msg.sender */\n      caller\n        /* \"contracts/ExampleMappingStruct.sol\":1377:1397  balances[msg.sender] */\n      0xffffffffffffffffffffffffffffffffffffffff\n      and\n      0xffffffffffffffffffffffffffffffffffffffff\n      and\n      dup2\n      mstore\n      0x20\n      add\n      swap1\n      dup2\n      mstore\n      0x20\n      add\n      0x00\n      keccak256\n        /* \"contracts/ExampleMappingStruct.sol\":1377:1410  balances[msg.sender].totalBalance */\n      0x00\n      add\n      0x00\n        /* \"contracts/ExampleMappingStruct.sol\":1377:1423  balances[msg.sender].totalBalance += msg.value */\n      dup3\n      dup3\n      sload\n      tag_12\n      swap2\n      swap1\n      tag_13\n      jump\t// in\n    tag_12:\n      swap3\n      pop\n      pop\n      dup2\n      swap1\n      sstore\n      pop\n        /* \"contracts/ExampleMappingStruct.sol\":1532:1558  Transaction memory deposit */\n      0x00\n        /* \"contracts/ExampleMappingStruct.sol\":1561:1600  Transaction(msg.value, block.timestamp) */\n      mload(0x40)\n      dup1\n      0x40\n      add\n      0x40\n      mstore\n      dup1\n        /* \"contracts/ExampleMappingStruct.sol\":1573:1582  msg.value */\n      callvalue\n        /* \"contracts/ExampleMappingStruct.sol\":1561:1600  Transaction(msg.value, block.timestamp) */\n      dup2\n      mstore\n      0x20\n      add\n        /* \"contracts/ExampleMappingStruct.sol\":1584:1599  block.timestamp */\n      timestamp\n        /* \"contracts/ExampleMappingStruct.sol\":1561:1600  Transaction(msg.value, block.timestamp) */\n      dup2\n      mstore\n      pop\n        /* \"contracts/ExampleMappingStruct.sol\":1532:1600  Transaction memory deposit = Transaction(msg.value, block.timestamp) */\n      swap1\n      pop\n        /* \"contracts/ExampleMappingStruct.sol\":1943:1950  deposit */\n      dup1\n        /* \"contracts/ExampleMappingStruct.sol\":1875:1883  balances */\n      0x00\n        /* \"contracts/ExampleMappingStruct.sol\":1875:1895  balances[msg.sender] */\n      dup1\n        /* \"contracts/ExampleMappingStruct.sol\":1884:1894  msg.sender */\n      caller\n        /* \"contracts/ExampleMappingStruct.sol\":1875:1895  balances[msg.sender] */\n      0xffffffffffffffffffffffffffffffffffffffff\n      and\n      0xffffffffffffffffffffffffffffffffffffffff\n      and\n      dup2\n      mstore\n      0x20\n      add\n      swap1\n      dup2\n      mstore\n      0x20\n      add\n      0x00\n      keccak256\n        /* \"contracts/ExampleMappingStruct.sol\":1875:1904  balances[msg.sender].deposits */\n      0x02\n      add\n        /* \"contracts/ExampleMappingStruct.sol\":1875:1940  balances[msg.sender].deposits[balances[msg.sender].numOfDeposits] */\n      0x00\n        /* \"contracts/ExampleMappingStruct.sol\":1905:1913  balances */\n      dup1\n        /* \"contracts/ExampleMappingStruct.sol\":1905:1925  balances[msg.sender] */\n      0x00\n        /* \"contracts/ExampleMappingStruct.sol\":1914:1924  msg.sender */\n      caller\n        /* \"contracts/ExampleMappingStruct.sol\":1905:1925  balances[msg.sender] */\n      0xffffffffffffffffffffffffffffffffffffffff\n      and\n      0xffffffffffffffffffffffffffffffffffffffff\n      and\n      dup2\n      mstore\n      0x20\n      add\n      swap1\n      dup2\n      mstore\n      0x20\n      add\n      0x00\n      keccak256\n        /* \"contracts/ExampleMappingStruct.sol\":1905:1939  balances[msg.sender].numOfDeposits */\n      0x01\n      add\n      sload\n        /* \"contracts/ExampleMappingStruct.sol\":1875:1940  balances[msg.sender].deposits[balances[msg.sender].numOfDeposits] */\n      dup2\n      mstore\n      0x20\n      add\n      swap1\n      dup2\n      mstore\n      0x20\n      add\n      0x00\n      keccak256\n        /* \"contracts/ExampleMappingStruct.sol\":1875:1950  balances[msg.sender].deposits[balances[msg.sender].numOfDeposits] = deposit */\n      0x00\n      dup3\n      add\n      mload\n      dup2\n      0x00\n      add\n      sstore\n      0x20\n      dup3\n      add\n      mload\n      dup2\n      0x01\n      add\n      sstore\n      swap1\n      pop\n      pop\n        /* \"contracts/ExampleMappingStruct.sol\":2168:2176  balances */\n      0x00\n        /* \"contracts/ExampleMappingStruct.sol\":2168:2188  balances[msg.sender] */\n      dup1\n        /* \"contracts/ExampleMappingStruct.sol\":2177:2187  msg.sender */\n      caller\n        /* \"contracts/ExampleMappingStruct.sol\":2168:2188  balances[msg.sender] */\n      0xffffffffffffffffffffffffffffffffffffffff\n      and\n      0xffffffffffffffffffffffffffffffffffffffff\n      and\n      dup2\n      mstore\n      0x20\n      add\n      swap1\n      dup2\n      mstore\n      0x20\n      add\n      0x00\n      keccak256\n        /* \"contracts/ExampleMappingStruct.sol\":2168:2202  balances[msg.sender].numOfDeposits */\n      0x01\n      add\n      0x00\n        /* \"contracts/ExampleMappingStruct.sol\":2168:2204  balances[msg.sender].numOfDeposits++ */\n      dup2\n      sload\n      dup1\n      swap3\n      swap2\n      swap1\n      tag_14\n      swap1\n      tag_15\n      jump\t// in\n    tag_14:\n      swap2\n      swap1\n      pop\n      sstore\n      pop\n        /* \"contracts/ExampleMappingStruct.sol\":1239:2212  {\r... */\n      pop\n        /* \"contracts/ExampleMappingStruct.sol\":1200:2212  function depositMoney() public payable {\r... */\n      jump\t// out\n        /* \"contracts/ExampleMappingStruct.sol\":2220:2303  function withdrawMoney(address payable _to, uint _amount) public {\r... */\n    tag_10:\n      pop\n      pop\n      jump\t// out\n        /* \"#utility.yul\":7:162   */\n    tag_18:\n        /* \"#utility.yul\":61:66   */\n      0x00\n        /* \"#utility.yul\":99:105   */\n      dup2\n        /* \"#utility.yul\":86:106   */\n      calldataload\n        /* \"#utility.yul\":77:106   */\n      swap1\n      pop\n        /* \"#utility.yul\":115:156   */\n      tag_20\n        /* \"#utility.yul\":150:155   */\n      dup2\n        /* \"#utility.yul\":115:156   */\n      tag_21\n      jump\t// in\n    tag_20:\n        /* \"#utility.yul\":7:162   */\n      swap3\n      swap2\n      pop\n      pop\n      jump\t// out\n        /* \"#utility.yul\":168:307   */\n    tag_22:\n        /* \"#utility.yul\":214:219   */\n      0x00\n        /* \"#utility.yul\":252:258   */\n      dup2\n        /* \"#utility.yul\":239:259   */\n      calldataload\n        /* \"#utility.yul\":230:259   */\n      swap1\n      pop\n        /* \"#utility.yul\":268:301   */\n      tag_24\n        /* \"#utility.yul\":295:300   */\n      dup2\n        /* \"#utility.yul\":268:301   */\n      tag_25\n      jump\t// in\n    tag_24:\n        /* \"#utility.yul\":168:307   */\n      swap3\n      swap2\n      pop\n      pop\n      jump\t// out\n        /* \"#utility.yul\":313:803   */\n    tag_9:\n        /* \"#utility.yul\":389:395   */\n      0x00\n        /* \"#utility.yul\":397:403   */\n      dup1\n        /* \"#utility.yul\":446:448   */\n      0x40\n        /* \"#utility.yul\":434:443   */\n      dup4\n        /* \"#utility.yul\":425:432   */\n      dup6\n        /* \"#utility.yul\":421:444   */\n      sub\n        /* \"#utility.yul\":417:449   */\n      slt\n        /* \"#utility.yul\":414:533   */\n      iszero\n      tag_27\n      jumpi\n        /* \"#utility.yul\":452:531   */\n      tag_28\n      tag_29\n      jump\t// in\n    tag_28:\n        /* \"#utility.yul\":414:533   */\n    tag_27:\n        /* \"#utility.yul\":572:573   */\n      0x00\n        /* \"#utility.yul\":597:658   */\n      tag_30\n        /* \"#utility.yul\":650:657   */\n      dup6\n        /* \"#utility.yul\":641:647   */\n      dup3\n        /* \"#utility.yul\":630:639   */\n      dup7\n        /* \"#utility.yul\":626:648   */\n      add\n        /* \"#utility.yul\":597:658   */\n      tag_18\n      jump\t// in\n    tag_30:\n        /* \"#utility.yul\":587:658   */\n      swap3\n      pop\n        /* \"#utility.yul\":543:668   */\n      pop\n        /* \"#utility.yul\":707:709   */\n      0x20\n        /* \"#utility.yul\":733:786   */\n      tag_31\n        /* \"#utility.yul\":778:785   */\n      dup6\n        /* \"#utility.yul\":769:775   */\n      dup3\n        /* \"#utility.yul\":758:767   */\n      dup7\n        /* \"#utility.yul\":754:776   */\n      add\n        /* \"#utility.yul\":733:786   */\n      tag_22\n      jump\t// in\n    tag_31:\n        /* \"#utility.yul\":723:786   */\n      swap2\n      pop\n        /* \"#utility.yul\":678:796   */\n      pop\n        /* \"#utility.yul\":313:803   */\n      swap3\n      pop\n      swap3\n      swap1\n      pop\n      jump\t// out\n        /* \"#utility.yul\":890:1195   */\n    tag_13:\n        /* \"#utility.yul\":930:933   */\n      0x00\n        /* \"#utility.yul\":949:969   */\n      tag_35\n        /* \"#utility.yul\":967:968   */\n      dup3\n        /* \"#utility.yul\":949:969   */\n      tag_36\n      jump\t// in\n    tag_35:\n        /* \"#utility.yul\":944:969   */\n      swap2\n      pop\n        /* \"#utility.yul\":983:1003   */\n      tag_37\n        /* \"#utility.yul\":1001:1002   */\n      dup4\n        /* \"#utility.yul\":983:1003   */\n      tag_36\n      jump\t// in\n    tag_37:\n        /* \"#utility.yul\":978:1003   */\n      swap3\n      pop\n        /* \"#utility.yul\":1137:1138   */\n      dup3\n        /* \"#utility.yul\":1069:1135   */\n      0xffffffffffffffffffffffffffffffffffffffffffffffffffffffffffffffff\n        /* \"#utility.yul\":1065:1139   */\n      sub\n        /* \"#utility.yul\":1062:1063   */\n      dup3\n        /* \"#utility.yul\":1059:1140   */\n      gt\n        /* \"#utility.yul\":1056:1163   */\n      iszero\n      tag_38\n      jumpi\n        /* \"#utility.yul\":1143:1161   */\n      tag_39\n      tag_40\n      jump\t// in\n    tag_39:\n        /* \"#utility.yul\":1056:1163   */\n    tag_38:\n        /* \"#utility.yul\":1187:1188   */\n      dup3\n        /* \"#utility.yul\":1184:1185   */\n      dup3\n        /* \"#utility.yul\":1180:1189   */\n      add\n        /* \"#utility.yul\":1173:1189   */\n      swap1\n      pop\n        /* \"#utility.yul\":890:1195   */\n      swap3\n      swap2\n      pop\n      pop\n      jump\t// out\n        /* \"#utility.yul\":1201:1305   */\n    tag_41:\n        /* \"#utility.yul\":1246:1253   */\n      0x00\n        /* \"#utility.yul\":1275:1299   */\n      tag_43\n        /* \"#utility.yul\":1293:1298   */\n      dup3\n        /* \"#utility.yul\":1275:1299   */\n      tag_44\n      jump\t// in\n    tag_43:\n        /* \"#utility.yul\":1264:1299   */\n      swap1\n      pop\n        /* \"#utility.yul\":1201:1305   */\n      swap2\n      swap1\n      pop\n      jump\t// out\n        /* \"#utility.yul\":1311:1437   */\n    tag_44:\n        /* \"#utility.yul\":1348:1355   */\n      0x00\n        /* \"#utility.yul\":1388:1430   */\n      0xffffffffffffffffffffffffffffffffffffffff\n        /* \"#utility.yul\":1381:1386   */\n      dup3\n        /* \"#utility.yul\":1377:1431   */\n      and\n        /* \"#utility.yul\":1366:1431   */\n      swap1\n      pop\n        /* \"#utility.yul\":1311:1437   */\n      swap2\n      swap1\n      pop\n      jump\t// out\n        /* \"#utility.yul\":1443:1520   */\n    tag_36:\n        /* \"#utility.yul\":1480:1487   */\n      0x00\n        /* \"#utility.yul\":1509:1514   */\n      dup2\n        /* \"#utility.yul\":1498:1514   */\n      swap1\n      pop\n        /* \"#utility.yul\":1443:1520   */\n      swap2\n      swap1\n      pop\n      jump\t// out\n        /* \"#utility.yul\":1526:1759   */\n    tag_15:\n        /* \"#utility.yul\":1565:1568   */\n      0x00\n        /* \"#utility.yul\":1588:1612   */\n      tag_48\n        /* \"#utility.yul\":1606:1611   */\n      dup3\n        /* \"#utility.yul\":1588:1612   */\n      tag_36\n      jump\t// in\n    tag_48:\n        /* \"#utility.yul\":1579:1612   */\n      swap2\n      pop\n        /* \"#utility.yul\":1634:1700   */\n      0xffffffffffffffffffffffffffffffffffffffffffffffffffffffffffffffff\n        /* \"#utility.yul\":1627:1632   */\n      dup3\n        /* \"#utility.yul\":1624:1701   */\n      eq\n        /* \"#utility.yul\":1621:1724   */\n      iszero\n      tag_49\n      jumpi\n        /* \"#utility.yul\":1704:1722   */\n      tag_50\n      tag_40\n      jump\t// in\n    tag_50:\n        /* \"#utility.yul\":1621:1724   */\n    tag_49:\n        /* \"#utility.yul\":1751:1752   */\n      0x01\n        /* \"#utility.yul\":1744:1749   */\n      dup3\n        /* \"#utility.yul\":1740:1753   */\n      add\n        /* \"#utility.yul\":1733:1753   */\n      swap1\n      pop\n        /* \"#utility.yul\":1526:1759   */\n      swap2\n      swap1\n      pop\n      jump\t// out\n        /* \"#utility.yul\":1765:1945   */\n    tag_40:\n        /* \"#utility.yul\":1813:1890   */\n      0x4e487b7100000000000000000000000000000000000000000000000000000000\n        /* \"#utility.yul\":1810:1811   */\n      0x00\n        /* \"#utility.yul\":1803:1891   */\n      mstore\n        /* \"#utility.yul\":1910:1914   */\n      0x11\n        /* \"#utility.yul\":1907:1908   */\n      0x04\n        /* \"#utility.yul\":1900:1915   */\n      mstore\n        /* \"#utility.yul\":1934:1938   */\n      0x24\n        /* \"#utility.yul\":1931:1932   */\n      0x00\n        /* \"#utility.yul\":1924:1939   */\n      revert\n        /* \"#utility.yul\":2074:2191   */\n    tag_29:\n        /* \"#utility.yul\":2183:2184   */\n      0x00\n        /* \"#utility.yul\":2180:2181   */\n      dup1\n        /* \"#utility.yul\":2173:2185   */\n      revert\n        /* \"#utility.yul\":2197:2335   */\n    tag_21:\n        /* \"#utility.yul\":2278:2310   */\n      tag_56\n        /* \"#utility.yul\":2304:2309   */\n      dup2\n        /* \"#utility.yul\":2278:2310   */\n      tag_41\n      jump\t// in\n    tag_56:\n        /* \"#utility.yul\":2271:2276   */\n      dup2\n        /* \"#utility.yul\":2268:2311   */\n      eq\n        /* \"#utility.yul\":2258:2329   */\n      tag_57\n      jumpi\n        /* \"#utility.yul\":2325:2326   */\n      0x00\n        /* \"#utility.yul\":2322:2323   */\n      dup1\n        /* \"#utility.yul\":2315:2327   */\n      revert\n        /* \"#utility.yul\":2258:2329   */\n    tag_57:\n        /* \"#utility.yul\":2197:2335   */\n      pop\n      jump\t// out\n        /* \"#utility.yul\":2341:2463   */\n    tag_25:\n        /* \"#utility.yul\":2414:2438   */\n      tag_59\n        /* \"#utility.yul\":2432:2437   */\n      dup2\n        /* \"#utility.yul\":2414:2438   */\n      tag_36\n      jump\t// in\n    tag_59:\n        /* \"#utility.yul\":2407:2412   */\n      dup2\n        /* \"#utility.yul\":2404:2439   */\n      eq\n        /* \"#utility.yul\":2394:2457   */\n      tag_60\n      jumpi\n        /* \"#utility.yul\":2453:2454   */\n      0x00\n        /* \"#utility.yul\":2450:2451   */\n      dup1\n        /* \"#utility.yul\":2443:2455   */\n      revert\n        /* \"#utility.yul\":2394:2457   */\n    tag_60:\n        /* \"#utility.yul\":2341:2463   */\n      pop\n      jump\t// out\n\n    auxdata: 0xa26469706673582212205c7e1bc242735e9dd159d70d70bd564473e963a18456f97e61bdac83bd7f2fa064736f6c63430008070033\n}\n",
				"bytecode": {
					"linkReferences": {},
					"object": "608060405234801561001057600080fd5b506103b8806100206000396000f3fe6080604052600436106100295760003560e01c806316c05aa21461002e578063f274c89714610038575b600080fd5b610036610061565b005b34801561004457600080fd5b5061005f600480360381019061005a9190610205565b6101d7565b005b346000803373ffffffffffffffffffffffffffffffffffffffff1673ffffffffffffffffffffffffffffffffffffffff16815260200190815260200160002060000160008282546100b29190610245565b9250508190555060006040518060400160405280348152602001428152509050806000803373ffffffffffffffffffffffffffffffffffffffff1673ffffffffffffffffffffffffffffffffffffffff16815260200190815260200160002060020160008060003373ffffffffffffffffffffffffffffffffffffffff1673ffffffffffffffffffffffffffffffffffffffff16815260200190815260200160002060010154815260200190815260200160002060008201518160000155602082015181600101559050506000803373ffffffffffffffffffffffffffffffffffffffff1673ffffffffffffffffffffffffffffffffffffffff16815260200190815260200160002060010160008154809291906101cf906102d7565b919050555050565b5050565b6000813590506101ea81610354565b92915050565b6000813590506101ff8161036b565b92915050565b6000806040838503121561021c5761021b61034f565b5b600061022a858286016101db565b925050602061023b858286016101f0565b9150509250929050565b6000610250826102cd565b915061025b836102cd565b9250827fffffffffffffffffffffffffffffffffffffffffffffffffffffffffffffffff038211156102905761028f610320565b5b828201905092915050565b60006102a6826102ad565b9050919050565b600073ffffffffffffffffffffffffffffffffffffffff82169050919050565b6000819050919050565b60006102e2826102cd565b91507fffffffffffffffffffffffffffffffffffffffffffffffffffffffffffffffff82141561031557610314610320565b5b600182019050919050565b7f4e487b7100000000000000000000000000000000000000000000000000000000600052601160045260246000fd5b600080fd5b61035d8161029b565b811461036857600080fd5b50565b610374816102cd565b811461037f57600080fd5b5056fea26469706673582212205c7e1bc242735e9dd159d70d70bd564473e963a18456f97e61bdac83bd7f2fa064736f6c63430008070033",
					"opcodes": "PUSH1 0x80 PUSH1 0x40 MSTORE CALLVALUE DUP1 ISZERO PUSH2 0x10 JUMPI PUSH1 0x0 DUP1 REVERT JUMPDEST POP PUSH2 0x3B8 DUP1 PUSH2 0x20 PUSH1 0x0 CODECOPY PUSH1 0x0 RETURN INVALID PUSH1 0x80 PUSH1 0x40 MSTORE PUSH1 0x4 CALLDATASIZE LT PUSH2 0x29 JUMPI PUSH1 0x0 CALLDATALOAD PUSH1 0xE0 SHR DUP1 PUSH4 0x16C05AA2 EQ PUSH2 0x2E JUMPI DUP1 PUSH4 0xF274C897 EQ PUSH2 0x38 JUMPI JUMPDEST PUSH1 0x0 DUP1 REVERT JUMPDEST PUSH2 0x36 PUSH2 0x61 JUMP JUMPDEST STOP JUMPDEST CALLVALUE DUP1 ISZERO PUSH2 0x44 JUMPI PUSH1 0x0 DUP1 REVERT JUMPDEST POP PUSH2 0x5F PUSH1 0x4 DUP1 CALLDATASIZE SUB DUP2 ADD SWAP1 PUSH2 0x5A SWAP2 SWAP1 PUSH2 0x205 JUMP JUMPDEST PUSH2 0x1D7 JUMP JUMPDEST STOP JUMPDEST CALLVALUE PUSH1 0x0 DUP1 CALLER PUSH20 0xFFFFFFFFFFFFFFFFFFFFFFFFFFFFFFFFFFFFFFFF AND PUSH20 0xFFFFFFFFFFFFFFFFFFFFFFFFFFFFFFFFFFFFFFFF AND DUP2 MSTORE PUSH1 0x20 ADD SWAP1 DUP2 MSTORE PUSH1 0x20 ADD PUSH1 0x0 KECCAK256 PUSH1 0x0 ADD PUSH1 0x0 DUP3 DUP3 SLOAD PUSH2 0xB2 SWAP2 SWAP1 PUSH2 0x245 JUMP JUMPDEST SWAP3 POP POP DUP2 SWAP1 SSTORE POP PUSH1 0x0 PUSH1 0x40 MLOAD DUP1 PUSH1 0x40 ADD PUSH1 0x40 MSTORE DUP1 CALLVALUE DUP2 MSTORE PUSH1 0x20 ADD TIMESTAMP DUP2 MSTORE POP SWAP1 POP DUP1 PUSH1 0x0 DUP1 CALLER PUSH20 0xFFFFFFFFFFFFFFFFFFFFFFFFFFFFFFFFFFFFFFFF AND PUSH20 0xFFFFFFFFFFFFFFFFFFFFFFFFFFFFFFFFFFFFFFFF AND DUP2 MSTORE PUSH1 0x20 ADD SWAP1 DUP2 MSTORE PUSH1 0x20 ADD PUSH1 0x0 KECCAK256 PUSH1 0x2 ADD PUSH1 0x0 DUP1 PUSH1 0x0 CALLER PUSH20 0xFFFFFFFFFFFFFFFFFFFFFFFFFFFFFFFFFFFFFFFF AND PUSH20 0xFFFFFFFFFFFFFFFFFFFFFFFFFFFFFFFFFFFFFFFF AND DUP2 MSTORE PUSH1 0x20 ADD SWAP1 DUP2 MSTORE PUSH1 0x20 ADD PUSH1 0x0 KECCAK256 PUSH1 0x1 ADD SLOAD DUP2 MSTORE PUSH1 0x20 ADD SWAP1 DUP2 MSTORE PUSH1 0x20 ADD PUSH1 0x0 KECCAK256 PUSH1 0x0 DUP3 ADD MLOAD DUP2 PUSH1 0x0 ADD SSTORE PUSH1 0x20 DUP3 ADD MLOAD DUP2 PUSH1 0x1 ADD SSTORE SWAP1 POP POP PUSH1 0x0 DUP1 CALLER PUSH20 0xFFFFFFFFFFFFFFFFFFFFFFFFFFFFFFFFFFFFFFFF AND PUSH20 0xFFFFFFFFFFFFFFFFFFFFFFFFFFFFFFFFFFFFFFFF AND DUP2 MSTORE PUSH1 0x20 ADD SWAP1 DUP2 MSTORE PUSH1 0x20 ADD PUSH1 0x0 KECCAK256 PUSH1 0x1 ADD PUSH1 0x0 DUP2 SLOAD DUP1 SWAP3 SWAP2 SWAP1 PUSH2 0x1CF SWAP1 PUSH2 0x2D7 JUMP JUMPDEST SWAP2 SWAP1 POP SSTORE POP POP JUMP JUMPDEST POP POP JUMP JUMPDEST PUSH1 0x0 DUP2 CALLDATALOAD SWAP1 POP PUSH2 0x1EA DUP2 PUSH2 0x354 JUMP JUMPDEST SWAP3 SWAP2 POP POP JUMP JUMPDEST PUSH1 0x0 DUP2 CALLDATALOAD SWAP1 POP PUSH2 0x1FF DUP2 PUSH2 0x36B JUMP JUMPDEST SWAP3 SWAP2 POP POP JUMP JUMPDEST PUSH1 0x0 DUP1 PUSH1 0x40 DUP4 DUP6 SUB SLT ISZERO PUSH2 0x21C JUMPI PUSH2 0x21B PUSH2 0x34F JUMP JUMPDEST JUMPDEST PUSH1 0x0 PUSH2 0x22A DUP6 DUP3 DUP7 ADD PUSH2 0x1DB JUMP JUMPDEST SWAP3 POP POP PUSH1 0x20 PUSH2 0x23B DUP6 DUP3 DUP7 ADD PUSH2 0x1F0 JUMP JUMPDEST SWAP2 POP POP SWAP3 POP SWAP3 SWAP1 POP JUMP JUMPDEST PUSH1 0x0 PUSH2 0x250 DUP3 PUSH2 0x2CD JUMP JUMPDEST SWAP2 POP PUSH2 0x25B DUP4 PUSH2 0x2CD JUMP JUMPDEST SWAP3 POP DUP3 PUSH32 0xFFFFFFFFFFFFFFFFFFFFFFFFFFFFFFFFFFFFFFFFFFFFFFFFFFFFFFFFFFFFFFFF SUB DUP3 GT ISZERO PUSH2 0x290 JUMPI PUSH2 0x28F PUSH2 0x320 JUMP JUMPDEST JUMPDEST DUP3 DUP3 ADD SWAP1 POP SWAP3 SWAP2 POP POP JUMP JUMPDEST PUSH1 0x0 PUSH2 0x2A6 DUP3 PUSH2 0x2AD JUMP JUMPDEST SWAP1 POP SWAP2 SWAP1 POP JUMP JUMPDEST PUSH1 0x0 PUSH20 0xFFFFFFFFFFFFFFFFFFFFFFFFFFFFFFFFFFFFFFFF DUP3 AND SWAP1 POP SWAP2 SWAP1 POP JUMP JUMPDEST PUSH1 0x0 DUP2 SWAP1 POP SWAP2 SWAP1 POP JUMP JUMPDEST PUSH1 0x0 PUSH2 0x2E2 DUP3 PUSH2 0x2CD JUMP JUMPDEST SWAP2 POP PUSH32 0xFFFFFFFFFFFFFFFFFFFFFFFFFFFFFFFFFFFFFFFFFFFFFFFFFFFFFFFFFFFFFFFF DUP3 EQ ISZERO PUSH2 0x315 JUMPI PUSH2 0x314 PUSH2 0x320 JUMP JUMPDEST JUMPDEST PUSH1 0x1 DUP3 ADD SWAP1 POP SWAP2 SWAP1 POP JUMP JUMPDEST PUSH32 0x4E487B7100000000000000000000000000000000000000000000000000000000 PUSH1 0x0 MSTORE PUSH1 0x11 PUSH1 0x4 MSTORE PUSH1 0x24 PUSH1 0x0 REVERT JUMPDEST PUSH1 0x0 DUP1 REVERT JUMPDEST PUSH2 0x35D DUP2 PUSH2 0x29B JUMP JUMPDEST DUP2 EQ PUSH2 0x368 JUMPI PUSH1 0x0 DUP1 REVERT JUMPDEST POP JUMP JUMPDEST PUSH2 0x374 DUP2 PUSH2 0x2CD JUMP JUMPDEST DUP2 EQ PUSH2 0x37F JUMPI PUSH1 0x0 DUP1 REVERT JUMPDEST POP JUMP INVALID LOG2 PUSH5 0x6970667358 0x22 SLT KECCAK256 0x5C PUSH31 0x1BC242735E9DD159D70D70BD564473E963A18456F97E61BDAC83BD7F2FA064 PUSH20 0x6F6C634300080700330000000000000000000000 "
				},
				"gasEstimates": {
					"creation": {
						"codeDepositCost": "190400",
						"executionCost": "232",
						"totalCost": "190632"
					},
					"external": {
						"depositMoney()": "infinite",
						"withdrawMoney(address,uint256)": "628"
					}
				},
				"methodIdentifiers": {
					"depositMoney()": "16c05aa2",
					"withdrawMoney(address,uint256)": "f274c897"
				}
			},
			"storageLayout": {
				"storage": [
					{
						"astId": 28,
						"contract": "contracts/ExampleMappingStruct.sol:MappingStructExample",
						"label": "balances",
						"offset": 0,
						"slot": "0",
						"type": "t_mapping(t_address,t_struct(Balance)23_storage)"
					}
				],
				"types": {
					"t_address": {
						"encoding": "inplace",
						"label": "address",
						"numberOfBytes": "20"
					},
					"t_mapping(t_address,t_struct(Balance)23_storage)": {
						"encoding": "mapping",
						"key": "t_address",
						"label": "mapping(address => struct MappingStructExample.Balance)",
						"numberOfBytes": "32",
						"value": "t_struct(Balance)23_storage"
					},
					"t_mapping(t_uint256,t_struct(Transaction)6_storage)": {
						"encoding": "mapping",
						"key": "t_uint256",
						"label": "mapping(uint256 => struct MappingStructExample.Transaction)",
						"numberOfBytes": "32",
						"value": "t_struct(Transaction)6_storage"
					},
					"t_struct(Balance)23_storage": {
						"encoding": "inplace",
						"label": "struct MappingStructExample.Balance",
						"members": [
							{
								"astId": 8,
								"contract": "contracts/ExampleMappingStruct.sol:MappingStructExample",
								"label": "totalBalance",
								"offset": 0,
								"slot": "0",
								"type": "t_uint256"
							},
							{
								"astId": 10,
								"contract": "contracts/ExampleMappingStruct.sol:MappingStructExample",
								"label": "numOfDeposits",
								"offset": 0,
								"slot": "1",
								"type": "t_uint256"
							},
							{
								"astId": 15,
								"contract": "contracts/ExampleMappingStruct.sol:MappingStructExample",
								"label": "deposits",
								"offset": 0,
								"slot": "2",
								"type": "t_mapping(t_uint256,t_struct(Transaction)6_storage)"
							},
							{
								"astId": 17,
								"contract": "contracts/ExampleMappingStruct.sol:MappingStructExample",
								"label": "numOfWithdrawals",
								"offset": 0,
								"slot": "3",
								"type": "t_uint256"
							},
							{
								"astId": 22,
								"contract": "contracts/ExampleMappingStruct.sol:MappingStructExample",
								"label": "withdrawals",
								"offset": 0,
								"slot": "4",
								"type": "t_mapping(t_uint256,t_struct(Transaction)6_storage)"
							}
						],
						"numberOfBytes": "160"
					},
					"t_struct(Transaction)6_storage": {
						"encoding": "inplace",
						"label": "struct MappingStructExample.Transaction",
						"members": [
							{
								"astId": 3,
								"contract": "contracts/ExampleMappingStruct.sol:MappingStructExample",
								"label": "amount",
								"offset": 0,
								"slot": "0",
								"type": "t_uint256"
							},
							{
								"astId": 5,
								"contract": "contracts/ExampleMappingStruct.sol:MappingStructExample",
								"label": "timestamp",
								"offset": 0,
								"slot": "1",
								"type": "t_uint256"
							}
						],
						"numberOfBytes": "64"
					},
					"t_uint256": {
						"encoding": "inplace",
						"label": "uint256",
						"numberOfBytes": "32"
					}
				}
			},
			"userdoc": {
				"kind": "user",
				"methods": {},
				"version": 1
			}
		}
	}
}