{
	"contracts/ExampleMappingStruct.sol": {
		"MappingStructExample": {
			"abi": [
				{
					"inputs": [],
					"name": "depositMoney",
					"outputs": [],
					"stateMutability": "payable",
					"type": "function"
				},
				{
					"inputs": [
						{
							"internalType": "address payable",
							"name": "_to",
							"type": "address"
						},
						{
							"internalType": "uint256",
							"name": "_amount",
							"type": "uint256"
						}
					],
					"name": "withdrawMoney",
					"outputs": [],
					"stateMutability": "payable",
					"type": "function"
				}
			],
			"devdoc": {
				"kind": "dev",
				"methods": {},
				"version": 1
			},
			"evm": {
				"assembly": "    /* \"contracts/ExampleMappingStruct.sol\":209:2926  contract MappingStructExample {\r... */\n  mstore(0x40, 0x80)\n  callvalue\n  dup1\n  iszero\n  tag_1\n  jumpi\n  0x00\n  dup1\n  revert\ntag_1:\n  pop\n  dataSize(sub_0)\n  dup1\n  dataOffset(sub_0)\n  0x00\n  codecopy\n  0x00\n  return\nstop\n\nsub_0: assembly {\n        /* \"contracts/ExampleMappingStruct.sol\":209:2926  contract MappingStructExample {\r... */\n      mstore(0x40, 0x80)\n      jumpi(tag_1, lt(calldatasize, 0x04))\n      shr(0xe0, calldataload(0x00))\n      dup1\n      0x16c05aa2\n      eq\n      tag_2\n      jumpi\n      dup1\n      0xf274c897\n      eq\n      tag_3\n      jumpi\n    tag_1:\n      0x00\n      dup1\n      revert\n        /* \"contracts/ExampleMappingStruct.sol\":1298:2761  function depositMoney() public payable {\r... */\n    tag_2:\n      tag_4\n      tag_5\n      jump\t// in\n    tag_4:\n      stop\n        /* \"contracts/ExampleMappingStruct.sol\":2769:2923  function withdrawMoney(address payable _to, uint _amount) public payable {\r... */\n    tag_3:\n      tag_6\n      0x04\n      dup1\n      calldatasize\n      sub\n      dup2\n      add\n      swap1\n      tag_7\n      swap2\n      swap1\n      tag_8\n      jump\t// in\n    tag_7:\n      tag_9\n      jump\t// in\n    tag_6:\n      stop\n        /* \"contracts/ExampleMappingStruct.sol\":1298:2761  function depositMoney() public payable {\r... */\n    tag_5:\n        /* \"contracts/ExampleMappingStruct.sol\":1512:1521  msg.value */\n      callvalue\n        /* \"contracts/ExampleMappingStruct.sol\":1475:1483  balances */\n      0x00\n        /* \"contracts/ExampleMappingStruct.sol\":1475:1495  balances[msg.sender] */\n      dup1\n        /* \"contracts/ExampleMappingStruct.sol\":1484:1494  msg.sender */\n      caller\n        /* \"contracts/ExampleMappingStruct.sol\":1475:1495  balances[msg.sender] */\n      0xffffffffffffffffffffffffffffffffffffffff\n      and\n      0xffffffffffffffffffffffffffffffffffffffff\n      and\n      dup2\n      mstore\n      0x20\n      add\n      swap1\n      dup2\n      mstore\n      0x20\n      add\n      0x00\n      keccak256\n        /* \"contracts/ExampleMappingStruct.sol\":1475:1508  balances[msg.sender].totalBalance */\n      0x00\n      add\n      0x00\n        /* \"contracts/ExampleMappingStruct.sol\":1475:1521  balances[msg.sender].totalBalance += msg.value */\n      dup3\n      dup3\n      sload\n      tag_11\n      swap2\n      swap1\n      tag_12\n      jump\t// in\n    tag_11:\n      swap3\n      pop\n      pop\n      dup2\n      swap1\n      sstore\n      pop\n        /* \"contracts/ExampleMappingStruct.sol\":1630:1656  Transaction memory deposit */\n      0x00\n        /* \"contracts/ExampleMappingStruct.sol\":1659:1698  Transaction(msg.value, block.timestamp) */\n      mload(0x40)\n      dup1\n      0x40\n      add\n      0x40\n      mstore\n      dup1\n        /* \"contracts/ExampleMappingStruct.sol\":1671:1680  msg.value */\n      callvalue\n        /* \"contracts/ExampleMappingStruct.sol\":1659:1698  Transaction(msg.value, block.timestamp) */\n      dup2\n      mstore\n      0x20\n      add\n        /* \"contracts/ExampleMappingStruct.sol\":1682:1697  block.timestamp */\n      timestamp\n        /* \"contracts/ExampleMappingStruct.sol\":1659:1698  Transaction(msg.value, block.timestamp) */\n      dup2\n      mstore\n      pop\n        /* \"contracts/ExampleMappingStruct.sol\":1630:1698  Transaction memory deposit = Transaction(msg.value, block.timestamp) */\n      swap1\n      pop\n        /* \"contracts/ExampleMappingStruct.sol\":2054:2061  deposit */\n      dup1\n        /* \"contracts/ExampleMappingStruct.sol\":1986:1994  balances */\n      0x00\n        /* \"contracts/ExampleMappingStruct.sol\":1986:2006  balances[msg.sender] */\n      dup1\n        /* \"contracts/ExampleMappingStruct.sol\":1995:2005  msg.sender */\n      caller\n        /* \"contracts/ExampleMappingStruct.sol\":1986:2006  balances[msg.sender] */\n      0xffffffffffffffffffffffffffffffffffffffff\n      and\n      0xffffffffffffffffffffffffffffffffffffffff\n      and\n      dup2\n      mstore\n      0x20\n      add\n      swap1\n      dup2\n      mstore\n      0x20\n      add\n      0x00\n      keccak256\n        /* \"contracts/ExampleMappingStruct.sol\":1986:2015  balances[msg.sender].deposits */\n      0x03\n      add\n        /* \"contracts/ExampleMappingStruct.sol\":1986:2051  balances[msg.sender].deposits[balances[msg.sender].numOfDeposits] */\n      0x00\n        /* \"contracts/ExampleMappingStruct.sol\":2016:2024  balances */\n      dup1\n        /* \"contracts/ExampleMappingStruct.sol\":2016:2036  balances[msg.sender] */\n      0x00\n        /* \"contracts/ExampleMappingStruct.sol\":2025:2035  msg.sender */\n      caller\n        /* \"contracts/ExampleMappingStruct.sol\":2016:2036  balances[msg.sender] */\n      0xffffffffffffffffffffffffffffffffffffffff\n      and\n      0xffffffffffffffffffffffffffffffffffffffff\n      and\n      dup2\n      mstore\n      0x20\n      add\n      swap1\n      dup2\n      mstore\n      0x20\n      add\n      0x00\n      keccak256\n        /* \"contracts/ExampleMappingStruct.sol\":2016:2050  balances[msg.sender].numOfDeposits */\n      0x01\n      add\n      sload\n        /* \"contracts/ExampleMappingStruct.sol\":1986:2051  balances[msg.sender].deposits[balances[msg.sender].numOfDeposits] */\n      dup2\n      mstore\n      0x20\n      add\n      swap1\n      dup2\n      mstore\n      0x20\n      add\n      0x00\n      keccak256\n        /* \"contracts/ExampleMappingStruct.sol\":1986:2061  balances[msg.sender].deposits[balances[msg.sender].numOfDeposits] = deposit */\n      0x00\n      dup3\n      add\n      mload\n      dup2\n      0x00\n      add\n      sstore\n      0x20\n      dup3\n      add\n      mload\n      dup2\n      0x01\n      add\n      sstore\n      swap1\n      pop\n      pop\n        /* \"contracts/ExampleMappingStruct.sol\":2717:2725  balances */\n      0x00\n        /* \"contracts/ExampleMappingStruct.sol\":2717:2737  balances[msg.sender] */\n      dup1\n        /* \"contracts/ExampleMappingStruct.sol\":2726:2736  msg.sender */\n      caller\n        /* \"contracts/ExampleMappingStruct.sol\":2717:2737  balances[msg.sender] */\n      0xffffffffffffffffffffffffffffffffffffffff\n      and\n      0xffffffffffffffffffffffffffffffffffffffff\n      and\n      dup2\n      mstore\n      0x20\n      add\n      swap1\n      dup2\n      mstore\n      0x20\n      add\n      0x00\n      keccak256\n        /* \"contracts/ExampleMappingStruct.sol\":2717:2751  balances[msg.sender].numOfDeposits */\n      0x01\n      add\n      0x00\n        /* \"contracts/ExampleMappingStruct.sol\":2717:2753  balances[msg.sender].numOfDeposits++ */\n      dup2\n      sload\n      dup1\n      swap3\n      swap2\n      swap1\n      tag_13\n      swap1\n      tag_14\n      jump\t// in\n    tag_13:\n      swap2\n      swap1\n      pop\n      sstore\n      pop\n        /* \"contracts/ExampleMappingStruct.sol\":1337:2761  {\r... */\n      pop\n        /* \"contracts/ExampleMappingStruct.sol\":1298:2761  function depositMoney() public payable {\r... */\n      jump\t// out\n        /* \"contracts/ExampleMappingStruct.sol\":2769:2923  function withdrawMoney(address payable _to, uint _amount) public payable {\r... */\n    tag_9:\n        /* \"contracts/ExampleMappingStruct.sol\":2900:2909  msg.value */\n      callvalue\n        /* \"contracts/ExampleMappingStruct.sol\":2863:2871  balances */\n      0x00\n        /* \"contracts/ExampleMappingStruct.sol\":2863:2883  balances[msg.sender] */\n      dup1\n        /* \"contracts/ExampleMappingStruct.sol\":2872:2882  msg.sender */\n      caller\n        /* \"contracts/ExampleMappingStruct.sol\":2863:2883  balances[msg.sender] */\n      0xffffffffffffffffffffffffffffffffffffffff\n      and\n      0xffffffffffffffffffffffffffffffffffffffff\n      and\n      dup2\n      mstore\n      0x20\n      add\n      swap1\n      dup2\n      mstore\n      0x20\n      add\n      0x00\n      keccak256\n        /* \"contracts/ExampleMappingStruct.sol\":2863:2896  balances[msg.sender].totalBalance */\n      0x00\n      add\n      0x00\n        /* \"contracts/ExampleMappingStruct.sol\":2863:2909  balances[msg.sender].totalBalance -= msg.value */\n      dup3\n      dup3\n      sload\n      tag_16\n      swap2\n      swap1\n      tag_17\n      jump\t// in\n    tag_16:\n      swap3\n      pop\n      pop\n      dup2\n      swap1\n      sstore\n      pop\n        /* \"contracts/ExampleMappingStruct.sol\":2769:2923  function withdrawMoney(address payable _to, uint _amount) public payable {\r... */\n      pop\n      pop\n      jump\t// out\n        /* \"#utility.yul\":7:162   */\n    tag_19:\n        /* \"#utility.yul\":61:66   */\n      0x00\n        /* \"#utility.yul\":99:105   */\n      dup2\n        /* \"#utility.yul\":86:106   */\n      calldataload\n        /* \"#utility.yul\":77:106   */\n      swap1\n      pop\n        /* \"#utility.yul\":115:156   */\n      tag_21\n        /* \"#utility.yul\":150:155   */\n      dup2\n        /* \"#utility.yul\":115:156   */\n      tag_22\n      jump\t// in\n    tag_21:\n        /* \"#utility.yul\":7:162   */\n      swap3\n      swap2\n      pop\n      pop\n      jump\t// out\n        /* \"#utility.yul\":168:307   */\n    tag_23:\n        /* \"#utility.yul\":214:219   */\n      0x00\n        /* \"#utility.yul\":252:258   */\n      dup2\n        /* \"#utility.yul\":239:259   */\n      calldataload\n        /* \"#utility.yul\":230:259   */\n      swap1\n      pop\n        /* \"#utility.yul\":268:301   */\n      tag_25\n        /* \"#utility.yul\":295:300   */\n      dup2\n        /* \"#utility.yul\":268:301   */\n      tag_26\n      jump\t// in\n    tag_25:\n        /* \"#utility.yul\":168:307   */\n      swap3\n      swap2\n      pop\n      pop\n      jump\t// out\n        /* \"#utility.yul\":313:803   */\n    tag_8:\n        /* \"#utility.yul\":389:395   */\n      0x00\n        /* \"#utility.yul\":397:403   */\n      dup1\n        /* \"#utility.yul\":446:448   */\n      0x40\n        /* \"#utility.yul\":434:443   */\n      dup4\n        /* \"#utility.yul\":425:432   */\n      dup6\n        /* \"#utility.yul\":421:444   */\n      sub\n        /* \"#utility.yul\":417:449   */\n      slt\n        /* \"#utility.yul\":414:533   */\n      iszero\n      tag_28\n      jumpi\n        /* \"#utility.yul\":452:531   */\n      tag_29\n      tag_30\n      jump\t// in\n    tag_29:\n        /* \"#utility.yul\":414:533   */\n    tag_28:\n        /* \"#utility.yul\":572:573   */\n      0x00\n        /* \"#utility.yul\":597:658   */\n      tag_31\n        /* \"#utility.yul\":650:657   */\n      dup6\n        /* \"#utility.yul\":641:647   */\n      dup3\n        /* \"#utility.yul\":630:639   */\n      dup7\n        /* \"#utility.yul\":626:648   */\n      add\n        /* \"#utility.yul\":597:658   */\n      tag_19\n      jump\t// in\n    tag_31:\n        /* \"#utility.yul\":587:658   */\n      swap3\n      pop\n        /* \"#utility.yul\":543:668   */\n      pop\n        /* \"#utility.yul\":707:709   */\n      0x20\n        /* \"#utility.yul\":733:786   */\n      tag_32\n        /* \"#utility.yul\":778:785   */\n      dup6\n        /* \"#utility.yul\":769:775   */\n      dup3\n        /* \"#utility.yul\":758:767   */\n      dup7\n        /* \"#utility.yul\":754:776   */\n      add\n        /* \"#utility.yul\":733:786   */\n      tag_23\n      jump\t// in\n    tag_32:\n        /* \"#utility.yul\":723:786   */\n      swap2\n      pop\n        /* \"#utility.yul\":678:796   */\n      pop\n        /* \"#utility.yul\":313:803   */\n      swap3\n      pop\n      swap3\n      swap1\n      pop\n      jump\t// out\n        /* \"#utility.yul\":890:1195   */\n    tag_12:\n        /* \"#utility.yul\":930:933   */\n      0x00\n        /* \"#utility.yul\":949:969   */\n      tag_36\n        /* \"#utility.yul\":967:968   */\n      dup3\n        /* \"#utility.yul\":949:969   */\n      tag_37\n      jump\t// in\n    tag_36:\n        /* \"#utility.yul\":944:969   */\n      swap2\n      pop\n        /* \"#utility.yul\":983:1003   */\n      tag_38\n        /* \"#utility.yul\":1001:1002   */\n      dup4\n        /* \"#utility.yul\":983:1003   */\n      tag_37\n      jump\t// in\n    tag_38:\n        /* \"#utility.yul\":978:1003   */\n      swap3\n      pop\n        /* \"#utility.yul\":1137:1138   */\n      dup3\n        /* \"#utility.yul\":1069:1135   */\n      0xffffffffffffffffffffffffffffffffffffffffffffffffffffffffffffffff\n        /* \"#utility.yul\":1065:1139   */\n      sub\n        /* \"#utility.yul\":1062:1063   */\n      dup3\n        /* \"#utility.yul\":1059:1140   */\n      gt\n        /* \"#utility.yul\":1056:1163   */\n      iszero\n      tag_39\n      jumpi\n        /* \"#utility.yul\":1143:1161   */\n      tag_40\n      tag_41\n      jump\t// in\n    tag_40:\n        /* \"#utility.yul\":1056:1163   */\n    tag_39:\n        /* \"#utility.yul\":1187:1188   */\n      dup3\n        /* \"#utility.yul\":1184:1185   */\n      dup3\n        /* \"#utility.yul\":1180:1189   */\n      add\n        /* \"#utility.yul\":1173:1189   */\n      swap1\n      pop\n        /* \"#utility.yul\":890:1195   */\n      swap3\n      swap2\n      pop\n      pop\n      jump\t// out\n        /* \"#utility.yul\":1201:1392   */\n    tag_17:\n        /* \"#utility.yul\":1241:1245   */\n      0x00\n        /* \"#utility.yul\":1261:1281   */\n      tag_43\n        /* \"#utility.yul\":1279:1280   */\n      dup3\n        /* \"#utility.yul\":1261:1281   */\n      tag_37\n      jump\t// in\n    tag_43:\n        /* \"#utility.yul\":1256:1281   */\n      swap2\n      pop\n        /* \"#utility.yul\":1295:1315   */\n      tag_44\n        /* \"#utility.yul\":1313:1314   */\n      dup4\n        /* \"#utility.yul\":1295:1315   */\n      tag_37\n      jump\t// in\n    tag_44:\n        /* \"#utility.yul\":1290:1315   */\n      swap3\n      pop\n        /* \"#utility.yul\":1334:1335   */\n      dup3\n        /* \"#utility.yul\":1331:1332   */\n      dup3\n        /* \"#utility.yul\":1328:1336   */\n      lt\n        /* \"#utility.yul\":1325:1359   */\n      iszero\n      tag_45\n      jumpi\n        /* \"#utility.yul\":1339:1357   */\n      tag_46\n      tag_41\n      jump\t// in\n    tag_46:\n        /* \"#utility.yul\":1325:1359   */\n    tag_45:\n        /* \"#utility.yul\":1384:1385   */\n      dup3\n        /* \"#utility.yul\":1381:1382   */\n      dup3\n        /* \"#utility.yul\":1377:1386   */\n      sub\n        /* \"#utility.yul\":1369:1386   */\n      swap1\n      pop\n        /* \"#utility.yul\":1201:1392   */\n      swap3\n      swap2\n      pop\n      pop\n      jump\t// out\n        /* \"#utility.yul\":1398:1502   */\n    tag_47:\n        /* \"#utility.yul\":1443:1450   */\n      0x00\n        /* \"#utility.yul\":1472:1496   */\n      tag_49\n        /* \"#utility.yul\":1490:1495   */\n      dup3\n        /* \"#utility.yul\":1472:1496   */\n      tag_50\n      jump\t// in\n    tag_49:\n        /* \"#utility.yul\":1461:1496   */\n      swap1\n      pop\n        /* \"#utility.yul\":1398:1502   */\n      swap2\n      swap1\n      pop\n      jump\t// out\n        /* \"#utility.yul\":1508:1634   */\n    tag_50:\n        /* \"#utility.yul\":1545:1552   */\n      0x00\n        /* \"#utility.yul\":1585:1627   */\n      0xffffffffffffffffffffffffffffffffffffffff\n        /* \"#utility.yul\":1578:1583   */\n      dup3\n        /* \"#utility.yul\":1574:1628   */\n      and\n        /* \"#utility.yul\":1563:1628   */\n      swap1\n      pop\n        /* \"#utility.yul\":1508:1634   */\n      swap2\n      swap1\n      pop\n      jump\t// out\n        /* \"#utility.yul\":1640:1717   */\n    tag_37:\n        /* \"#utility.yul\":1677:1684   */\n      0x00\n        /* \"#utility.yul\":1706:1711   */\n      dup2\n        /* \"#utility.yul\":1695:1711   */\n      swap1\n      pop\n        /* \"#utility.yul\":1640:1717   */\n      swap2\n      swap1\n      pop\n      jump\t// out\n        /* \"#utility.yul\":1723:1956   */\n    tag_14:\n        /* \"#utility.yul\":1762:1765   */\n      0x00\n        /* \"#utility.yul\":1785:1809   */\n      tag_54\n        /* \"#utility.yul\":1803:1808   */\n      dup3\n        /* \"#utility.yul\":1785:1809   */\n      tag_37\n      jump\t// in\n    tag_54:\n        /* \"#utility.yul\":1776:1809   */\n      swap2\n      pop\n        /* \"#utility.yul\":1831:1897   */\n      0xffffffffffffffffffffffffffffffffffffffffffffffffffffffffffffffff\n        /* \"#utility.yul\":1824:1829   */\n      dup3\n        /* \"#utility.yul\":1821:1898   */\n      eq\n        /* \"#utility.yul\":1818:1921   */\n      iszero\n      tag_55\n      jumpi\n        /* \"#utility.yul\":1901:1919   */\n      tag_56\n      tag_41\n      jump\t// in\n    tag_56:\n        /* \"#utility.yul\":1818:1921   */\n    tag_55:\n        /* \"#utility.yul\":1948:1949   */\n      0x01\n        /* \"#utility.yul\":1941:1946   */\n      dup3\n        /* \"#utility.yul\":1937:1950   */\n      add\n        /* \"#utility.yul\":1930:1950   */\n      swap1\n      pop\n        /* \"#utility.yul\":1723:1956   */\n      swap2\n      swap1\n      pop\n      jump\t// out\n        /* \"#utility.yul\":1962:2142   */\n    tag_41:\n        /* \"#utility.yul\":2010:2087   */\n      0x4e487b7100000000000000000000000000000000000000000000000000000000\n        /* \"#utility.yul\":2007:2008   */\n      0x00\n        /* \"#utility.yul\":2000:2088   */\n      mstore\n        /* \"#utility.yul\":2107:2111   */\n      0x11\n        /* \"#utility.yul\":2104:2105   */\n      0x04\n        /* \"#utility.yul\":2097:2112   */\n      mstore\n        /* \"#utility.yul\":2131:2135   */\n      0x24\n        /* \"#utility.yul\":2128:2129   */\n      0x00\n        /* \"#utility.yul\":2121:2136   */\n      revert\n        /* \"#utility.yul\":2271:2388   */\n    tag_30:\n        /* \"#utility.yul\":2380:2381   */\n      0x00\n        /* \"#utility.yul\":2377:2378   */\n      dup1\n        /* \"#utility.yul\":2370:2382   */\n      revert\n        /* \"#utility.yul\":2394:2532   */\n    tag_22:\n        /* \"#utility.yul\":2475:2507   */\n      tag_62\n        /* \"#utility.yul\":2501:2506   */\n      dup2\n        /* \"#utility.yul\":2475:2507   */\n      tag_47\n      jump\t// in\n    tag_62:\n        /* \"#utility.yul\":2468:2473   */\n      dup2\n        /* \"#utility.yul\":2465:2508   */\n      eq\n        /* \"#utility.yul\":2455:2526   */\n      tag_63\n      jumpi\n        /* \"#utility.yul\":2522:2523   */\n      0x00\n        /* \"#utility.yul\":2519:2520   */\n      dup1\n        /* \"#utility.yul\":2512:2524   */\n      revert\n        /* \"#utility.yul\":2455:2526   */\n    tag_63:\n        /* \"#utility.yul\":2394:2532   */\n      pop\n      jump\t// out\n        /* \"#utility.yul\":2538:2660   */\n    tag_26:\n        /* \"#utility.yul\":2611:2635   */\n      tag_65\n        /* \"#utility.yul\":2629:2634   */\n      dup2\n        /* \"#utility.yul\":2611:2635   */\n      tag_37\n      jump\t// in\n    tag_65:\n        /* \"#utility.yul\":2604:2609   */\n      dup2\n        /* \"#utility.yul\":2601:2636   */\n      eq\n        /* \"#utility.yul\":2591:2654   */\n      tag_66\n      jumpi\n        /* \"#utility.yul\":2650:2651   */\n      0x00\n        /* \"#utility.yul\":2647:2648   */\n      dup1\n        /* \"#utility.yul\":2640:2652   */\n      revert\n        /* \"#utility.yul\":2591:2654   */\n    tag_66:\n        /* \"#utility.yul\":2538:2660   */\n      pop\n      jump\t// out\n\n    auxdata: 0xa26469706673582212208e1c92f1c043427b4077eb47924b06bc1ce62cd9a093253331b8c54627bffb1664736f6c63430008070033\n}\n",
				"bytecode": {
					"linkReferences": {},
					"object": "608060405234801561001057600080fd5b50610437806100206000396000f3fe6080604052600436106100295760003560e01c806316c05aa21461002e578063f274c89714610038575b600080fd5b610036610054565b005b610052600480360381019061004d9190610250565b6101ca565b005b346000803373ffffffffffffffffffffffffffffffffffffffff1673ffffffffffffffffffffffffffffffffffffffff16815260200190815260200160002060000160008282546100a59190610290565b9250508190555060006040518060400160405280348152602001428152509050806000803373ffffffffffffffffffffffffffffffffffffffff1673ffffffffffffffffffffffffffffffffffffffff16815260200190815260200160002060030160008060003373ffffffffffffffffffffffffffffffffffffffff1673ffffffffffffffffffffffffffffffffffffffff16815260200190815260200160002060010154815260200190815260200160002060008201518160000155602082015181600101559050506000803373ffffffffffffffffffffffffffffffffffffffff1673ffffffffffffffffffffffffffffffffffffffff16815260200190815260200160002060010160008154809291906101c290610356565b919050555050565b346000803373ffffffffffffffffffffffffffffffffffffffff1673ffffffffffffffffffffffffffffffffffffffff168152602001908152602001600020600001600082825461021b91906102e6565b925050819055505050565b600081359050610235816103d3565b92915050565b60008135905061024a816103ea565b92915050565b60008060408385031215610267576102666103ce565b5b600061027585828601610226565b92505060206102868582860161023b565b9150509250929050565b600061029b8261034c565b91506102a68361034c565b9250827fffffffffffffffffffffffffffffffffffffffffffffffffffffffffffffffff038211156102db576102da61039f565b5b828201905092915050565b60006102f18261034c565b91506102fc8361034c565b92508282101561030f5761030e61039f565b5b828203905092915050565b60006103258261032c565b9050919050565b600073ffffffffffffffffffffffffffffffffffffffff82169050919050565b6000819050919050565b60006103618261034c565b91507fffffffffffffffffffffffffffffffffffffffffffffffffffffffffffffffff8214156103945761039361039f565b5b600182019050919050565b7f4e487b7100000000000000000000000000000000000000000000000000000000600052601160045260246000fd5b600080fd5b6103dc8161031a565b81146103e757600080fd5b50565b6103f38161034c565b81146103fe57600080fd5b5056fea26469706673582212208e1c92f1c043427b4077eb47924b06bc1ce62cd9a093253331b8c54627bffb1664736f6c63430008070033",
					"opcodes": "PUSH1 0x80 PUSH1 0x40 MSTORE CALLVALUE DUP1 ISZERO PUSH2 0x10 JUMPI PUSH1 0x0 DUP1 REVERT JUMPDEST POP PUSH2 0x437 DUP1 PUSH2 0x20 PUSH1 0x0 CODECOPY PUSH1 0x0 RETURN INVALID PUSH1 0x80 PUSH1 0x40 MSTORE PUSH1 0x4 CALLDATASIZE LT PUSH2 0x29 JUMPI PUSH1 0x0 CALLDATALOAD PUSH1 0xE0 SHR DUP1 PUSH4 0x16C05AA2 EQ PUSH2 0x2E JUMPI DUP1 PUSH4 0xF274C897 EQ PUSH2 0x38 JUMPI JUMPDEST PUSH1 0x0 DUP1 REVERT JUMPDEST PUSH2 0x36 PUSH2 0x54 JUMP JUMPDEST STOP JUMPDEST PUSH2 0x52 PUSH1 0x4 DUP1 CALLDATASIZE SUB DUP2 ADD SWAP1 PUSH2 0x4D SWAP2 SWAP1 PUSH2 0x250 JUMP JUMPDEST PUSH2 0x1CA JUMP JUMPDEST STOP JUMPDEST CALLVALUE PUSH1 0x0 DUP1 CALLER PUSH20 0xFFFFFFFFFFFFFFFFFFFFFFFFFFFFFFFFFFFFFFFF AND PUSH20 0xFFFFFFFFFFFFFFFFFFFFFFFFFFFFFFFFFFFFFFFF AND DUP2 MSTORE PUSH1 0x20 ADD SWAP1 DUP2 MSTORE PUSH1 0x20 ADD PUSH1 0x0 KECCAK256 PUSH1 0x0 ADD PUSH1 0x0 DUP3 DUP3 SLOAD PUSH2 0xA5 SWAP2 SWAP1 PUSH2 0x290 JUMP JUMPDEST SWAP3 POP POP DUP2 SWAP1 SSTORE POP PUSH1 0x0 PUSH1 0x40 MLOAD DUP1 PUSH1 0x40 ADD PUSH1 0x40 MSTORE DUP1 CALLVALUE DUP2 MSTORE PUSH1 0x20 ADD TIMESTAMP DUP2 MSTORE POP SWAP1 POP DUP1 PUSH1 0x0 DUP1 CALLER PUSH20 0xFFFFFFFFFFFFFFFFFFFFFFFFFFFFFFFFFFFFFFFF AND PUSH20 0xFFFFFFFFFFFFFFFFFFFFFFFFFFFFFFFFFFFFFFFF AND DUP2 MSTORE PUSH1 0x20 ADD SWAP1 DUP2 MSTORE PUSH1 0x20 ADD PUSH1 0x0 KECCAK256 PUSH1 0x3 ADD PUSH1 0x0 DUP1 PUSH1 0x0 CALLER PUSH20 0xFFFFFFFFFFFFFFFFFFFFFFFFFFFFFFFFFFFFFFFF AND PUSH20 0xFFFFFFFFFFFFFFFFFFFFFFFFFFFFFFFFFFFFFFFF AND DUP2 MSTORE PUSH1 0x20 ADD SWAP1 DUP2 MSTORE PUSH1 0x20 ADD PUSH1 0x0 KECCAK256 PUSH1 0x1 ADD SLOAD DUP2 MSTORE PUSH1 0x20 ADD SWAP1 DUP2 MSTORE PUSH1 0x20 ADD PUSH1 0x0 KECCAK256 PUSH1 0x0 DUP3 ADD MLOAD DUP2 PUSH1 0x0 ADD SSTORE PUSH1 0x20 DUP3 ADD MLOAD DUP2 PUSH1 0x1 ADD SSTORE SWAP1 POP POP PUSH1 0x0 DUP1 CALLER PUSH20 0xFFFFFFFFFFFFFFFFFFFFFFFFFFFFFFFFFFFFFFFF AND PUSH20 0xFFFFFFFFFFFFFFFFFFFFFFFFFFFFFFFFFFFFFFFF AND DUP2 MSTORE PUSH1 0x20 ADD SWAP1 DUP2 MSTORE PUSH1 0x20 ADD PUSH1 0x0 KECCAK256 PUSH1 0x1 ADD PUSH1 0x0 DUP2 SLOAD DUP1 SWAP3 SWAP2 SWAP1 PUSH2 0x1C2 SWAP1 PUSH2 0x356 JUMP JUMPDEST SWAP2 SWAP1 POP SSTORE POP POP JUMP JUMPDEST CALLVALUE PUSH1 0x0 DUP1 CALLER PUSH20 0xFFFFFFFFFFFFFFFFFFFFFFFFFFFFFFFFFFFFFFFF AND PUSH20 0xFFFFFFFFFFFFFFFFFFFFFFFFFFFFFFFFFFFFFFFF AND DUP2 MSTORE PUSH1 0x20 ADD SWAP1 DUP2 MSTORE PUSH1 0x20 ADD PUSH1 0x0 KECCAK256 PUSH1 0x0 ADD PUSH1 0x0 DUP3 DUP3 SLOAD PUSH2 0x21B SWAP2 SWAP1 PUSH2 0x2E6 JUMP JUMPDEST SWAP3 POP POP DUP2 SWAP1 SSTORE POP POP POP JUMP JUMPDEST PUSH1 0x0 DUP2 CALLDATALOAD SWAP1 POP PUSH2 0x235 DUP2 PUSH2 0x3D3 JUMP JUMPDEST SWAP3 SWAP2 POP POP JUMP JUMPDEST PUSH1 0x0 DUP2 CALLDATALOAD SWAP1 POP PUSH2 0x24A DUP2 PUSH2 0x3EA JUMP JUMPDEST SWAP3 SWAP2 POP POP JUMP JUMPDEST PUSH1 0x0 DUP1 PUSH1 0x40 DUP4 DUP6 SUB SLT ISZERO PUSH2 0x267 JUMPI PUSH2 0x266 PUSH2 0x3CE JUMP JUMPDEST JUMPDEST PUSH1 0x0 PUSH2 0x275 DUP6 DUP3 DUP7 ADD PUSH2 0x226 JUMP JUMPDEST SWAP3 POP POP PUSH1 0x20 PUSH2 0x286 DUP6 DUP3 DUP7 ADD PUSH2 0x23B JUMP JUMPDEST SWAP2 POP POP SWAP3 POP SWAP3 SWAP1 POP JUMP JUMPDEST PUSH1 0x0 PUSH2 0x29B DUP3 PUSH2 0x34C JUMP JUMPDEST SWAP2 POP PUSH2 0x2A6 DUP4 PUSH2 0x34C JUMP JUMPDEST SWAP3 POP DUP3 PUSH32 0xFFFFFFFFFFFFFFFFFFFFFFFFFFFFFFFFFFFFFFFFFFFFFFFFFFFFFFFFFFFFFFFF SUB DUP3 GT ISZERO PUSH2 0x2DB JUMPI PUSH2 0x2DA PUSH2 0x39F JUMP JUMPDEST JUMPDEST DUP3 DUP3 ADD SWAP1 POP SWAP3 SWAP2 POP POP JUMP JUMPDEST PUSH1 0x0 PUSH2 0x2F1 DUP3 PUSH2 0x34C JUMP JUMPDEST SWAP2 POP PUSH2 0x2FC DUP4 PUSH2 0x34C JUMP JUMPDEST SWAP3 POP DUP3 DUP3 LT ISZERO PUSH2 0x30F JUMPI PUSH2 0x30E PUSH2 0x39F JUMP JUMPDEST JUMPDEST DUP3 DUP3 SUB SWAP1 POP SWAP3 SWAP2 POP POP JUMP JUMPDEST PUSH1 0x0 PUSH2 0x325 DUP3 PUSH2 0x32C JUMP JUMPDEST SWAP1 POP SWAP2 SWAP1 POP JUMP JUMPDEST PUSH1 0x0 PUSH20 0xFFFFFFFFFFFFFFFFFFFFFFFFFFFFFFFFFFFFFFFF DUP3 AND SWAP1 POP SWAP2 SWAP1 POP JUMP JUMPDEST PUSH1 0x0 DUP2 SWAP1 POP SWAP2 SWAP1 POP JUMP JUMPDEST PUSH1 0x0 PUSH2 0x361 DUP3 PUSH2 0x34C JUMP JUMPDEST SWAP2 POP PUSH32 0xFFFFFFFFFFFFFFFFFFFFFFFFFFFFFFFFFFFFFFFFFFFFFFFFFFFFFFFFFFFFFFFF DUP3 EQ ISZERO PUSH2 0x394 JUMPI PUSH2 0x393 PUSH2 0x39F JUMP JUMPDEST JUMPDEST PUSH1 0x1 DUP3 ADD SWAP1 POP SWAP2 SWAP1 POP JUMP JUMPDEST PUSH32 0x4E487B7100000000000000000000000000000000000000000000000000000000 PUSH1 0x0 MSTORE PUSH1 0x11 PUSH1 0x4 MSTORE PUSH1 0x24 PUSH1 0x0 REVERT JUMPDEST PUSH1 0x0 DUP1 REVERT JUMPDEST PUSH2 0x3DC DUP2 PUSH2 0x31A JUMP JUMPDEST DUP2 EQ PUSH2 0x3E7 JUMPI PUSH1 0x0 DUP1 REVERT JUMPDEST POP JUMP JUMPDEST PUSH2 0x3F3 DUP2 PUSH2 0x34C JUMP JUMPDEST DUP2 EQ PUSH2 0x3FE JUMPI PUSH1 0x0 DUP1 REVERT JUMPDEST POP JUMP INVALID LOG2 PUSH5 0x6970667358 0x22 SLT KECCAK256 DUP15 SHR SWAP3 CALL 0xC0 NUMBER TIMESTAMP PUSH28 0x4077EB47924B06BC1CE62CD9A093253331B8C54627BFFB1664736F6C PUSH4 0x43000807 STOP CALLER "
				},
				"gasEstimates": {
					"creation": {
						"codeDepositCost": "215800",
						"executionCost": "257",
						"totalCost": "216057"
					},
					"external": {
						"depositMoney()": "infinite",
						"withdrawMoney(address,uint256)": "infinite"
					}
				},
				"methodIdentifiers": {
					"depositMoney()": "16c05aa2",
					"withdrawMoney(address,uint256)": "f274c897"
				}
			},
			"storageLayout": {
				"storage": [
					{
						"astId": 28,
						"contract": "contracts/ExampleMappingStruct.sol:MappingStructExample",
						"label": "balances",
						"offset": 0,
						"slot": "0",
						"type": "t_mapping(t_address,t_struct(Balance)23_storage)"
					}
				],
				"types": {
					"t_address": {
						"encoding": "inplace",
						"label": "address",
						"numberOfBytes": "20"
					},
					"t_mapping(t_address,t_struct(Balance)23_storage)": {
						"encoding": "mapping",
						"key": "t_address",
						"label": "mapping(address => struct MappingStructExample.Balance)",
						"numberOfBytes": "32",
						"value": "t_struct(Balance)23_storage"
					},
					"t_mapping(t_uint256,t_struct(Transaction)6_storage)": {
						"encoding": "mapping",
						"key": "t_uint256",
						"label": "mapping(uint256 => struct MappingStructExample.Transaction)",
						"numberOfBytes": "32",
						"value": "t_struct(Transaction)6_storage"
					},
					"t_struct(Balance)23_storage": {
						"encoding": "inplace",
						"label": "struct MappingStructExample.Balance",
						"members": [
							{
								"astId": 8,
								"contract": "contracts/ExampleMappingStruct.sol:MappingStructExample",
								"label": "totalBalance",
								"offset": 0,
								"slot": "0",
								"type": "t_uint256"
							},
							{
								"astId": 10,
								"contract": "contracts/ExampleMappingStruct.sol:MappingStructExample",
								"label": "numOfDeposits",
								"offset": 0,
								"slot": "1",
								"type": "t_uint256"
							},
							{
								"astId": 12,
								"contract": "contracts/ExampleMappingStruct.sol:MappingStructExample",
								"label": "numOfWithdrawals",
								"offset": 0,
								"slot": "2",
								"type": "t_uint256"
							},
							{
								"astId": 17,
								"contract": "contracts/ExampleMappingStruct.sol:MappingStructExample",
								"label": "deposits",
								"offset": 0,
								"slot": "3",
								"type": "t_mapping(t_uint256,t_struct(Transaction)6_storage)"
							},
							{
								"astId": 22,
								"contract": "contracts/ExampleMappingStruct.sol:MappingStructExample",
								"label": "withdrawals",
								"offset": 0,
								"slot": "4",
								"type": "t_mapping(t_uint256,t_struct(Transaction)6_storage)"
							}
						],
						"numberOfBytes": "160"
					},
					"t_struct(Transaction)6_storage": {
						"encoding": "inplace",
						"label": "struct MappingStructExample.Transaction",
						"members": [
							{
								"astId": 3,
								"contract": "contracts/ExampleMappingStruct.sol:MappingStructExample",
								"label": "amount",
								"offset": 0,
								"slot": "0",
								"type": "t_uint256"
							},
							{
								"astId": 5,
								"contract": "contracts/ExampleMappingStruct.sol:MappingStructExample",
								"label": "timestamp",
								"offset": 0,
								"slot": "1",
								"type": "t_uint256"
							}
						],
						"numberOfBytes": "64"
					},
					"t_uint256": {
						"encoding": "inplace",
						"label": "uint256",
						"numberOfBytes": "32"
					}
				}
			},
			"userdoc": {
				"kind": "user",
				"methods": {},
				"version": 1
			}
		}
	}
}