{
	"contracts/ExampleMapping.sol": {
		"ExampleMapping": {
			"abi": [
				{
					"inputs": [
						{
							"internalType": "address",
							"name": "",
							"type": "address"
						}
					],
					"name": "myAddressMapping",
					"outputs": [
						{
							"internalType": "bool",
							"name": "",
							"type": "bool"
						}
					],
					"stateMutability": "view",
					"type": "function"
				},
				{
					"inputs": [
						{
							"internalType": "uint256",
							"name": "",
							"type": "uint256"
						}
					],
					"name": "myMapping",
					"outputs": [
						{
							"internalType": "bool",
							"name": "",
							"type": "bool"
						}
					],
					"stateMutability": "view",
					"type": "function"
				},
				{
					"inputs": [],
					"name": "setMyAddressToTrue",
					"outputs": [],
					"stateMutability": "nonpayable",
					"type": "function"
				},
				{
					"inputs": [
						{
							"internalType": "uint256",
							"name": "_key1",
							"type": "uint256"
						},
						{
							"internalType": "uint256",
							"name": "_key2",
							"type": "uint256"
						},
						{
							"internalType": "bool",
							"name": "_value",
							"type": "bool"
						}
					],
					"name": "setUintUintBoolMapping",
					"outputs": [],
					"stateMutability": "nonpayable",
					"type": "function"
				},
				{
					"inputs": [
						{
							"internalType": "uint256",
							"name": "_index",
							"type": "uint256"
						}
					],
					"name": "setValue",
					"outputs": [],
					"stateMutability": "nonpayable",
					"type": "function"
				},
				{
					"inputs": [
						{
							"internalType": "uint256",
							"name": "",
							"type": "uint256"
						},
						{
							"internalType": "uint256",
							"name": "",
							"type": "uint256"
						}
					],
					"name": "uintUintBoolMapping",
					"outputs": [
						{
							"internalType": "bool",
							"name": "",
							"type": "bool"
						}
					],
					"stateMutability": "view",
					"type": "function"
				}
			],
			"devdoc": {
				"kind": "dev",
				"methods": {},
				"version": 1
			},
			"evm": {
				"assembly": "    /* \"contracts/ExampleMapping.sol\":74:640  contract ExampleMapping {\r... */\n  mstore(0x40, 0x80)\n  callvalue\n  dup1\n  iszero\n  tag_1\n  jumpi\n  0x00\n  dup1\n  revert\ntag_1:\n  pop\n  dataSize(sub_0)\n  dup1\n  dataOffset(sub_0)\n  0x00\n  codecopy\n  0x00\n  return\nstop\n\nsub_0: assembly {\n        /* \"contracts/ExampleMapping.sol\":74:640  contract ExampleMapping {\r... */\n      mstore(0x40, 0x80)\n      callvalue\n      dup1\n      iszero\n      tag_1\n      jumpi\n      0x00\n      dup1\n      revert\n    tag_1:\n      pop\n      jumpi(tag_2, lt(calldatasize, 0x04))\n      shr(0xe0, calldataload(0x00))\n      dup1\n      0x55241077\n      eq\n      tag_3\n      jumpi\n      dup1\n      0x634899ce\n      eq\n      tag_4\n      jumpi\n      dup1\n      0x7c668844\n      eq\n      tag_5\n      jumpi\n      dup1\n      0xb92ba3b8\n      eq\n      tag_6\n      jumpi\n      dup1\n      0xbc65030e\n      eq\n      tag_7\n      jumpi\n      dup1\n      0xef5d5684\n      eq\n      tag_8\n      jumpi\n    tag_2:\n      0x00\n      dup1\n      revert\n        /* \"contracts/ExampleMapping.sol\":209:290  function setValue(uint _index) public {\r... */\n    tag_3:\n      tag_9\n      0x04\n      dup1\n      calldatasize\n      sub\n      dup2\n      add\n      swap1\n      tag_10\n      swap2\n      swap1\n      tag_11\n      jump\t// in\n    tag_10:\n      tag_12\n      jump\t// in\n    tag_9:\n      stop\n        /* \"contracts/ExampleMapping.sol\":298:389  function setMyAddressToTrue() public {\r... */\n    tag_4:\n      tag_13\n      tag_14\n      jump\t// in\n    tag_13:\n      stop\n        /* \"contracts/ExampleMapping.sol\":107:145  mapping(uint => bool) public myMapping */\n    tag_5:\n      tag_15\n      0x04\n      dup1\n      calldatasize\n      sub\n      dup2\n      add\n      swap1\n      tag_16\n      swap2\n      swap1\n      tag_11\n      jump\t// in\n    tag_16:\n      tag_17\n      jump\t// in\n    tag_15:\n      mload(0x40)\n      tag_18\n      swap2\n      swap1\n      tag_19\n      jump\t// in\n    tag_18:\n      mload(0x40)\n      dup1\n      swap2\n      sub\n      swap1\n      return\n        /* \"contracts/ExampleMapping.sol\":152:200  mapping(address => bool) public myAddressMapping */\n    tag_6:\n      tag_20\n      0x04\n      dup1\n      calldatasize\n      sub\n      dup2\n      add\n      swap1\n      tag_21\n      swap2\n      swap1\n      tag_22\n      jump\t// in\n    tag_21:\n      tag_23\n      jump\t// in\n    tag_20:\n      mload(0x40)\n      tag_24\n      swap2\n      swap1\n      tag_19\n      jump\t// in\n    tag_24:\n      mload(0x40)\n      dup1\n      swap2\n      sub\n      swap1\n      return\n        /* \"contracts/ExampleMapping.sol\":500:637  function setUintUintBoolMapping(uint _key1, uint _key2, bool _value) public {\r... */\n    tag_7:\n      tag_25\n      0x04\n      dup1\n      calldatasize\n      sub\n      dup2\n      add\n      swap1\n      tag_26\n      swap2\n      swap1\n      tag_27\n      jump\t// in\n    tag_26:\n      tag_28\n      jump\t// in\n    tag_25:\n      stop\n        /* \"contracts/ExampleMapping.sol\":426:491  mapping(uint => mapping(uint => bool)) public uintUintBoolMapping */\n    tag_8:\n      tag_29\n      0x04\n      dup1\n      calldatasize\n      sub\n      dup2\n      add\n      swap1\n      tag_30\n      swap2\n      swap1\n      tag_31\n      jump\t// in\n    tag_30:\n      tag_32\n      jump\t// in\n    tag_29:\n      mload(0x40)\n      tag_33\n      swap2\n      swap1\n      tag_19\n      jump\t// in\n    tag_33:\n      mload(0x40)\n      dup1\n      swap2\n      sub\n      swap1\n      return\n        /* \"contracts/ExampleMapping.sol\":209:290  function setValue(uint _index) public {\r... */\n    tag_12:\n        /* \"contracts/ExampleMapping.sol\":278:282  true */\n      0x01\n        /* \"contracts/ExampleMapping.sol\":258:267  myMapping */\n      0x00\n        /* \"contracts/ExampleMapping.sol\":258:275  myMapping[_index] */\n      dup1\n        /* \"contracts/ExampleMapping.sol\":268:274  _index */\n      dup4\n        /* \"contracts/ExampleMapping.sol\":258:275  myMapping[_index] */\n      dup2\n      mstore\n      0x20\n      add\n      swap1\n      dup2\n      mstore\n      0x20\n      add\n      0x00\n      keccak256\n      0x00\n        /* \"contracts/ExampleMapping.sol\":258:282  myMapping[_index] = true */\n      0x0100\n      exp\n      dup2\n      sload\n      dup2\n      0xff\n      mul\n      not\n      and\n      swap1\n      dup4\n      iszero\n      iszero\n      mul\n      or\n      swap1\n      sstore\n      pop\n        /* \"contracts/ExampleMapping.sol\":209:290  function setValue(uint _index) public {\r... */\n      pop\n      jump\t// out\n        /* \"contracts/ExampleMapping.sol\":298:389  function setMyAddressToTrue() public {\r... */\n    tag_14:\n        /* \"contracts/ExampleMapping.sol\":377:381  true */\n      0x01\n        /* \"contracts/ExampleMapping.sol\":346:362  myAddressMapping */\n      dup1\n        /* \"contracts/ExampleMapping.sol\":346:374  myAddressMapping[msg.sender] */\n      0x00\n        /* \"contracts/ExampleMapping.sol\":363:373  msg.sender */\n      caller\n        /* \"contracts/ExampleMapping.sol\":346:374  myAddressMapping[msg.sender] */\n      0xffffffffffffffffffffffffffffffffffffffff\n      and\n      0xffffffffffffffffffffffffffffffffffffffff\n      and\n      dup2\n      mstore\n      0x20\n      add\n      swap1\n      dup2\n      mstore\n      0x20\n      add\n      0x00\n      keccak256\n      0x00\n        /* \"contracts/ExampleMapping.sol\":346:381  myAddressMapping[msg.sender] = true */\n      0x0100\n      exp\n      dup2\n      sload\n      dup2\n      0xff\n      mul\n      not\n      and\n      swap1\n      dup4\n      iszero\n      iszero\n      mul\n      or\n      swap1\n      sstore\n      pop\n        /* \"contracts/ExampleMapping.sol\":298:389  function setMyAddressToTrue() public {\r... */\n      jump\t// out\n        /* \"contracts/ExampleMapping.sol\":107:145  mapping(uint => bool) public myMapping */\n    tag_17:\n      mstore(0x20, 0x00)\n      dup1\n      0x00\n      mstore\n      keccak256(0x00, 0x40)\n      0x00\n      swap2\n      pop\n      sload\n      swap1\n      0x0100\n      exp\n      swap1\n      div\n      0xff\n      and\n      dup2\n      jump\t// out\n        /* \"contracts/ExampleMapping.sol\":152:200  mapping(address => bool) public myAddressMapping */\n    tag_23:\n      mstore(0x20, 0x01)\n      dup1\n      0x00\n      mstore\n      keccak256(0x00, 0x40)\n      0x00\n      swap2\n      pop\n      sload\n      swap1\n      0x0100\n      exp\n      swap1\n      div\n      0xff\n      and\n      dup2\n      jump\t// out\n        /* \"contracts/ExampleMapping.sol\":500:637  function setUintUintBoolMapping(uint _key1, uint _key2, bool _value) public {\r... */\n    tag_28:\n        /* \"contracts/ExampleMapping.sol\":623:629  _value */\n      dup1\n        /* \"contracts/ExampleMapping.sol\":587:606  uintUintBoolMapping */\n      0x02\n        /* \"contracts/ExampleMapping.sol\":587:613  uintUintBoolMapping[_key1] */\n      0x00\n        /* \"contracts/ExampleMapping.sol\":607:612  _key1 */\n      dup6\n        /* \"contracts/ExampleMapping.sol\":587:613  uintUintBoolMapping[_key1] */\n      dup2\n      mstore\n      0x20\n      add\n      swap1\n      dup2\n      mstore\n      0x20\n      add\n      0x00\n      keccak256\n        /* \"contracts/ExampleMapping.sol\":587:620  uintUintBoolMapping[_key1][_key2] */\n      0x00\n        /* \"contracts/ExampleMapping.sol\":614:619  _key2 */\n      dup5\n        /* \"contracts/ExampleMapping.sol\":587:620  uintUintBoolMapping[_key1][_key2] */\n      dup2\n      mstore\n      0x20\n      add\n      swap1\n      dup2\n      mstore\n      0x20\n      add\n      0x00\n      keccak256\n      0x00\n        /* \"contracts/ExampleMapping.sol\":587:629  uintUintBoolMapping[_key1][_key2] = _value */\n      0x0100\n      exp\n      dup2\n      sload\n      dup2\n      0xff\n      mul\n      not\n      and\n      swap1\n      dup4\n      iszero\n      iszero\n      mul\n      or\n      swap1\n      sstore\n      pop\n        /* \"contracts/ExampleMapping.sol\":500:637  function setUintUintBoolMapping(uint _key1, uint _key2, bool _value) public {\r... */\n      pop\n      pop\n      pop\n      jump\t// out\n        /* \"contracts/ExampleMapping.sol\":426:491  mapping(uint => mapping(uint => bool)) public uintUintBoolMapping */\n    tag_32:\n      mstore(0x20, 0x02)\n      dup2\n      0x00\n      mstore\n      mstore(0x20, keccak256(0x00, 0x40))\n      dup1\n      0x00\n      mstore\n      keccak256(0x00, 0x40)\n      0x00\n      swap2\n      pop\n      swap2\n      pop\n      swap1\n      sload\n      swap1\n      0x0100\n      exp\n      swap1\n      div\n      0xff\n      and\n      dup2\n      jump\t// out\n        /* \"#utility.yul\":7:146   */\n    tag_38:\n        /* \"#utility.yul\":53:58   */\n      0x00\n        /* \"#utility.yul\":91:97   */\n      dup2\n        /* \"#utility.yul\":78:98   */\n      calldataload\n        /* \"#utility.yul\":69:98   */\n      swap1\n      pop\n        /* \"#utility.yul\":107:140   */\n      tag_40\n        /* \"#utility.yul\":134:139   */\n      dup2\n        /* \"#utility.yul\":107:140   */\n      tag_41\n      jump\t// in\n    tag_40:\n        /* \"#utility.yul\":7:146   */\n      swap3\n      swap2\n      pop\n      pop\n      jump\t// out\n        /* \"#utility.yul\":152:285   */\n    tag_42:\n        /* \"#utility.yul\":195:200   */\n      0x00\n        /* \"#utility.yul\":233:239   */\n      dup2\n        /* \"#utility.yul\":220:240   */\n      calldataload\n        /* \"#utility.yul\":211:240   */\n      swap1\n      pop\n        /* \"#utility.yul\":249:279   */\n      tag_44\n        /* \"#utility.yul\":273:278   */\n      dup2\n        /* \"#utility.yul\":249:279   */\n      tag_45\n      jump\t// in\n    tag_44:\n        /* \"#utility.yul\":152:285   */\n      swap3\n      swap2\n      pop\n      pop\n      jump\t// out\n        /* \"#utility.yul\":291:430   */\n    tag_46:\n        /* \"#utility.yul\":337:342   */\n      0x00\n        /* \"#utility.yul\":375:381   */\n      dup2\n        /* \"#utility.yul\":362:382   */\n      calldataload\n        /* \"#utility.yul\":353:382   */\n      swap1\n      pop\n        /* \"#utility.yul\":391:424   */\n      tag_48\n        /* \"#utility.yul\":418:423   */\n      dup2\n        /* \"#utility.yul\":391:424   */\n      tag_49\n      jump\t// in\n    tag_48:\n        /* \"#utility.yul\":291:430   */\n      swap3\n      swap2\n      pop\n      pop\n      jump\t// out\n        /* \"#utility.yul\":436:765   */\n    tag_22:\n        /* \"#utility.yul\":495:501   */\n      0x00\n        /* \"#utility.yul\":544:546   */\n      0x20\n        /* \"#utility.yul\":532:541   */\n      dup3\n        /* \"#utility.yul\":523:530   */\n      dup5\n        /* \"#utility.yul\":519:542   */\n      sub\n        /* \"#utility.yul\":515:547   */\n      slt\n        /* \"#utility.yul\":512:631   */\n      iszero\n      tag_51\n      jumpi\n        /* \"#utility.yul\":550:629   */\n      tag_52\n      tag_53\n      jump\t// in\n    tag_52:\n        /* \"#utility.yul\":512:631   */\n    tag_51:\n        /* \"#utility.yul\":670:671   */\n      0x00\n        /* \"#utility.yul\":695:748   */\n      tag_54\n        /* \"#utility.yul\":740:747   */\n      dup5\n        /* \"#utility.yul\":731:737   */\n      dup3\n        /* \"#utility.yul\":720:729   */\n      dup6\n        /* \"#utility.yul\":716:738   */\n      add\n        /* \"#utility.yul\":695:748   */\n      tag_38\n      jump\t// in\n    tag_54:\n        /* \"#utility.yul\":685:748   */\n      swap2\n      pop\n        /* \"#utility.yul\":641:758   */\n      pop\n        /* \"#utility.yul\":436:765   */\n      swap3\n      swap2\n      pop\n      pop\n      jump\t// out\n        /* \"#utility.yul\":771:1100   */\n    tag_11:\n        /* \"#utility.yul\":830:836   */\n      0x00\n        /* \"#utility.yul\":879:881   */\n      0x20\n        /* \"#utility.yul\":867:876   */\n      dup3\n        /* \"#utility.yul\":858:865   */\n      dup5\n        /* \"#utility.yul\":854:877   */\n      sub\n        /* \"#utility.yul\":850:882   */\n      slt\n        /* \"#utility.yul\":847:966   */\n      iszero\n      tag_56\n      jumpi\n        /* \"#utility.yul\":885:964   */\n      tag_57\n      tag_53\n      jump\t// in\n    tag_57:\n        /* \"#utility.yul\":847:966   */\n    tag_56:\n        /* \"#utility.yul\":1005:1006   */\n      0x00\n        /* \"#utility.yul\":1030:1083   */\n      tag_58\n        /* \"#utility.yul\":1075:1082   */\n      dup5\n        /* \"#utility.yul\":1066:1072   */\n      dup3\n        /* \"#utility.yul\":1055:1064   */\n      dup6\n        /* \"#utility.yul\":1051:1073   */\n      add\n        /* \"#utility.yul\":1030:1083   */\n      tag_46\n      jump\t// in\n    tag_58:\n        /* \"#utility.yul\":1020:1083   */\n      swap2\n      pop\n        /* \"#utility.yul\":976:1093   */\n      pop\n        /* \"#utility.yul\":771:1100   */\n      swap3\n      swap2\n      pop\n      pop\n      jump\t// out\n        /* \"#utility.yul\":1106:1580   */\n    tag_31:\n        /* \"#utility.yul\":1174:1180   */\n      0x00\n        /* \"#utility.yul\":1182:1188   */\n      dup1\n        /* \"#utility.yul\":1231:1233   */\n      0x40\n        /* \"#utility.yul\":1219:1228   */\n      dup4\n        /* \"#utility.yul\":1210:1217   */\n      dup6\n        /* \"#utility.yul\":1206:1229   */\n      sub\n        /* \"#utility.yul\":1202:1234   */\n      slt\n        /* \"#utility.yul\":1199:1318   */\n      iszero\n      tag_60\n      jumpi\n        /* \"#utility.yul\":1237:1316   */\n      tag_61\n      tag_53\n      jump\t// in\n    tag_61:\n        /* \"#utility.yul\":1199:1318   */\n    tag_60:\n        /* \"#utility.yul\":1357:1358   */\n      0x00\n        /* \"#utility.yul\":1382:1435   */\n      tag_62\n        /* \"#utility.yul\":1427:1434   */\n      dup6\n        /* \"#utility.yul\":1418:1424   */\n      dup3\n        /* \"#utility.yul\":1407:1416   */\n      dup7\n        /* \"#utility.yul\":1403:1425   */\n      add\n        /* \"#utility.yul\":1382:1435   */\n      tag_46\n      jump\t// in\n    tag_62:\n        /* \"#utility.yul\":1372:1435   */\n      swap3\n      pop\n        /* \"#utility.yul\":1328:1445   */\n      pop\n        /* \"#utility.yul\":1484:1486   */\n      0x20\n        /* \"#utility.yul\":1510:1563   */\n      tag_63\n        /* \"#utility.yul\":1555:1562   */\n      dup6\n        /* \"#utility.yul\":1546:1552   */\n      dup3\n        /* \"#utility.yul\":1535:1544   */\n      dup7\n        /* \"#utility.yul\":1531:1553   */\n      add\n        /* \"#utility.yul\":1510:1563   */\n      tag_46\n      jump\t// in\n    tag_63:\n        /* \"#utility.yul\":1500:1563   */\n      swap2\n      pop\n        /* \"#utility.yul\":1455:1573   */\n      pop\n        /* \"#utility.yul\":1106:1580   */\n      swap3\n      pop\n      swap3\n      swap1\n      pop\n      jump\t// out\n        /* \"#utility.yul\":1586:2199   */\n    tag_27:\n        /* \"#utility.yul\":1660:1666   */\n      0x00\n        /* \"#utility.yul\":1668:1674   */\n      dup1\n        /* \"#utility.yul\":1676:1682   */\n      0x00\n        /* \"#utility.yul\":1725:1727   */\n      0x60\n        /* \"#utility.yul\":1713:1722   */\n      dup5\n        /* \"#utility.yul\":1704:1711   */\n      dup7\n        /* \"#utility.yul\":1700:1723   */\n      sub\n        /* \"#utility.yul\":1696:1728   */\n      slt\n        /* \"#utility.yul\":1693:1812   */\n      iszero\n      tag_65\n      jumpi\n        /* \"#utility.yul\":1731:1810   */\n      tag_66\n      tag_53\n      jump\t// in\n    tag_66:\n        /* \"#utility.yul\":1693:1812   */\n    tag_65:\n        /* \"#utility.yul\":1851:1852   */\n      0x00\n        /* \"#utility.yul\":1876:1929   */\n      tag_67\n        /* \"#utility.yul\":1921:1928   */\n      dup7\n        /* \"#utility.yul\":1912:1918   */\n      dup3\n        /* \"#utility.yul\":1901:1910   */\n      dup8\n        /* \"#utility.yul\":1897:1919   */\n      add\n        /* \"#utility.yul\":1876:1929   */\n      tag_46\n      jump\t// in\n    tag_67:\n        /* \"#utility.yul\":1866:1929   */\n      swap4\n      pop\n        /* \"#utility.yul\":1822:1939   */\n      pop\n        /* \"#utility.yul\":1978:1980   */\n      0x20\n        /* \"#utility.yul\":2004:2057   */\n      tag_68\n        /* \"#utility.yul\":2049:2056   */\n      dup7\n        /* \"#utility.yul\":2040:2046   */\n      dup3\n        /* \"#utility.yul\":2029:2038   */\n      dup8\n        /* \"#utility.yul\":2025:2047   */\n      add\n        /* \"#utility.yul\":2004:2057   */\n      tag_46\n      jump\t// in\n    tag_68:\n        /* \"#utility.yul\":1994:2057   */\n      swap3\n      pop\n        /* \"#utility.yul\":1949:2067   */\n      pop\n        /* \"#utility.yul\":2106:2108   */\n      0x40\n        /* \"#utility.yul\":2132:2182   */\n      tag_69\n        /* \"#utility.yul\":2174:2181   */\n      dup7\n        /* \"#utility.yul\":2165:2171   */\n      dup3\n        /* \"#utility.yul\":2154:2163   */\n      dup8\n        /* \"#utility.yul\":2150:2172   */\n      add\n        /* \"#utility.yul\":2132:2182   */\n      tag_42\n      jump\t// in\n    tag_69:\n        /* \"#utility.yul\":2122:2182   */\n      swap2\n      pop\n        /* \"#utility.yul\":2077:2192   */\n      pop\n        /* \"#utility.yul\":1586:2199   */\n      swap3\n      pop\n      swap3\n      pop\n      swap3\n      jump\t// out\n        /* \"#utility.yul\":2205:2314   */\n    tag_70:\n        /* \"#utility.yul\":2286:2307   */\n      tag_72\n        /* \"#utility.yul\":2301:2306   */\n      dup2\n        /* \"#utility.yul\":2286:2307   */\n      tag_73\n      jump\t// in\n    tag_72:\n        /* \"#utility.yul\":2281:2284   */\n      dup3\n        /* \"#utility.yul\":2274:2308   */\n      mstore\n        /* \"#utility.yul\":2205:2314   */\n      pop\n      pop\n      jump\t// out\n        /* \"#utility.yul\":2320:2530   */\n    tag_19:\n        /* \"#utility.yul\":2407:2411   */\n      0x00\n        /* \"#utility.yul\":2445:2447   */\n      0x20\n        /* \"#utility.yul\":2434:2443   */\n      dup3\n        /* \"#utility.yul\":2430:2448   */\n      add\n        /* \"#utility.yul\":2422:2448   */\n      swap1\n      pop\n        /* \"#utility.yul\":2458:2523   */\n      tag_75\n        /* \"#utility.yul\":2520:2521   */\n      0x00\n        /* \"#utility.yul\":2509:2518   */\n      dup4\n        /* \"#utility.yul\":2505:2522   */\n      add\n        /* \"#utility.yul\":2496:2502   */\n      dup5\n        /* \"#utility.yul\":2458:2523   */\n      tag_70\n      jump\t// in\n    tag_75:\n        /* \"#utility.yul\":2320:2530   */\n      swap3\n      swap2\n      pop\n      pop\n      jump\t// out\n        /* \"#utility.yul\":2617:2713   */\n    tag_78:\n        /* \"#utility.yul\":2654:2661   */\n      0x00\n        /* \"#utility.yul\":2683:2707   */\n      tag_80\n        /* \"#utility.yul\":2701:2706   */\n      dup3\n        /* \"#utility.yul\":2683:2707   */\n      tag_81\n      jump\t// in\n    tag_80:\n        /* \"#utility.yul\":2672:2707   */\n      swap1\n      pop\n        /* \"#utility.yul\":2617:2713   */\n      swap2\n      swap1\n      pop\n      jump\t// out\n        /* \"#utility.yul\":2719:2809   */\n    tag_73:\n        /* \"#utility.yul\":2753:2760   */\n      0x00\n        /* \"#utility.yul\":2796:2801   */\n      dup2\n        /* \"#utility.yul\":2789:2802   */\n      iszero\n        /* \"#utility.yul\":2782:2803   */\n      iszero\n        /* \"#utility.yul\":2771:2803   */\n      swap1\n      pop\n        /* \"#utility.yul\":2719:2809   */\n      swap2\n      swap1\n      pop\n      jump\t// out\n        /* \"#utility.yul\":2815:2941   */\n    tag_81:\n        /* \"#utility.yul\":2852:2859   */\n      0x00\n        /* \"#utility.yul\":2892:2934   */\n      0xffffffffffffffffffffffffffffffffffffffff\n        /* \"#utility.yul\":2885:2890   */\n      dup3\n        /* \"#utility.yul\":2881:2935   */\n      and\n        /* \"#utility.yul\":2870:2935   */\n      swap1\n      pop\n        /* \"#utility.yul\":2815:2941   */\n      swap2\n      swap1\n      pop\n      jump\t// out\n        /* \"#utility.yul\":2947:3024   */\n    tag_84:\n        /* \"#utility.yul\":2984:2991   */\n      0x00\n        /* \"#utility.yul\":3013:3018   */\n      dup2\n        /* \"#utility.yul\":3002:3018   */\n      swap1\n      pop\n        /* \"#utility.yul\":2947:3024   */\n      swap2\n      swap1\n      pop\n      jump\t// out\n        /* \"#utility.yul\":3153:3270   */\n    tag_53:\n        /* \"#utility.yul\":3262:3263   */\n      0x00\n        /* \"#utility.yul\":3259:3260   */\n      dup1\n        /* \"#utility.yul\":3252:3264   */\n      revert\n        /* \"#utility.yul\":3276:3398   */\n    tag_41:\n        /* \"#utility.yul\":3349:3373   */\n      tag_90\n        /* \"#utility.yul\":3367:3372   */\n      dup2\n        /* \"#utility.yul\":3349:3373   */\n      tag_78\n      jump\t// in\n    tag_90:\n        /* \"#utility.yul\":3342:3347   */\n      dup2\n        /* \"#utility.yul\":3339:3374   */\n      eq\n        /* \"#utility.yul\":3329:3392   */\n      tag_91\n      jumpi\n        /* \"#utility.yul\":3388:3389   */\n      0x00\n        /* \"#utility.yul\":3385:3386   */\n      dup1\n        /* \"#utility.yul\":3378:3390   */\n      revert\n        /* \"#utility.yul\":3329:3392   */\n    tag_91:\n        /* \"#utility.yul\":3276:3398   */\n      pop\n      jump\t// out\n        /* \"#utility.yul\":3404:3520   */\n    tag_45:\n        /* \"#utility.yul\":3474:3495   */\n      tag_93\n        /* \"#utility.yul\":3489:3494   */\n      dup2\n        /* \"#utility.yul\":3474:3495   */\n      tag_73\n      jump\t// in\n    tag_93:\n        /* \"#utility.yul\":3467:3472   */\n      dup2\n        /* \"#utility.yul\":3464:3496   */\n      eq\n        /* \"#utility.yul\":3454:3514   */\n      tag_94\n      jumpi\n        /* \"#utility.yul\":3510:3511   */\n      0x00\n        /* \"#utility.yul\":3507:3508   */\n      dup1\n        /* \"#utility.yul\":3500:3512   */\n      revert\n        /* \"#utility.yul\":3454:3514   */\n    tag_94:\n        /* \"#utility.yul\":3404:3520   */\n      pop\n      jump\t// out\n        /* \"#utility.yul\":3526:3648   */\n    tag_49:\n        /* \"#utility.yul\":3599:3623   */\n      tag_96\n        /* \"#utility.yul\":3617:3622   */\n      dup2\n        /* \"#utility.yul\":3599:3623   */\n      tag_84\n      jump\t// in\n    tag_96:\n        /* \"#utility.yul\":3592:3597   */\n      dup2\n        /* \"#utility.yul\":3589:3624   */\n      eq\n        /* \"#utility.yul\":3579:3642   */\n      tag_97\n      jumpi\n        /* \"#utility.yul\":3638:3639   */\n      0x00\n        /* \"#utility.yul\":3635:3636   */\n      dup1\n        /* \"#utility.yul\":3628:3640   */\n      revert\n        /* \"#utility.yul\":3579:3642   */\n    tag_97:\n        /* \"#utility.yul\":3526:3648   */\n      pop\n      jump\t// out\n\n    auxdata: 0xa264697066735822122060b8a0ce64b6729e816a075fa23bb7135ab4bb8d0ec5690dfd1a2ed9b819aa4c64736f6c63430008070033\n}\n",
				"bytecode": {
					"linkReferences": {},
					"object": "608060405234801561001057600080fd5b5061048e806100206000396000f3fe608060405234801561001057600080fd5b50600436106100625760003560e01c80635524107714610067578063634899ce146100835780637c6688441461008d578063b92ba3b8146100bd578063bc65030e146100ed578063ef5d568414610109575b600080fd5b610081600480360381019061007c91906102dc565b610139565b005b61008b610167565b005b6100a760048036038101906100a291906102dc565b6101c0565b6040516100b491906103ab565b60405180910390f35b6100d760048036038101906100d291906102af565b6101e0565b6040516100e491906103ab565b60405180910390f35b61010760048036038101906101029190610349565b610200565b005b610123600480360381019061011e9190610309565b610241565b60405161013091906103ab565b60405180910390f35b600160008083815260200190815260200160002060006101000a81548160ff02191690831515021790555050565b60018060003373ffffffffffffffffffffffffffffffffffffffff1673ffffffffffffffffffffffffffffffffffffffff16815260200190815260200160002060006101000a81548160ff021916908315150217905550565b60006020528060005260406000206000915054906101000a900460ff1681565b60016020528060005260406000206000915054906101000a900460ff1681565b8060026000858152602001908152602001600020600084815260200190815260200160002060006101000a81548160ff021916908315150217905550505050565b60026020528160005260406000206020528060005260406000206000915091509054906101000a900460ff1681565b60008135905061027f81610413565b92915050565b6000813590506102948161042a565b92915050565b6000813590506102a981610441565b92915050565b6000602082840312156102c5576102c461040e565b5b60006102d384828501610270565b91505092915050565b6000602082840312156102f2576102f161040e565b5b60006103008482850161029a565b91505092915050565b600080604083850312156103205761031f61040e565b5b600061032e8582860161029a565b925050602061033f8582860161029a565b9150509250929050565b6000806000606084860312156103625761036161040e565b5b60006103708682870161029a565b93505060206103818682870161029a565b925050604061039286828701610285565b9150509250925092565b6103a5816103d8565b82525050565b60006020820190506103c0600083018461039c565b92915050565b60006103d1826103e4565b9050919050565b60008115159050919050565b600073ffffffffffffffffffffffffffffffffffffffff82169050919050565b6000819050919050565b600080fd5b61041c816103c6565b811461042757600080fd5b50565b610433816103d8565b811461043e57600080fd5b50565b61044a81610404565b811461045557600080fd5b5056fea264697066735822122060b8a0ce64b6729e816a075fa23bb7135ab4bb8d0ec5690dfd1a2ed9b819aa4c64736f6c63430008070033",
					"opcodes": "PUSH1 0x80 PUSH1 0x40 MSTORE CALLVALUE DUP1 ISZERO PUSH2 0x10 JUMPI PUSH1 0x0 DUP1 REVERT JUMPDEST POP PUSH2 0x48E DUP1 PUSH2 0x20 PUSH1 0x0 CODECOPY PUSH1 0x0 RETURN INVALID PUSH1 0x80 PUSH1 0x40 MSTORE CALLVALUE DUP1 ISZERO PUSH2 0x10 JUMPI PUSH1 0x0 DUP1 REVERT JUMPDEST POP PUSH1 0x4 CALLDATASIZE LT PUSH2 0x62 JUMPI PUSH1 0x0 CALLDATALOAD PUSH1 0xE0 SHR DUP1 PUSH4 0x55241077 EQ PUSH2 0x67 JUMPI DUP1 PUSH4 0x634899CE EQ PUSH2 0x83 JUMPI DUP1 PUSH4 0x7C668844 EQ PUSH2 0x8D JUMPI DUP1 PUSH4 0xB92BA3B8 EQ PUSH2 0xBD JUMPI DUP1 PUSH4 0xBC65030E EQ PUSH2 0xED JUMPI DUP1 PUSH4 0xEF5D5684 EQ PUSH2 0x109 JUMPI JUMPDEST PUSH1 0x0 DUP1 REVERT JUMPDEST PUSH2 0x81 PUSH1 0x4 DUP1 CALLDATASIZE SUB DUP2 ADD SWAP1 PUSH2 0x7C SWAP2 SWAP1 PUSH2 0x2DC JUMP JUMPDEST PUSH2 0x139 JUMP JUMPDEST STOP JUMPDEST PUSH2 0x8B PUSH2 0x167 JUMP JUMPDEST STOP JUMPDEST PUSH2 0xA7 PUSH1 0x4 DUP1 CALLDATASIZE SUB DUP2 ADD SWAP1 PUSH2 0xA2 SWAP2 SWAP1 PUSH2 0x2DC JUMP JUMPDEST PUSH2 0x1C0 JUMP JUMPDEST PUSH1 0x40 MLOAD PUSH2 0xB4 SWAP2 SWAP1 PUSH2 0x3AB JUMP JUMPDEST PUSH1 0x40 MLOAD DUP1 SWAP2 SUB SWAP1 RETURN JUMPDEST PUSH2 0xD7 PUSH1 0x4 DUP1 CALLDATASIZE SUB DUP2 ADD SWAP1 PUSH2 0xD2 SWAP2 SWAP1 PUSH2 0x2AF JUMP JUMPDEST PUSH2 0x1E0 JUMP JUMPDEST PUSH1 0x40 MLOAD PUSH2 0xE4 SWAP2 SWAP1 PUSH2 0x3AB JUMP JUMPDEST PUSH1 0x40 MLOAD DUP1 SWAP2 SUB SWAP1 RETURN JUMPDEST PUSH2 0x107 PUSH1 0x4 DUP1 CALLDATASIZE SUB DUP2 ADD SWAP1 PUSH2 0x102 SWAP2 SWAP1 PUSH2 0x349 JUMP JUMPDEST PUSH2 0x200 JUMP JUMPDEST STOP JUMPDEST PUSH2 0x123 PUSH1 0x4 DUP1 CALLDATASIZE SUB DUP2 ADD SWAP1 PUSH2 0x11E SWAP2 SWAP1 PUSH2 0x309 JUMP JUMPDEST PUSH2 0x241 JUMP JUMPDEST PUSH1 0x40 MLOAD PUSH2 0x130 SWAP2 SWAP1 PUSH2 0x3AB JUMP JUMPDEST PUSH1 0x40 MLOAD DUP1 SWAP2 SUB SWAP1 RETURN JUMPDEST PUSH1 0x1 PUSH1 0x0 DUP1 DUP4 DUP2 MSTORE PUSH1 0x20 ADD SWAP1 DUP2 MSTORE PUSH1 0x20 ADD PUSH1 0x0 KECCAK256 PUSH1 0x0 PUSH2 0x100 EXP DUP2 SLOAD DUP2 PUSH1 0xFF MUL NOT AND SWAP1 DUP4 ISZERO ISZERO MUL OR SWAP1 SSTORE POP POP JUMP JUMPDEST PUSH1 0x1 DUP1 PUSH1 0x0 CALLER PUSH20 0xFFFFFFFFFFFFFFFFFFFFFFFFFFFFFFFFFFFFFFFF AND PUSH20 0xFFFFFFFFFFFFFFFFFFFFFFFFFFFFFFFFFFFFFFFF AND DUP2 MSTORE PUSH1 0x20 ADD SWAP1 DUP2 MSTORE PUSH1 0x20 ADD PUSH1 0x0 KECCAK256 PUSH1 0x0 PUSH2 0x100 EXP DUP2 SLOAD DUP2 PUSH1 0xFF MUL NOT AND SWAP1 DUP4 ISZERO ISZERO MUL OR SWAP1 SSTORE POP JUMP JUMPDEST PUSH1 0x0 PUSH1 0x20 MSTORE DUP1 PUSH1 0x0 MSTORE PUSH1 0x40 PUSH1 0x0 KECCAK256 PUSH1 0x0 SWAP2 POP SLOAD SWAP1 PUSH2 0x100 EXP SWAP1 DIV PUSH1 0xFF AND DUP2 JUMP JUMPDEST PUSH1 0x1 PUSH1 0x20 MSTORE DUP1 PUSH1 0x0 MSTORE PUSH1 0x40 PUSH1 0x0 KECCAK256 PUSH1 0x0 SWAP2 POP SLOAD SWAP1 PUSH2 0x100 EXP SWAP1 DIV PUSH1 0xFF AND DUP2 JUMP JUMPDEST DUP1 PUSH1 0x2 PUSH1 0x0 DUP6 DUP2 MSTORE PUSH1 0x20 ADD SWAP1 DUP2 MSTORE PUSH1 0x20 ADD PUSH1 0x0 KECCAK256 PUSH1 0x0 DUP5 DUP2 MSTORE PUSH1 0x20 ADD SWAP1 DUP2 MSTORE PUSH1 0x20 ADD PUSH1 0x0 KECCAK256 PUSH1 0x0 PUSH2 0x100 EXP DUP2 SLOAD DUP2 PUSH1 0xFF MUL NOT AND SWAP1 DUP4 ISZERO ISZERO MUL OR SWAP1 SSTORE POP POP POP POP JUMP JUMPDEST PUSH1 0x2 PUSH1 0x20 MSTORE DUP2 PUSH1 0x0 MSTORE PUSH1 0x40 PUSH1 0x0 KECCAK256 PUSH1 0x20 MSTORE DUP1 PUSH1 0x0 MSTORE PUSH1 0x40 PUSH1 0x0 KECCAK256 PUSH1 0x0 SWAP2 POP SWAP2 POP SWAP1 SLOAD SWAP1 PUSH2 0x100 EXP SWAP1 DIV PUSH1 0xFF AND DUP2 JUMP JUMPDEST PUSH1 0x0 DUP2 CALLDATALOAD SWAP1 POP PUSH2 0x27F DUP2 PUSH2 0x413 JUMP JUMPDEST SWAP3 SWAP2 POP POP JUMP JUMPDEST PUSH1 0x0 DUP2 CALLDATALOAD SWAP1 POP PUSH2 0x294 DUP2 PUSH2 0x42A JUMP JUMPDEST SWAP3 SWAP2 POP POP JUMP JUMPDEST PUSH1 0x0 DUP2 CALLDATALOAD SWAP1 POP PUSH2 0x2A9 DUP2 PUSH2 0x441 JUMP JUMPDEST SWAP3 SWAP2 POP POP JUMP JUMPDEST PUSH1 0x0 PUSH1 0x20 DUP3 DUP5 SUB SLT ISZERO PUSH2 0x2C5 JUMPI PUSH2 0x2C4 PUSH2 0x40E JUMP JUMPDEST JUMPDEST PUSH1 0x0 PUSH2 0x2D3 DUP5 DUP3 DUP6 ADD PUSH2 0x270 JUMP JUMPDEST SWAP2 POP POP SWAP3 SWAP2 POP POP JUMP JUMPDEST PUSH1 0x0 PUSH1 0x20 DUP3 DUP5 SUB SLT ISZERO PUSH2 0x2F2 JUMPI PUSH2 0x2F1 PUSH2 0x40E JUMP JUMPDEST JUMPDEST PUSH1 0x0 PUSH2 0x300 DUP5 DUP3 DUP6 ADD PUSH2 0x29A JUMP JUMPDEST SWAP2 POP POP SWAP3 SWAP2 POP POP JUMP JUMPDEST PUSH1 0x0 DUP1 PUSH1 0x40 DUP4 DUP6 SUB SLT ISZERO PUSH2 0x320 JUMPI PUSH2 0x31F PUSH2 0x40E JUMP JUMPDEST JUMPDEST PUSH1 0x0 PUSH2 0x32E DUP6 DUP3 DUP7 ADD PUSH2 0x29A JUMP JUMPDEST SWAP3 POP POP PUSH1 0x20 PUSH2 0x33F DUP6 DUP3 DUP7 ADD PUSH2 0x29A JUMP JUMPDEST SWAP2 POP POP SWAP3 POP SWAP3 SWAP1 POP JUMP JUMPDEST PUSH1 0x0 DUP1 PUSH1 0x0 PUSH1 0x60 DUP5 DUP7 SUB SLT ISZERO PUSH2 0x362 JUMPI PUSH2 0x361 PUSH2 0x40E JUMP JUMPDEST JUMPDEST PUSH1 0x0 PUSH2 0x370 DUP7 DUP3 DUP8 ADD PUSH2 0x29A JUMP JUMPDEST SWAP4 POP POP PUSH1 0x20 PUSH2 0x381 DUP7 DUP3 DUP8 ADD PUSH2 0x29A JUMP JUMPDEST SWAP3 POP POP PUSH1 0x40 PUSH2 0x392 DUP7 DUP3 DUP8 ADD PUSH2 0x285 JUMP JUMPDEST SWAP2 POP POP SWAP3 POP SWAP3 POP SWAP3 JUMP JUMPDEST PUSH2 0x3A5 DUP2 PUSH2 0x3D8 JUMP JUMPDEST DUP3 MSTORE POP POP JUMP JUMPDEST PUSH1 0x0 PUSH1 0x20 DUP3 ADD SWAP1 POP PUSH2 0x3C0 PUSH1 0x0 DUP4 ADD DUP5 PUSH2 0x39C JUMP JUMPDEST SWAP3 SWAP2 POP POP JUMP JUMPDEST PUSH1 0x0 PUSH2 0x3D1 DUP3 PUSH2 0x3E4 JUMP JUMPDEST SWAP1 POP SWAP2 SWAP1 POP JUMP JUMPDEST PUSH1 0x0 DUP2 ISZERO ISZERO SWAP1 POP SWAP2 SWAP1 POP JUMP JUMPDEST PUSH1 0x0 PUSH20 0xFFFFFFFFFFFFFFFFFFFFFFFFFFFFFFFFFFFFFFFF DUP3 AND SWAP1 POP SWAP2 SWAP1 POP JUMP JUMPDEST PUSH1 0x0 DUP2 SWAP1 POP SWAP2 SWAP1 POP JUMP JUMPDEST PUSH1 0x0 DUP1 REVERT JUMPDEST PUSH2 0x41C DUP2 PUSH2 0x3C6 JUMP JUMPDEST DUP2 EQ PUSH2 0x427 JUMPI PUSH1 0x0 DUP1 REVERT JUMPDEST POP JUMP JUMPDEST PUSH2 0x433 DUP2 PUSH2 0x3D8 JUMP JUMPDEST DUP2 EQ PUSH2 0x43E JUMPI PUSH1 0x0 DUP1 REVERT JUMPDEST POP JUMP JUMPDEST PUSH2 0x44A DUP2 PUSH2 0x404 JUMP JUMPDEST DUP2 EQ PUSH2 0x455 JUMPI PUSH1 0x0 DUP1 REVERT JUMPDEST POP JUMP INVALID LOG2 PUSH5 0x6970667358 0x22 SLT KECCAK256 PUSH1 0xB8 LOG0 0xCE PUSH5 0xB6729E816A SMOD 0x5F LOG2 EXTCODESIZE 0xB7 SGT GAS 0xB4 0xBB DUP14 0xE 0xC5 PUSH10 0xDFD1A2ED9B819AA4C64 PUSH20 0x6F6C634300080700330000000000000000000000 "
				},
				"gasEstimates": {
					"creation": {
						"codeDepositCost": "233200",
						"executionCost": "275",
						"totalCost": "233475"
					},
					"external": {
						"myAddressMapping(address)": "2889",
						"myMapping(uint256)": "2818",
						"setMyAddressToTrue()": "24500",
						"setUintUintBoolMapping(uint256,uint256,bool)": "infinite",
						"setValue(uint256)": "24729",
						"uintUintBoolMapping(uint256,uint256)": "infinite"
					}
				},
				"methodIdentifiers": {
					"myAddressMapping(address)": "b92ba3b8",
					"myMapping(uint256)": "7c668844",
					"setMyAddressToTrue()": "634899ce",
					"setUintUintBoolMapping(uint256,uint256,bool)": "bc65030e",
					"setValue(uint256)": "55241077",
					"uintUintBoolMapping(uint256,uint256)": "ef5d5684"
				}
			},
			"storageLayout": {
				"storage": [
					{
						"astId": 5,
						"contract": "contracts/ExampleMapping.sol:ExampleMapping",
						"label": "myMapping",
						"offset": 0,
						"slot": "0",
						"type": "t_mapping(t_uint256,t_bool)"
					},
					{
						"astId": 9,
						"contract": "contracts/ExampleMapping.sol:ExampleMapping",
						"label": "myAddressMapping",
						"offset": 0,
						"slot": "1",
						"type": "t_mapping(t_address,t_bool)"
					},
					{
						"astId": 38,
						"contract": "contracts/ExampleMapping.sol:ExampleMapping",
						"label": "uintUintBoolMapping",
						"offset": 0,
						"slot": "2",
						"type": "t_mapping(t_uint256,t_mapping(t_uint256,t_bool))"
					}
				],
				"types": {
					"t_address": {
						"encoding": "inplace",
						"label": "address",
						"numberOfBytes": "20"
					},
					"t_bool": {
						"encoding": "inplace",
						"label": "bool",
						"numberOfBytes": "1"
					},
					"t_mapping(t_address,t_bool)": {
						"encoding": "mapping",
						"key": "t_address",
						"label": "mapping(address => bool)",
						"numberOfBytes": "32",
						"value": "t_bool"
					},
					"t_mapping(t_uint256,t_bool)": {
						"encoding": "mapping",
						"key": "t_uint256",
						"label": "mapping(uint256 => bool)",
						"numberOfBytes": "32",
						"value": "t_bool"
					},
					"t_mapping(t_uint256,t_mapping(t_uint256,t_bool))": {
						"encoding": "mapping",
						"key": "t_uint256",
						"label": "mapping(uint256 => mapping(uint256 => bool))",
						"numberOfBytes": "32",
						"value": "t_mapping(t_uint256,t_bool)"
					},
					"t_uint256": {
						"encoding": "inplace",
						"label": "uint256",
						"numberOfBytes": "32"
					}
				}
			},
			"userdoc": {
				"kind": "user",
				"methods": {},
				"version": 1
			}
		}
	}
}