{
	"contracts/ExampleExceptionRequire.sol": {
		"ExampleExceptionRequire": {
			"abi": [
				{
					"inputs": [
						{
							"internalType": "address",
							"name": "",
							"type": "address"
						}
					],
					"name": "balanceReceived",
					"outputs": [
						{
							"internalType": "uint8",
							"name": "",
							"type": "uint8"
						}
					],
					"stateMutability": "view",
					"type": "function"
				},
				{
					"inputs": [],
					"name": "deposit",
					"outputs": [],
					"stateMutability": "payable",
					"type": "function"
				},
				{
					"inputs": [
						{
							"internalType": "address payable",
							"name": "_to",
							"type": "address"
						},
						{
							"internalType": "uint8",
							"name": "_amount",
							"type": "uint8"
						}
					],
					"name": "withdrawal",
					"outputs": [],
					"stateMutability": "nonpayable",
					"type": "function"
				}
			],
			"devdoc": {
				"kind": "dev",
				"methods": {},
				"version": 1
			},
			"evm": {
				"assembly": "    /* \"contracts/ExampleExceptionRequire.sol\":74:756  contract ExampleExceptionRequire {\r... */\n  mstore(0x40, 0x80)\n  callvalue\n  dup1\n  iszero\n  tag_1\n  jumpi\n  0x00\n  dup1\n  revert\ntag_1:\n  pop\n  dataSize(sub_0)\n  dup1\n  dataOffset(sub_0)\n  0x00\n  codecopy\n  0x00\n  return\nstop\n\nsub_0: assembly {\n        /* \"contracts/ExampleExceptionRequire.sol\":74:756  contract ExampleExceptionRequire {\r... */\n      mstore(0x40, 0x80)\n      jumpi(tag_1, lt(calldatasize, 0x04))\n      shr(0xe0, calldataload(0x00))\n      dup1\n      0xd0e30db0\n      eq\n      tag_2\n      jumpi\n      dup1\n      0xd18a42e1\n      eq\n      tag_3\n      jumpi\n      dup1\n      0xd78e2e69\n      eq\n      tag_4\n      jumpi\n    tag_1:\n      0x00\n      dup1\n      revert\n        /* \"contracts/ExampleExceptionRequire.sol\":173:398  function deposit() public payable {\r... */\n    tag_2:\n      tag_5\n      tag_6\n      jump\t// in\n    tag_5:\n      stop\n        /* \"contracts/ExampleExceptionRequire.sol\":116:164  mapping(address => uint8) public balanceReceived */\n    tag_3:\n      callvalue\n      dup1\n      iszero\n      tag_7\n      jumpi\n      0x00\n      dup1\n      revert\n    tag_7:\n      pop\n      tag_8\n      0x04\n      dup1\n      calldatasize\n      sub\n      dup2\n      add\n      swap1\n      tag_9\n      swap2\n      swap1\n      tag_10\n      jump\t// in\n    tag_9:\n      tag_11\n      jump\t// in\n    tag_8:\n      mload(0x40)\n      tag_12\n      swap2\n      swap1\n      tag_13\n      jump\t// in\n    tag_12:\n      mload(0x40)\n      dup1\n      swap2\n      sub\n      swap1\n      return\n        /* \"contracts/ExampleExceptionRequire.sol\":406:753  function withdrawal(address payable _to, uint8 _amount) public {\r... */\n    tag_4:\n      callvalue\n      dup1\n      iszero\n      tag_14\n      jumpi\n      0x00\n      dup1\n      revert\n    tag_14:\n      pop\n      tag_15\n      0x04\n      dup1\n      calldatasize\n      sub\n      dup2\n      add\n      swap1\n      tag_16\n      swap2\n      swap1\n      tag_17\n      jump\t// in\n    tag_16:\n      tag_18\n      jump\t// in\n    tag_15:\n      stop\n        /* \"contracts/ExampleExceptionRequire.sol\":173:398  function deposit() public payable {\r... */\n    tag_6:\n        /* \"contracts/ExampleExceptionRequire.sol\":321:330  msg.value */\n      callvalue\n        /* \"contracts/ExampleExceptionRequire.sol\":302:331  msg.value == uint8(msg.value) */\n      0xff\n      and\n        /* \"contracts/ExampleExceptionRequire.sol\":302:311  msg.value */\n      callvalue\n        /* \"contracts/ExampleExceptionRequire.sol\":302:331  msg.value == uint8(msg.value) */\n      eq\n        /* \"contracts/ExampleExceptionRequire.sol\":295:332  assert(msg.value == uint8(msg.value)) */\n      tag_20\n      jumpi\n      tag_21\n      tag_22\n      jump\t// in\n    tag_21:\n    tag_20:\n        /* \"contracts/ExampleExceptionRequire.sol\":380:389  msg.value */\n      callvalue\n        /* \"contracts/ExampleExceptionRequire.sol\":343:358  balanceReceived */\n      0x00\n        /* \"contracts/ExampleExceptionRequire.sol\":343:370  balanceReceived[msg.sender] */\n      dup1\n        /* \"contracts/ExampleExceptionRequire.sol\":359:369  msg.sender */\n      caller\n        /* \"contracts/ExampleExceptionRequire.sol\":343:370  balanceReceived[msg.sender] */\n      0xffffffffffffffffffffffffffffffffffffffff\n      and\n      0xffffffffffffffffffffffffffffffffffffffff\n      and\n      dup2\n      mstore\n      0x20\n      add\n      swap1\n      dup2\n      mstore\n      0x20\n      add\n      0x00\n      keccak256\n      0x00\n        /* \"contracts/ExampleExceptionRequire.sol\":343:390  balanceReceived[msg.sender] += uint8(msg.value) */\n      dup3\n      dup3\n      dup3\n      swap1\n      sload\n      swap1\n      0x0100\n      exp\n      swap1\n      div\n      0xff\n      and\n      tag_23\n      swap2\n      swap1\n      tag_24\n      jump\t// in\n    tag_23:\n      swap3\n      pop\n      0x0100\n      exp\n      dup2\n      sload\n      dup2\n      0xff\n      mul\n      not\n      and\n      swap1\n      dup4\n      0xff\n      and\n      mul\n      or\n      swap1\n      sstore\n      pop\n        /* \"contracts/ExampleExceptionRequire.sol\":173:398  function deposit() public payable {\r... */\n      jump\t// out\n        /* \"contracts/ExampleExceptionRequire.sol\":116:164  mapping(address => uint8) public balanceReceived */\n    tag_11:\n      mstore(0x20, 0x00)\n      dup1\n      0x00\n      mstore\n      keccak256(0x00, 0x40)\n      0x00\n      swap2\n      pop\n      sload\n      swap1\n      0x0100\n      exp\n      swap1\n      div\n      0xff\n      and\n      dup2\n      jump\t// out\n        /* \"contracts/ExampleExceptionRequire.sol\":406:753  function withdrawal(address payable _to, uint8 _amount) public {\r... */\n    tag_18:\n        /* \"contracts/ExampleExceptionRequire.sol\":595:610  balanceReceived */\n      0x00\n        /* \"contracts/ExampleExceptionRequire.sol\":595:622  balanceReceived[msg.sender] */\n      dup1\n        /* \"contracts/ExampleExceptionRequire.sol\":611:621  msg.sender */\n      caller\n        /* \"contracts/ExampleExceptionRequire.sol\":595:622  balanceReceived[msg.sender] */\n      0xffffffffffffffffffffffffffffffffffffffff\n      and\n      0xffffffffffffffffffffffffffffffffffffffff\n      and\n      dup2\n      mstore\n      0x20\n      add\n      swap1\n      dup2\n      mstore\n      0x20\n      add\n      0x00\n      keccak256\n      0x00\n      swap1\n      sload\n      swap1\n      0x0100\n      exp\n      swap1\n      div\n      0xff\n      and\n        /* \"contracts/ExampleExceptionRequire.sol\":584:622  _amount <= balanceReceived[msg.sender] */\n      0xff\n      and\n        /* \"contracts/ExampleExceptionRequire.sol\":584:591  _amount */\n      dup2\n        /* \"contracts/ExampleExceptionRequire.sol\":584:622  _amount <= balanceReceived[msg.sender] */\n      0xff\n      and\n      gt\n      iszero\n        /* \"contracts/ExampleExceptionRequire.sol\":576:654  require(_amount <= balanceReceived[msg.sender], \"Not enough funds, aborting!\") */\n      tag_26\n      jumpi\n      mload(0x40)\n      0x08c379a000000000000000000000000000000000000000000000000000000000\n      dup2\n      mstore\n      0x04\n      add\n      tag_27\n      swap1\n      tag_28\n      jump\t// in\n    tag_27:\n      mload(0x40)\n      dup1\n      swap2\n      sub\n      swap1\n      revert\n    tag_26:\n        /* \"contracts/ExampleExceptionRequire.sol\":696:703  _amount */\n      dup1\n        /* \"contracts/ExampleExceptionRequire.sol\":665:680  balanceReceived */\n      0x00\n        /* \"contracts/ExampleExceptionRequire.sol\":665:692  balanceReceived[msg.sender] */\n      dup1\n        /* \"contracts/ExampleExceptionRequire.sol\":681:691  msg.sender */\n      caller\n        /* \"contracts/ExampleExceptionRequire.sol\":665:692  balanceReceived[msg.sender] */\n      0xffffffffffffffffffffffffffffffffffffffff\n      and\n      0xffffffffffffffffffffffffffffffffffffffff\n      and\n      dup2\n      mstore\n      0x20\n      add\n      swap1\n      dup2\n      mstore\n      0x20\n      add\n      0x00\n      keccak256\n      0x00\n        /* \"contracts/ExampleExceptionRequire.sol\":665:703  balanceReceived[msg.sender] -= _amount */\n      dup3\n      dup3\n      dup3\n      swap1\n      sload\n      swap1\n      0x0100\n      exp\n      swap1\n      div\n      0xff\n      and\n      tag_29\n      swap2\n      swap1\n      tag_30\n      jump\t// in\n    tag_29:\n      swap3\n      pop\n      0x0100\n      exp\n      dup2\n      sload\n      dup2\n      0xff\n      mul\n      not\n      and\n      swap1\n      dup4\n      0xff\n      and\n      mul\n      or\n      swap1\n      sstore\n      pop\n        /* \"contracts/ExampleExceptionRequire.sol\":714:717  _to */\n      dup2\n        /* \"contracts/ExampleExceptionRequire.sol\":714:726  _to.transfer */\n      0xffffffffffffffffffffffffffffffffffffffff\n      and\n        /* \"contracts/ExampleExceptionRequire.sol\":714:735  _to.transfer(_amount) */\n      0x08fc\n        /* \"contracts/ExampleExceptionRequire.sol\":727:734  _amount */\n      dup3\n        /* \"contracts/ExampleExceptionRequire.sol\":714:735  _to.transfer(_amount) */\n      0xff\n      and\n      swap1\n      dup2\n      iszero\n      mul\n      swap1\n      mload(0x40)\n      0x00\n      mload(0x40)\n      dup1\n      dup4\n      sub\n      dup2\n      dup6\n      dup9\n      dup9\n      call\n      swap4\n      pop\n      pop\n      pop\n      pop\n      iszero\n      dup1\n      iszero\n      tag_32\n      jumpi\n      returndatasize\n      0x00\n      dup1\n      returndatacopy\n      revert(0x00, returndatasize)\n    tag_32:\n      pop\n        /* \"contracts/ExampleExceptionRequire.sol\":406:753  function withdrawal(address payable _to, uint8 _amount) public {\r... */\n      pop\n      pop\n      jump\t// out\n        /* \"#utility.yul\":7:146   */\n    tag_34:\n        /* \"#utility.yul\":53:58   */\n      0x00\n        /* \"#utility.yul\":91:97   */\n      dup2\n        /* \"#utility.yul\":78:98   */\n      calldataload\n        /* \"#utility.yul\":69:98   */\n      swap1\n      pop\n        /* \"#utility.yul\":107:140   */\n      tag_36\n        /* \"#utility.yul\":134:139   */\n      dup2\n        /* \"#utility.yul\":107:140   */\n      tag_37\n      jump\t// in\n    tag_36:\n        /* \"#utility.yul\":7:146   */\n      swap3\n      swap2\n      pop\n      pop\n      jump\t// out\n        /* \"#utility.yul\":152:307   */\n    tag_38:\n        /* \"#utility.yul\":206:211   */\n      0x00\n        /* \"#utility.yul\":244:250   */\n      dup2\n        /* \"#utility.yul\":231:251   */\n      calldataload\n        /* \"#utility.yul\":222:251   */\n      swap1\n      pop\n        /* \"#utility.yul\":260:301   */\n      tag_40\n        /* \"#utility.yul\":295:300   */\n      dup2\n        /* \"#utility.yul\":260:301   */\n      tag_41\n      jump\t// in\n    tag_40:\n        /* \"#utility.yul\":152:307   */\n      swap3\n      swap2\n      pop\n      pop\n      jump\t// out\n        /* \"#utility.yul\":313:448   */\n    tag_42:\n        /* \"#utility.yul\":357:362   */\n      0x00\n        /* \"#utility.yul\":395:401   */\n      dup2\n        /* \"#utility.yul\":382:402   */\n      calldataload\n        /* \"#utility.yul\":373:402   */\n      swap1\n      pop\n        /* \"#utility.yul\":411:442   */\n      tag_44\n        /* \"#utility.yul\":436:441   */\n      dup2\n        /* \"#utility.yul\":411:442   */\n      tag_45\n      jump\t// in\n    tag_44:\n        /* \"#utility.yul\":313:448   */\n      swap3\n      swap2\n      pop\n      pop\n      jump\t// out\n        /* \"#utility.yul\":454:783   */\n    tag_10:\n        /* \"#utility.yul\":513:519   */\n      0x00\n        /* \"#utility.yul\":562:564   */\n      0x20\n        /* \"#utility.yul\":550:559   */\n      dup3\n        /* \"#utility.yul\":541:548   */\n      dup5\n        /* \"#utility.yul\":537:560   */\n      sub\n        /* \"#utility.yul\":533:565   */\n      slt\n        /* \"#utility.yul\":530:649   */\n      iszero\n      tag_47\n      jumpi\n        /* \"#utility.yul\":568:647   */\n      tag_48\n      tag_49\n      jump\t// in\n    tag_48:\n        /* \"#utility.yul\":530:649   */\n    tag_47:\n        /* \"#utility.yul\":688:689   */\n      0x00\n        /* \"#utility.yul\":713:766   */\n      tag_50\n        /* \"#utility.yul\":758:765   */\n      dup5\n        /* \"#utility.yul\":749:755   */\n      dup3\n        /* \"#utility.yul\":738:747   */\n      dup6\n        /* \"#utility.yul\":734:756   */\n      add\n        /* \"#utility.yul\":713:766   */\n      tag_34\n      jump\t// in\n    tag_50:\n        /* \"#utility.yul\":703:766   */\n      swap2\n      pop\n        /* \"#utility.yul\":659:776   */\n      pop\n        /* \"#utility.yul\":454:783   */\n      swap3\n      swap2\n      pop\n      pop\n      jump\t// out\n        /* \"#utility.yul\":789:1275   */\n    tag_17:\n        /* \"#utility.yul\":863:869   */\n      0x00\n        /* \"#utility.yul\":871:877   */\n      dup1\n        /* \"#utility.yul\":920:922   */\n      0x40\n        /* \"#utility.yul\":908:917   */\n      dup4\n        /* \"#utility.yul\":899:906   */\n      dup6\n        /* \"#utility.yul\":895:918   */\n      sub\n        /* \"#utility.yul\":891:923   */\n      slt\n        /* \"#utility.yul\":888:1007   */\n      iszero\n      tag_52\n      jumpi\n        /* \"#utility.yul\":926:1005   */\n      tag_53\n      tag_49\n      jump\t// in\n    tag_53:\n        /* \"#utility.yul\":888:1007   */\n    tag_52:\n        /* \"#utility.yul\":1046:1047   */\n      0x00\n        /* \"#utility.yul\":1071:1132   */\n      tag_54\n        /* \"#utility.yul\":1124:1131   */\n      dup6\n        /* \"#utility.yul\":1115:1121   */\n      dup3\n        /* \"#utility.yul\":1104:1113   */\n      dup7\n        /* \"#utility.yul\":1100:1122   */\n      add\n        /* \"#utility.yul\":1071:1132   */\n      tag_38\n      jump\t// in\n    tag_54:\n        /* \"#utility.yul\":1061:1132   */\n      swap3\n      pop\n        /* \"#utility.yul\":1017:1142   */\n      pop\n        /* \"#utility.yul\":1181:1183   */\n      0x20\n        /* \"#utility.yul\":1207:1258   */\n      tag_55\n        /* \"#utility.yul\":1250:1257   */\n      dup6\n        /* \"#utility.yul\":1241:1247   */\n      dup3\n        /* \"#utility.yul\":1230:1239   */\n      dup7\n        /* \"#utility.yul\":1226:1248   */\n      add\n        /* \"#utility.yul\":1207:1258   */\n      tag_42\n      jump\t// in\n    tag_55:\n        /* \"#utility.yul\":1197:1258   */\n      swap2\n      pop\n        /* \"#utility.yul\":1152:1268   */\n      pop\n        /* \"#utility.yul\":789:1275   */\n      swap3\n      pop\n      swap3\n      swap1\n      pop\n      jump\t// out\n        /* \"#utility.yul\":1281:1647   */\n    tag_56:\n        /* \"#utility.yul\":1423:1426   */\n      0x00\n        /* \"#utility.yul\":1444:1511   */\n      tag_58\n        /* \"#utility.yul\":1508:1510   */\n      0x1b\n        /* \"#utility.yul\":1503:1506   */\n      dup4\n        /* \"#utility.yul\":1444:1511   */\n      tag_59\n      jump\t// in\n    tag_58:\n        /* \"#utility.yul\":1437:1511   */\n      swap2\n      pop\n        /* \"#utility.yul\":1520:1613   */\n      tag_60\n        /* \"#utility.yul\":1609:1612   */\n      dup3\n        /* \"#utility.yul\":1520:1613   */\n      tag_61\n      jump\t// in\n    tag_60:\n        /* \"#utility.yul\":1638:1640   */\n      0x20\n        /* \"#utility.yul\":1633:1636   */\n      dup3\n        /* \"#utility.yul\":1629:1641   */\n      add\n        /* \"#utility.yul\":1622:1641   */\n      swap1\n      pop\n        /* \"#utility.yul\":1281:1647   */\n      swap2\n      swap1\n      pop\n      jump\t// out\n        /* \"#utility.yul\":1653:1765   */\n    tag_62:\n        /* \"#utility.yul\":1736:1758   */\n      tag_64\n        /* \"#utility.yul\":1752:1757   */\n      dup2\n        /* \"#utility.yul\":1736:1758   */\n      tag_65\n      jump\t// in\n    tag_64:\n        /* \"#utility.yul\":1731:1734   */\n      dup3\n        /* \"#utility.yul\":1724:1759   */\n      mstore\n        /* \"#utility.yul\":1653:1765   */\n      pop\n      pop\n      jump\t// out\n        /* \"#utility.yul\":1771:2190   */\n    tag_28:\n        /* \"#utility.yul\":1937:1941   */\n      0x00\n        /* \"#utility.yul\":1975:1977   */\n      0x20\n        /* \"#utility.yul\":1964:1973   */\n      dup3\n        /* \"#utility.yul\":1960:1978   */\n      add\n        /* \"#utility.yul\":1952:1978   */\n      swap1\n      pop\n        /* \"#utility.yul\":2024:2033   */\n      dup2\n        /* \"#utility.yul\":2018:2022   */\n      dup2\n        /* \"#utility.yul\":2014:2034   */\n      sub\n        /* \"#utility.yul\":2010:2011   */\n      0x00\n        /* \"#utility.yul\":1999:2008   */\n      dup4\n        /* \"#utility.yul\":1995:2012   */\n      add\n        /* \"#utility.yul\":1988:2035   */\n      mstore\n        /* \"#utility.yul\":2052:2183   */\n      tag_67\n        /* \"#utility.yul\":2178:2182   */\n      dup2\n        /* \"#utility.yul\":2052:2183   */\n      tag_56\n      jump\t// in\n    tag_67:\n        /* \"#utility.yul\":2044:2183   */\n      swap1\n      pop\n        /* \"#utility.yul\":1771:2190   */\n      swap2\n      swap1\n      pop\n      jump\t// out\n        /* \"#utility.yul\":2196:2410   */\n    tag_13:\n        /* \"#utility.yul\":2285:2289   */\n      0x00\n        /* \"#utility.yul\":2323:2325   */\n      0x20\n        /* \"#utility.yul\":2312:2321   */\n      dup3\n        /* \"#utility.yul\":2308:2326   */\n      add\n        /* \"#utility.yul\":2300:2326   */\n      swap1\n      pop\n        /* \"#utility.yul\":2336:2403   */\n      tag_69\n        /* \"#utility.yul\":2400:2401   */\n      0x00\n        /* \"#utility.yul\":2389:2398   */\n      dup4\n        /* \"#utility.yul\":2385:2402   */\n      add\n        /* \"#utility.yul\":2376:2382   */\n      dup5\n        /* \"#utility.yul\":2336:2403   */\n      tag_62\n      jump\t// in\n    tag_69:\n        /* \"#utility.yul\":2196:2410   */\n      swap3\n      swap2\n      pop\n      pop\n      jump\t// out\n        /* \"#utility.yul\":2497:2666   */\n    tag_59:\n        /* \"#utility.yul\":2581:2592   */\n      0x00\n        /* \"#utility.yul\":2615:2621   */\n      dup3\n        /* \"#utility.yul\":2610:2613   */\n      dup3\n        /* \"#utility.yul\":2603:2622   */\n      mstore\n        /* \"#utility.yul\":2655:2659   */\n      0x20\n        /* \"#utility.yul\":2650:2653   */\n      dup3\n        /* \"#utility.yul\":2646:2660   */\n      add\n        /* \"#utility.yul\":2631:2660   */\n      swap1\n      pop\n        /* \"#utility.yul\":2497:2666   */\n      swap3\n      swap2\n      pop\n      pop\n      jump\t// out\n        /* \"#utility.yul\":2672:2909   */\n    tag_24:\n        /* \"#utility.yul\":2710:2713   */\n      0x00\n        /* \"#utility.yul\":2729:2747   */\n      tag_74\n        /* \"#utility.yul\":2745:2746   */\n      dup3\n        /* \"#utility.yul\":2729:2747   */\n      tag_65\n      jump\t// in\n    tag_74:\n        /* \"#utility.yul\":2724:2747   */\n      swap2\n      pop\n        /* \"#utility.yul\":2761:2779   */\n      tag_75\n        /* \"#utility.yul\":2777:2778   */\n      dup4\n        /* \"#utility.yul\":2761:2779   */\n      tag_65\n      jump\t// in\n    tag_75:\n        /* \"#utility.yul\":2756:2779   */\n      swap3\n      pop\n        /* \"#utility.yul\":2851:2852   */\n      dup3\n        /* \"#utility.yul\":2845:2849   */\n      0xff\n        /* \"#utility.yul\":2841:2853   */\n      sub\n        /* \"#utility.yul\":2838:2839   */\n      dup3\n        /* \"#utility.yul\":2835:2854   */\n      gt\n        /* \"#utility.yul\":2832:2877   */\n      iszero\n      tag_76\n      jumpi\n        /* \"#utility.yul\":2857:2875   */\n      tag_77\n      tag_78\n      jump\t// in\n    tag_77:\n        /* \"#utility.yul\":2832:2877   */\n    tag_76:\n        /* \"#utility.yul\":2901:2902   */\n      dup3\n        /* \"#utility.yul\":2898:2899   */\n      dup3\n        /* \"#utility.yul\":2894:2903   */\n      add\n        /* \"#utility.yul\":2887:2903   */\n      swap1\n      pop\n        /* \"#utility.yul\":2672:2909   */\n      swap3\n      swap2\n      pop\n      pop\n      jump\t// out\n        /* \"#utility.yul\":2915:3100   */\n    tag_30:\n        /* \"#utility.yul\":2953:2957   */\n      0x00\n        /* \"#utility.yul\":2973:2991   */\n      tag_80\n        /* \"#utility.yul\":2989:2990   */\n      dup3\n        /* \"#utility.yul\":2973:2991   */\n      tag_65\n      jump\t// in\n    tag_80:\n        /* \"#utility.yul\":2968:2991   */\n      swap2\n      pop\n        /* \"#utility.yul\":3005:3023   */\n      tag_81\n        /* \"#utility.yul\":3021:3022   */\n      dup4\n        /* \"#utility.yul\":3005:3023   */\n      tag_65\n      jump\t// in\n    tag_81:\n        /* \"#utility.yul\":3000:3023   */\n      swap3\n      pop\n        /* \"#utility.yul\":3042:3043   */\n      dup3\n        /* \"#utility.yul\":3039:3040   */\n      dup3\n        /* \"#utility.yul\":3036:3044   */\n      lt\n        /* \"#utility.yul\":3033:3067   */\n      iszero\n      tag_82\n      jumpi\n        /* \"#utility.yul\":3047:3065   */\n      tag_83\n      tag_78\n      jump\t// in\n    tag_83:\n        /* \"#utility.yul\":3033:3067   */\n    tag_82:\n        /* \"#utility.yul\":3092:3093   */\n      dup3\n        /* \"#utility.yul\":3089:3090   */\n      dup3\n        /* \"#utility.yul\":3085:3094   */\n      sub\n        /* \"#utility.yul\":3077:3094   */\n      swap1\n      pop\n        /* \"#utility.yul\":2915:3100   */\n      swap3\n      swap2\n      pop\n      pop\n      jump\t// out\n        /* \"#utility.yul\":3106:3202   */\n    tag_84:\n        /* \"#utility.yul\":3143:3150   */\n      0x00\n        /* \"#utility.yul\":3172:3196   */\n      tag_86\n        /* \"#utility.yul\":3190:3195   */\n      dup3\n        /* \"#utility.yul\":3172:3196   */\n      tag_87\n      jump\t// in\n    tag_86:\n        /* \"#utility.yul\":3161:3196   */\n      swap1\n      pop\n        /* \"#utility.yul\":3106:3202   */\n      swap2\n      swap1\n      pop\n      jump\t// out\n        /* \"#utility.yul\":3208:3312   */\n    tag_88:\n        /* \"#utility.yul\":3253:3260   */\n      0x00\n        /* \"#utility.yul\":3282:3306   */\n      tag_90\n        /* \"#utility.yul\":3300:3305   */\n      dup3\n        /* \"#utility.yul\":3282:3306   */\n      tag_87\n      jump\t// in\n    tag_90:\n        /* \"#utility.yul\":3271:3306   */\n      swap1\n      pop\n        /* \"#utility.yul\":3208:3312   */\n      swap2\n      swap1\n      pop\n      jump\t// out\n        /* \"#utility.yul\":3318:3444   */\n    tag_87:\n        /* \"#utility.yul\":3355:3362   */\n      0x00\n        /* \"#utility.yul\":3395:3437   */\n      0xffffffffffffffffffffffffffffffffffffffff\n        /* \"#utility.yul\":3388:3393   */\n      dup3\n        /* \"#utility.yul\":3384:3438   */\n      and\n        /* \"#utility.yul\":3373:3438   */\n      swap1\n      pop\n        /* \"#utility.yul\":3318:3444   */\n      swap2\n      swap1\n      pop\n      jump\t// out\n        /* \"#utility.yul\":3450:3536   */\n    tag_65:\n        /* \"#utility.yul\":3485:3492   */\n      0x00\n        /* \"#utility.yul\":3525:3529   */\n      0xff\n        /* \"#utility.yul\":3518:3523   */\n      dup3\n        /* \"#utility.yul\":3514:3530   */\n      and\n        /* \"#utility.yul\":3503:3530   */\n      swap1\n      pop\n        /* \"#utility.yul\":3450:3536   */\n      swap2\n      swap1\n      pop\n      jump\t// out\n        /* \"#utility.yul\":3542:3722   */\n    tag_22:\n        /* \"#utility.yul\":3590:3667   */\n      0x4e487b7100000000000000000000000000000000000000000000000000000000\n        /* \"#utility.yul\":3587:3588   */\n      0x00\n        /* \"#utility.yul\":3580:3668   */\n      mstore\n        /* \"#utility.yul\":3687:3691   */\n      0x01\n        /* \"#utility.yul\":3684:3685   */\n      0x04\n        /* \"#utility.yul\":3677:3692   */\n      mstore\n        /* \"#utility.yul\":3711:3715   */\n      0x24\n        /* \"#utility.yul\":3708:3709   */\n      0x00\n        /* \"#utility.yul\":3701:3716   */\n      revert\n        /* \"#utility.yul\":3728:3908   */\n    tag_78:\n        /* \"#utility.yul\":3776:3853   */\n      0x4e487b7100000000000000000000000000000000000000000000000000000000\n        /* \"#utility.yul\":3773:3774   */\n      0x00\n        /* \"#utility.yul\":3766:3854   */\n      mstore\n        /* \"#utility.yul\":3873:3877   */\n      0x11\n        /* \"#utility.yul\":3870:3871   */\n      0x04\n        /* \"#utility.yul\":3863:3878   */\n      mstore\n        /* \"#utility.yul\":3897:3901   */\n      0x24\n        /* \"#utility.yul\":3894:3895   */\n      0x00\n        /* \"#utility.yul\":3887:3902   */\n      revert\n        /* \"#utility.yul\":4037:4154   */\n    tag_49:\n        /* \"#utility.yul\":4146:4147   */\n      0x00\n        /* \"#utility.yul\":4143:4144   */\n      dup1\n        /* \"#utility.yul\":4136:4148   */\n      revert\n        /* \"#utility.yul\":4160:4337   */\n    tag_61:\n        /* \"#utility.yul\":4300:4329   */\n      0x4e6f7420656e6f7567682066756e64732c2061626f7274696e67210000000000\n        /* \"#utility.yul\":4296:4297   */\n      0x00\n        /* \"#utility.yul\":4288:4294   */\n      dup3\n        /* \"#utility.yul\":4284:4298   */\n      add\n        /* \"#utility.yul\":4277:4330   */\n      mstore\n        /* \"#utility.yul\":4160:4337   */\n      pop\n      jump\t// out\n        /* \"#utility.yul\":4343:4465   */\n    tag_37:\n        /* \"#utility.yul\":4416:4440   */\n      tag_100\n        /* \"#utility.yul\":4434:4439   */\n      dup2\n        /* \"#utility.yul\":4416:4440   */\n      tag_84\n      jump\t// in\n    tag_100:\n        /* \"#utility.yul\":4409:4414   */\n      dup2\n        /* \"#utility.yul\":4406:4441   */\n      eq\n        /* \"#utility.yul\":4396:4459   */\n      tag_101\n      jumpi\n        /* \"#utility.yul\":4455:4456   */\n      0x00\n        /* \"#utility.yul\":4452:4453   */\n      dup1\n        /* \"#utility.yul\":4445:4457   */\n      revert\n        /* \"#utility.yul\":4396:4459   */\n    tag_101:\n        /* \"#utility.yul\":4343:4465   */\n      pop\n      jump\t// out\n        /* \"#utility.yul\":4471:4609   */\n    tag_41:\n        /* \"#utility.yul\":4552:4584   */\n      tag_103\n        /* \"#utility.yul\":4578:4583   */\n      dup2\n        /* \"#utility.yul\":4552:4584   */\n      tag_88\n      jump\t// in\n    tag_103:\n        /* \"#utility.yul\":4545:4550   */\n      dup2\n        /* \"#utility.yul\":4542:4585   */\n      eq\n        /* \"#utility.yul\":4532:4603   */\n      tag_104\n      jumpi\n        /* \"#utility.yul\":4599:4600   */\n      0x00\n        /* \"#utility.yul\":4596:4597   */\n      dup1\n        /* \"#utility.yul\":4589:4601   */\n      revert\n        /* \"#utility.yul\":4532:4603   */\n    tag_104:\n        /* \"#utility.yul\":4471:4609   */\n      pop\n      jump\t// out\n        /* \"#utility.yul\":4615:4733   */\n    tag_45:\n        /* \"#utility.yul\":4686:4708   */\n      tag_106\n        /* \"#utility.yul\":4702:4707   */\n      dup2\n        /* \"#utility.yul\":4686:4708   */\n      tag_65\n      jump\t// in\n    tag_106:\n        /* \"#utility.yul\":4679:4684   */\n      dup2\n        /* \"#utility.yul\":4676:4709   */\n      eq\n        /* \"#utility.yul\":4666:4727   */\n      tag_107\n      jumpi\n        /* \"#utility.yul\":4723:4724   */\n      0x00\n        /* \"#utility.yul\":4720:4721   */\n      dup1\n        /* \"#utility.yul\":4713:4725   */\n      revert\n        /* \"#utility.yul\":4666:4727   */\n    tag_107:\n        /* \"#utility.yul\":4615:4733   */\n      pop\n      jump\t// out\n\n    auxdata: 0xa2646970667358221220b815b09049392e459cf67032e3d7b9146465f335b04e403457285baedb61825e64736f6c63430008070033\n}\n",
				"bytecode": {
					"linkReferences": {},
					"object": "608060405234801561001057600080fd5b50610591806100206000396000f3fe6080604052600436106100345760003560e01c8063d0e30db014610039578063d18a42e114610043578063d78e2e6914610080575b600080fd5b6100416100a9565b005b34801561004f57600080fd5b5061006a600480360381019061006591906102e3565b610130565b60405161007791906103a2565b60405180910390f35b34801561008c57600080fd5b506100a760048036038101906100a29190610310565b610150565b005b3460ff1634146100bc576100bb61048a565b5b346000803373ffffffffffffffffffffffffffffffffffffffff1673ffffffffffffffffffffffffffffffffffffffff16815260200190815260200160002060008282829054906101000a900460ff1661011691906103ce565b92506101000a81548160ff021916908360ff160217905550565b60006020528060005260406000206000915054906101000a900460ff1681565b6000803373ffffffffffffffffffffffffffffffffffffffff1673ffffffffffffffffffffffffffffffffffffffff16815260200190815260200160002060009054906101000a900460ff1660ff168160ff1611156101e4576040517f08c379a00000000000000000000000000000000000000000000000000000000081526004016101db90610382565b60405180910390fd5b806000803373ffffffffffffffffffffffffffffffffffffffff1673ffffffffffffffffffffffffffffffffffffffff16815260200190815260200160002060008282829054906101000a900460ff1661023e9190610405565b92506101000a81548160ff021916908360ff1602179055508173ffffffffffffffffffffffffffffffffffffffff166108fc8260ff169081150290604051600060405180830381858888f1935050505015801561029f573d6000803e3d6000fd5b505050565b6000813590506102b381610516565b92915050565b6000813590506102c88161052d565b92915050565b6000813590506102dd81610544565b92915050565b6000602082840312156102f9576102f86104e8565b5b6000610307848285016102a4565b91505092915050565b60008060408385031215610327576103266104e8565b5b6000610335858286016102b9565b9250506020610346858286016102ce565b9150509250929050565b600061035d601b836103bd565b9150610368826104ed565b602082019050919050565b61037c8161047d565b82525050565b6000602082019050818103600083015261039b81610350565b9050919050565b60006020820190506103b76000830184610373565b92915050565b600082825260208201905092915050565b60006103d98261047d565b91506103e48361047d565b92508260ff038211156103fa576103f96104b9565b5b828201905092915050565b60006104108261047d565b915061041b8361047d565b92508282101561042e5761042d6104b9565b5b828203905092915050565b60006104448261045d565b9050919050565b60006104568261045d565b9050919050565b600073ffffffffffffffffffffffffffffffffffffffff82169050919050565b600060ff82169050919050565b7f4e487b7100000000000000000000000000000000000000000000000000000000600052600160045260246000fd5b7f4e487b7100000000000000000000000000000000000000000000000000000000600052601160045260246000fd5b600080fd5b7f4e6f7420656e6f7567682066756e64732c2061626f7274696e67210000000000600082015250565b61051f81610439565b811461052a57600080fd5b50565b6105368161044b565b811461054157600080fd5b50565b61054d8161047d565b811461055857600080fd5b5056fea2646970667358221220b815b09049392e459cf67032e3d7b9146465f335b04e403457285baedb61825e64736f6c63430008070033",
					"opcodes": "PUSH1 0x80 PUSH1 0x40 MSTORE CALLVALUE DUP1 ISZERO PUSH2 0x10 JUMPI PUSH1 0x0 DUP1 REVERT JUMPDEST POP PUSH2 0x591 DUP1 PUSH2 0x20 PUSH1 0x0 CODECOPY PUSH1 0x0 RETURN INVALID PUSH1 0x80 PUSH1 0x40 MSTORE PUSH1 0x4 CALLDATASIZE LT PUSH2 0x34 JUMPI PUSH1 0x0 CALLDATALOAD PUSH1 0xE0 SHR DUP1 PUSH4 0xD0E30DB0 EQ PUSH2 0x39 JUMPI DUP1 PUSH4 0xD18A42E1 EQ PUSH2 0x43 JUMPI DUP1 PUSH4 0xD78E2E69 EQ PUSH2 0x80 JUMPI JUMPDEST PUSH1 0x0 DUP1 REVERT JUMPDEST PUSH2 0x41 PUSH2 0xA9 JUMP JUMPDEST STOP JUMPDEST CALLVALUE DUP1 ISZERO PUSH2 0x4F JUMPI PUSH1 0x0 DUP1 REVERT JUMPDEST POP PUSH2 0x6A PUSH1 0x4 DUP1 CALLDATASIZE SUB DUP2 ADD SWAP1 PUSH2 0x65 SWAP2 SWAP1 PUSH2 0x2E3 JUMP JUMPDEST PUSH2 0x130 JUMP JUMPDEST PUSH1 0x40 MLOAD PUSH2 0x77 SWAP2 SWAP1 PUSH2 0x3A2 JUMP JUMPDEST PUSH1 0x40 MLOAD DUP1 SWAP2 SUB SWAP1 RETURN JUMPDEST CALLVALUE DUP1 ISZERO PUSH2 0x8C JUMPI PUSH1 0x0 DUP1 REVERT JUMPDEST POP PUSH2 0xA7 PUSH1 0x4 DUP1 CALLDATASIZE SUB DUP2 ADD SWAP1 PUSH2 0xA2 SWAP2 SWAP1 PUSH2 0x310 JUMP JUMPDEST PUSH2 0x150 JUMP JUMPDEST STOP JUMPDEST CALLVALUE PUSH1 0xFF AND CALLVALUE EQ PUSH2 0xBC JUMPI PUSH2 0xBB PUSH2 0x48A JUMP JUMPDEST JUMPDEST CALLVALUE PUSH1 0x0 DUP1 CALLER PUSH20 0xFFFFFFFFFFFFFFFFFFFFFFFFFFFFFFFFFFFFFFFF AND PUSH20 0xFFFFFFFFFFFFFFFFFFFFFFFFFFFFFFFFFFFFFFFF AND DUP2 MSTORE PUSH1 0x20 ADD SWAP1 DUP2 MSTORE PUSH1 0x20 ADD PUSH1 0x0 KECCAK256 PUSH1 0x0 DUP3 DUP3 DUP3 SWAP1 SLOAD SWAP1 PUSH2 0x100 EXP SWAP1 DIV PUSH1 0xFF AND PUSH2 0x116 SWAP2 SWAP1 PUSH2 0x3CE JUMP JUMPDEST SWAP3 POP PUSH2 0x100 EXP DUP2 SLOAD DUP2 PUSH1 0xFF MUL NOT AND SWAP1 DUP4 PUSH1 0xFF AND MUL OR SWAP1 SSTORE POP JUMP JUMPDEST PUSH1 0x0 PUSH1 0x20 MSTORE DUP1 PUSH1 0x0 MSTORE PUSH1 0x40 PUSH1 0x0 KECCAK256 PUSH1 0x0 SWAP2 POP SLOAD SWAP1 PUSH2 0x100 EXP SWAP1 DIV PUSH1 0xFF AND DUP2 JUMP JUMPDEST PUSH1 0x0 DUP1 CALLER PUSH20 0xFFFFFFFFFFFFFFFFFFFFFFFFFFFFFFFFFFFFFFFF AND PUSH20 0xFFFFFFFFFFFFFFFFFFFFFFFFFFFFFFFFFFFFFFFF AND DUP2 MSTORE PUSH1 0x20 ADD SWAP1 DUP2 MSTORE PUSH1 0x20 ADD PUSH1 0x0 KECCAK256 PUSH1 0x0 SWAP1 SLOAD SWAP1 PUSH2 0x100 EXP SWAP1 DIV PUSH1 0xFF AND PUSH1 0xFF AND DUP2 PUSH1 0xFF AND GT ISZERO PUSH2 0x1E4 JUMPI PUSH1 0x40 MLOAD PUSH32 0x8C379A000000000000000000000000000000000000000000000000000000000 DUP2 MSTORE PUSH1 0x4 ADD PUSH2 0x1DB SWAP1 PUSH2 0x382 JUMP JUMPDEST PUSH1 0x40 MLOAD DUP1 SWAP2 SUB SWAP1 REVERT JUMPDEST DUP1 PUSH1 0x0 DUP1 CALLER PUSH20 0xFFFFFFFFFFFFFFFFFFFFFFFFFFFFFFFFFFFFFFFF AND PUSH20 0xFFFFFFFFFFFFFFFFFFFFFFFFFFFFFFFFFFFFFFFF AND DUP2 MSTORE PUSH1 0x20 ADD SWAP1 DUP2 MSTORE PUSH1 0x20 ADD PUSH1 0x0 KECCAK256 PUSH1 0x0 DUP3 DUP3 DUP3 SWAP1 SLOAD SWAP1 PUSH2 0x100 EXP SWAP1 DIV PUSH1 0xFF AND PUSH2 0x23E SWAP2 SWAP1 PUSH2 0x405 JUMP JUMPDEST SWAP3 POP PUSH2 0x100 EXP DUP2 SLOAD DUP2 PUSH1 0xFF MUL NOT AND SWAP1 DUP4 PUSH1 0xFF AND MUL OR SWAP1 SSTORE POP DUP2 PUSH20 0xFFFFFFFFFFFFFFFFFFFFFFFFFFFFFFFFFFFFFFFF AND PUSH2 0x8FC DUP3 PUSH1 0xFF AND SWAP1 DUP2 ISZERO MUL SWAP1 PUSH1 0x40 MLOAD PUSH1 0x0 PUSH1 0x40 MLOAD DUP1 DUP4 SUB DUP2 DUP6 DUP9 DUP9 CALL SWAP4 POP POP POP POP ISZERO DUP1 ISZERO PUSH2 0x29F JUMPI RETURNDATASIZE PUSH1 0x0 DUP1 RETURNDATACOPY RETURNDATASIZE PUSH1 0x0 REVERT JUMPDEST POP POP POP JUMP JUMPDEST PUSH1 0x0 DUP2 CALLDATALOAD SWAP1 POP PUSH2 0x2B3 DUP2 PUSH2 0x516 JUMP JUMPDEST SWAP3 SWAP2 POP POP JUMP JUMPDEST PUSH1 0x0 DUP2 CALLDATALOAD SWAP1 POP PUSH2 0x2C8 DUP2 PUSH2 0x52D JUMP JUMPDEST SWAP3 SWAP2 POP POP JUMP JUMPDEST PUSH1 0x0 DUP2 CALLDATALOAD SWAP1 POP PUSH2 0x2DD DUP2 PUSH2 0x544 JUMP JUMPDEST SWAP3 SWAP2 POP POP JUMP JUMPDEST PUSH1 0x0 PUSH1 0x20 DUP3 DUP5 SUB SLT ISZERO PUSH2 0x2F9 JUMPI PUSH2 0x2F8 PUSH2 0x4E8 JUMP JUMPDEST JUMPDEST PUSH1 0x0 PUSH2 0x307 DUP5 DUP3 DUP6 ADD PUSH2 0x2A4 JUMP JUMPDEST SWAP2 POP POP SWAP3 SWAP2 POP POP JUMP JUMPDEST PUSH1 0x0 DUP1 PUSH1 0x40 DUP4 DUP6 SUB SLT ISZERO PUSH2 0x327 JUMPI PUSH2 0x326 PUSH2 0x4E8 JUMP JUMPDEST JUMPDEST PUSH1 0x0 PUSH2 0x335 DUP6 DUP3 DUP7 ADD PUSH2 0x2B9 JUMP JUMPDEST SWAP3 POP POP PUSH1 0x20 PUSH2 0x346 DUP6 DUP3 DUP7 ADD PUSH2 0x2CE JUMP JUMPDEST SWAP2 POP POP SWAP3 POP SWAP3 SWAP1 POP JUMP JUMPDEST PUSH1 0x0 PUSH2 0x35D PUSH1 0x1B DUP4 PUSH2 0x3BD JUMP JUMPDEST SWAP2 POP PUSH2 0x368 DUP3 PUSH2 0x4ED JUMP JUMPDEST PUSH1 0x20 DUP3 ADD SWAP1 POP SWAP2 SWAP1 POP JUMP JUMPDEST PUSH2 0x37C DUP2 PUSH2 0x47D JUMP JUMPDEST DUP3 MSTORE POP POP JUMP JUMPDEST PUSH1 0x0 PUSH1 0x20 DUP3 ADD SWAP1 POP DUP2 DUP2 SUB PUSH1 0x0 DUP4 ADD MSTORE PUSH2 0x39B DUP2 PUSH2 0x350 JUMP JUMPDEST SWAP1 POP SWAP2 SWAP1 POP JUMP JUMPDEST PUSH1 0x0 PUSH1 0x20 DUP3 ADD SWAP1 POP PUSH2 0x3B7 PUSH1 0x0 DUP4 ADD DUP5 PUSH2 0x373 JUMP JUMPDEST SWAP3 SWAP2 POP POP JUMP JUMPDEST PUSH1 0x0 DUP3 DUP3 MSTORE PUSH1 0x20 DUP3 ADD SWAP1 POP SWAP3 SWAP2 POP POP JUMP JUMPDEST PUSH1 0x0 PUSH2 0x3D9 DUP3 PUSH2 0x47D JUMP JUMPDEST SWAP2 POP PUSH2 0x3E4 DUP4 PUSH2 0x47D JUMP JUMPDEST SWAP3 POP DUP3 PUSH1 0xFF SUB DUP3 GT ISZERO PUSH2 0x3FA JUMPI PUSH2 0x3F9 PUSH2 0x4B9 JUMP JUMPDEST JUMPDEST DUP3 DUP3 ADD SWAP1 POP SWAP3 SWAP2 POP POP JUMP JUMPDEST PUSH1 0x0 PUSH2 0x410 DUP3 PUSH2 0x47D JUMP JUMPDEST SWAP2 POP PUSH2 0x41B DUP4 PUSH2 0x47D JUMP JUMPDEST SWAP3 POP DUP3 DUP3 LT ISZERO PUSH2 0x42E JUMPI PUSH2 0x42D PUSH2 0x4B9 JUMP JUMPDEST JUMPDEST DUP3 DUP3 SUB SWAP1 POP SWAP3 SWAP2 POP POP JUMP JUMPDEST PUSH1 0x0 PUSH2 0x444 DUP3 PUSH2 0x45D JUMP JUMPDEST SWAP1 POP SWAP2 SWAP1 POP JUMP JUMPDEST PUSH1 0x0 PUSH2 0x456 DUP3 PUSH2 0x45D JUMP JUMPDEST SWAP1 POP SWAP2 SWAP1 POP JUMP JUMPDEST PUSH1 0x0 PUSH20 0xFFFFFFFFFFFFFFFFFFFFFFFFFFFFFFFFFFFFFFFF DUP3 AND SWAP1 POP SWAP2 SWAP1 POP JUMP JUMPDEST PUSH1 0x0 PUSH1 0xFF DUP3 AND SWAP1 POP SWAP2 SWAP1 POP JUMP JUMPDEST PUSH32 0x4E487B7100000000000000000000000000000000000000000000000000000000 PUSH1 0x0 MSTORE PUSH1 0x1 PUSH1 0x4 MSTORE PUSH1 0x24 PUSH1 0x0 REVERT JUMPDEST PUSH32 0x4E487B7100000000000000000000000000000000000000000000000000000000 PUSH1 0x0 MSTORE PUSH1 0x11 PUSH1 0x4 MSTORE PUSH1 0x24 PUSH1 0x0 REVERT JUMPDEST PUSH1 0x0 DUP1 REVERT JUMPDEST PUSH32 0x4E6F7420656E6F7567682066756E64732C2061626F7274696E67210000000000 PUSH1 0x0 DUP3 ADD MSTORE POP JUMP JUMPDEST PUSH2 0x51F DUP2 PUSH2 0x439 JUMP JUMPDEST DUP2 EQ PUSH2 0x52A JUMPI PUSH1 0x0 DUP1 REVERT JUMPDEST POP JUMP JUMPDEST PUSH2 0x536 DUP2 PUSH2 0x44B JUMP JUMPDEST DUP2 EQ PUSH2 0x541 JUMPI PUSH1 0x0 DUP1 REVERT JUMPDEST POP JUMP JUMPDEST PUSH2 0x54D DUP2 PUSH2 0x47D JUMP JUMPDEST DUP2 EQ PUSH2 0x558 JUMPI PUSH1 0x0 DUP1 REVERT JUMPDEST POP JUMP INVALID LOG2 PUSH5 0x6970667358 0x22 SLT KECCAK256 0xB8 ISZERO 0xB0 SWAP1 0x49 CODECOPY 0x2E GASLIMIT SWAP13 0xF6 PUSH17 0x32E3D7B9146465F335B04E403457285BAE 0xDB PUSH2 0x825E PUSH5 0x736F6C6343 STOP ADDMOD SMOD STOP CALLER "
				},
				"gasEstimates": {
					"creation": {
						"codeDepositCost": "285000",
						"executionCost": "324",
						"totalCost": "285324"
					},
					"external": {
						"balanceReceived(address)": "2845",
						"deposit()": "infinite",
						"withdrawal(address,uint8)": "infinite"
					}
				},
				"methodIdentifiers": {
					"balanceReceived(address)": "d18a42e1",
					"deposit()": "d0e30db0",
					"withdrawal(address,uint8)": "d78e2e69"
				}
			},
			"storageLayout": {
				"storage": [
					{
						"astId": 5,
						"contract": "contracts/ExampleExceptionRequire.sol:ExampleExceptionRequire",
						"label": "balanceReceived",
						"offset": 0,
						"slot": "0",
						"type": "t_mapping(t_address,t_uint8)"
					}
				],
				"types": {
					"t_address": {
						"encoding": "inplace",
						"label": "address",
						"numberOfBytes": "20"
					},
					"t_mapping(t_address,t_uint8)": {
						"encoding": "mapping",
						"key": "t_address",
						"label": "mapping(address => uint8)",
						"numberOfBytes": "32",
						"value": "t_uint8"
					},
					"t_uint8": {
						"encoding": "inplace",
						"label": "uint8",
						"numberOfBytes": "1"
					}
				}
			},
			"userdoc": {
				"kind": "user",
				"methods": {},
				"version": 1
			}
		}
	}
}