{
	"contracts/BasicWalletExample.sol": {
		"BasicWalletExample": {
			"abi": [
				{
					"inputs": [],
					"name": "deposit",
					"outputs": [],
					"stateMutability": "payable",
					"type": "function"
				},
				{
					"inputs": [],
					"name": "getBalance",
					"outputs": [
						{
							"internalType": "uint256",
							"name": "",
							"type": "uint256"
						}
					],
					"stateMutability": "view",
					"type": "function"
				},
				{
					"inputs": [],
					"name": "withdrawAll",
					"outputs": [],
					"stateMutability": "nonpayable",
					"type": "function"
				},
				{
					"inputs": [
						{
							"internalType": "address payable",
							"name": "_otherAddress",
							"type": "address"
						}
					],
					"name": "withdrawTo",
					"outputs": [],
					"stateMutability": "nonpayable",
					"type": "function"
				}
			],
			"devdoc": {
				"kind": "dev",
				"methods": {},
				"version": 1
			},
			"evm": {
				"assembly": "    /* \"contracts/BasicWalletExample.sol\":74:541  contract BasicWalletExample {\r... */\n  mstore(0x40, 0x80)\n  callvalue\n  dup1\n  iszero\n  tag_1\n  jumpi\n  0x00\n  dup1\n  revert\ntag_1:\n  pop\n  dataSize(sub_0)\n  dup1\n  dataOffset(sub_0)\n  0x00\n  codecopy\n  0x00\n  return\nstop\n\nsub_0: assembly {\n        /* \"contracts/BasicWalletExample.sol\":74:541  contract BasicWalletExample {\r... */\n      mstore(0x40, 0x80)\n      jumpi(tag_1, lt(calldatasize, 0x04))\n      shr(0xe0, calldataload(0x00))\n      dup1\n      0x12065fe0\n      eq\n      tag_2\n      jumpi\n      dup1\n      0x72b0d90c\n      eq\n      tag_3\n      jumpi\n      dup1\n      0x853828b6\n      eq\n      tag_4\n      jumpi\n      dup1\n      0xd0e30db0\n      eq\n      tag_5\n      jumpi\n    tag_1:\n      0x00\n      dup1\n      revert\n        /* \"contracts/BasicWalletExample.sol\":221:316  function getBalance() public view returns (uint){\r... */\n    tag_2:\n      callvalue\n      dup1\n      iszero\n      tag_6\n      jumpi\n      0x00\n      dup1\n      revert\n    tag_6:\n      pop\n      tag_7\n      tag_8\n      jump\t// in\n    tag_7:\n      mload(0x40)\n      tag_9\n      swap2\n      swap1\n      tag_10\n      jump\t// in\n    tag_9:\n      mload(0x40)\n      dup1\n      swap2\n      sub\n      swap1\n      return\n        /* \"contracts/BasicWalletExample.sol\":423:536  function withdrawTo(address payable _otherAddress) public {\r... */\n    tag_3:\n      callvalue\n      dup1\n      iszero\n      tag_11\n      jumpi\n      0x00\n      dup1\n      revert\n    tag_11:\n      pop\n      tag_12\n      0x04\n      dup1\n      calldatasize\n      sub\n      dup2\n      add\n      swap1\n      tag_13\n      swap2\n      swap1\n      tag_14\n      jump\t// in\n    tag_13:\n      tag_15\n      jump\t// in\n    tag_12:\n      stop\n        /* \"contracts/BasicWalletExample.sol\":324:415  function withdrawAll() public {\r... */\n    tag_4:\n      callvalue\n      dup1\n      iszero\n      tag_16\n      jumpi\n      0x00\n      dup1\n      revert\n    tag_16:\n      pop\n      tag_17\n      tag_18\n      jump\t// in\n    tag_17:\n      stop\n        /* \"contracts/BasicWalletExample.sol\":140:213  function deposit() public payable {\r... */\n    tag_5:\n      tag_19\n      tag_20\n      jump\t// in\n    tag_19:\n      stop\n        /* \"contracts/BasicWalletExample.sol\":221:316  function getBalance() public view returns (uint){\r... */\n    tag_8:\n        /* \"contracts/BasicWalletExample.sol\":264:268  uint */\n      0x00\n        /* \"contracts/BasicWalletExample.sol\":287:308  address(this).balance */\n      selfbalance\n        /* \"contracts/BasicWalletExample.sol\":280:308  return address(this).balance */\n      swap1\n      pop\n        /* \"contracts/BasicWalletExample.sol\":221:316  function getBalance() public view returns (uint){\r... */\n      swap1\n      jump\t// out\n        /* \"contracts/BasicWalletExample.sol\":423:536  function withdrawTo(address payable _otherAddress) public {\r... */\n    tag_15:\n        /* \"contracts/BasicWalletExample.sol\":492:505  _otherAddress */\n      dup1\n        /* \"contracts/BasicWalletExample.sol\":492:514  _otherAddress.transfer */\n      0xffffffffffffffffffffffffffffffffffffffff\n      and\n        /* \"contracts/BasicWalletExample.sol\":492:528  _otherAddress.transfer(getBalance()) */\n      0x08fc\n        /* \"contracts/BasicWalletExample.sol\":515:527  getBalance() */\n      tag_23\n        /* \"contracts/BasicWalletExample.sol\":515:525  getBalance */\n      tag_8\n        /* \"contracts/BasicWalletExample.sol\":515:527  getBalance() */\n      jump\t// in\n    tag_23:\n        /* \"contracts/BasicWalletExample.sol\":492:528  _otherAddress.transfer(getBalance()) */\n      swap1\n      dup2\n      iszero\n      mul\n      swap1\n      mload(0x40)\n      0x00\n      mload(0x40)\n      dup1\n      dup4\n      sub\n      dup2\n      dup6\n      dup9\n      dup9\n      call\n      swap4\n      pop\n      pop\n      pop\n      pop\n      iszero\n      dup1\n      iszero\n      tag_25\n      jumpi\n      returndatasize\n      0x00\n      dup1\n      returndatacopy\n      revert(0x00, returndatasize)\n    tag_25:\n      pop\n        /* \"contracts/BasicWalletExample.sol\":423:536  function withdrawTo(address payable _otherAddress) public {\r... */\n      pop\n      jump\t// out\n        /* \"contracts/BasicWalletExample.sol\":324:415  function withdrawAll() public {\r... */\n    tag_18:\n        /* \"contracts/BasicWalletExample.sol\":373:383  msg.sender */\n      caller\n        /* \"contracts/BasicWalletExample.sol\":365:393  payable(msg.sender).transfer */\n      0xffffffffffffffffffffffffffffffffffffffff\n      and\n        /* \"contracts/BasicWalletExample.sol\":365:407  payable(msg.sender).transfer(getBalance()) */\n      0x08fc\n        /* \"contracts/BasicWalletExample.sol\":394:406  getBalance() */\n      tag_27\n        /* \"contracts/BasicWalletExample.sol\":394:404  getBalance */\n      tag_8\n        /* \"contracts/BasicWalletExample.sol\":394:406  getBalance() */\n      jump\t// in\n    tag_27:\n        /* \"contracts/BasicWalletExample.sol\":365:407  payable(msg.sender).transfer(getBalance()) */\n      swap1\n      dup2\n      iszero\n      mul\n      swap1\n      mload(0x40)\n      0x00\n      mload(0x40)\n      dup1\n      dup4\n      sub\n      dup2\n      dup6\n      dup9\n      dup9\n      call\n      swap4\n      pop\n      pop\n      pop\n      pop\n      iszero\n      dup1\n      iszero\n      tag_29\n      jumpi\n      returndatasize\n      0x00\n      dup1\n      returndatacopy\n      revert(0x00, returndatasize)\n    tag_29:\n      pop\n        /* \"contracts/BasicWalletExample.sol\":324:415  function withdrawAll() public {\r... */\n      jump\t// out\n        /* \"contracts/BasicWalletExample.sol\":140:213  function deposit() public payable {\r... */\n    tag_20:\n        /* \"contracts/BasicWalletExample.sol\":196:205  msg.value */\n      callvalue\n        /* \"contracts/BasicWalletExample.sol\":185:192  balance */\n      0x00\n      dup1\n        /* \"contracts/BasicWalletExample.sol\":185:205  balance += msg.value */\n      dup3\n      dup3\n      sload\n      tag_31\n      swap2\n      swap1\n      tag_32\n      jump\t// in\n    tag_31:\n      swap3\n      pop\n      pop\n      dup2\n      swap1\n      sstore\n      pop\n        /* \"contracts/BasicWalletExample.sol\":140:213  function deposit() public payable {\r... */\n      jump\t// out\n        /* \"#utility.yul\":7:162   */\n    tag_34:\n        /* \"#utility.yul\":61:66   */\n      0x00\n        /* \"#utility.yul\":99:105   */\n      dup2\n        /* \"#utility.yul\":86:106   */\n      calldataload\n        /* \"#utility.yul\":77:106   */\n      swap1\n      pop\n        /* \"#utility.yul\":115:156   */\n      tag_36\n        /* \"#utility.yul\":150:155   */\n      dup2\n        /* \"#utility.yul\":115:156   */\n      tag_37\n      jump\t// in\n    tag_36:\n        /* \"#utility.yul\":7:162   */\n      swap3\n      swap2\n      pop\n      pop\n      jump\t// out\n        /* \"#utility.yul\":168:513   */\n    tag_14:\n        /* \"#utility.yul\":235:241   */\n      0x00\n        /* \"#utility.yul\":284:286   */\n      0x20\n        /* \"#utility.yul\":272:281   */\n      dup3\n        /* \"#utility.yul\":263:270   */\n      dup5\n        /* \"#utility.yul\":259:282   */\n      sub\n        /* \"#utility.yul\":255:287   */\n      slt\n        /* \"#utility.yul\":252:371   */\n      iszero\n      tag_39\n      jumpi\n        /* \"#utility.yul\":290:369   */\n      tag_40\n      tag_41\n      jump\t// in\n    tag_40:\n        /* \"#utility.yul\":252:371   */\n    tag_39:\n        /* \"#utility.yul\":410:411   */\n      0x00\n        /* \"#utility.yul\":435:496   */\n      tag_42\n        /* \"#utility.yul\":488:495   */\n      dup5\n        /* \"#utility.yul\":479:485   */\n      dup3\n        /* \"#utility.yul\":468:477   */\n      dup6\n        /* \"#utility.yul\":464:486   */\n      add\n        /* \"#utility.yul\":435:496   */\n      tag_34\n      jump\t// in\n    tag_42:\n        /* \"#utility.yul\":425:496   */\n      swap2\n      pop\n        /* \"#utility.yul\":381:506   */\n      pop\n        /* \"#utility.yul\":168:513   */\n      swap3\n      swap2\n      pop\n      pop\n      jump\t// out\n        /* \"#utility.yul\":519:637   */\n    tag_43:\n        /* \"#utility.yul\":606:630   */\n      tag_45\n        /* \"#utility.yul\":624:629   */\n      dup2\n        /* \"#utility.yul\":606:630   */\n      tag_46\n      jump\t// in\n    tag_45:\n        /* \"#utility.yul\":601:604   */\n      dup3\n        /* \"#utility.yul\":594:631   */\n      mstore\n        /* \"#utility.yul\":519:637   */\n      pop\n      pop\n      jump\t// out\n        /* \"#utility.yul\":643:865   */\n    tag_10:\n        /* \"#utility.yul\":736:740   */\n      0x00\n        /* \"#utility.yul\":774:776   */\n      0x20\n        /* \"#utility.yul\":763:772   */\n      dup3\n        /* \"#utility.yul\":759:777   */\n      add\n        /* \"#utility.yul\":751:777   */\n      swap1\n      pop\n        /* \"#utility.yul\":787:858   */\n      tag_48\n        /* \"#utility.yul\":855:856   */\n      0x00\n        /* \"#utility.yul\":844:853   */\n      dup4\n        /* \"#utility.yul\":840:857   */\n      add\n        /* \"#utility.yul\":831:837   */\n      dup5\n        /* \"#utility.yul\":787:858   */\n      tag_43\n      jump\t// in\n    tag_48:\n        /* \"#utility.yul\":643:865   */\n      swap3\n      swap2\n      pop\n      pop\n      jump\t// out\n        /* \"#utility.yul\":952:1257   */\n    tag_32:\n        /* \"#utility.yul\":992:995   */\n      0x00\n        /* \"#utility.yul\":1011:1031   */\n      tag_52\n        /* \"#utility.yul\":1029:1030   */\n      dup3\n        /* \"#utility.yul\":1011:1031   */\n      tag_46\n      jump\t// in\n    tag_52:\n        /* \"#utility.yul\":1006:1031   */\n      swap2\n      pop\n        /* \"#utility.yul\":1045:1065   */\n      tag_53\n        /* \"#utility.yul\":1063:1064   */\n      dup4\n        /* \"#utility.yul\":1045:1065   */\n      tag_46\n      jump\t// in\n    tag_53:\n        /* \"#utility.yul\":1040:1065   */\n      swap3\n      pop\n        /* \"#utility.yul\":1199:1200   */\n      dup3\n        /* \"#utility.yul\":1131:1197   */\n      0xffffffffffffffffffffffffffffffffffffffffffffffffffffffffffffffff\n        /* \"#utility.yul\":1127:1201   */\n      sub\n        /* \"#utility.yul\":1124:1125   */\n      dup3\n        /* \"#utility.yul\":1121:1202   */\n      gt\n        /* \"#utility.yul\":1118:1225   */\n      iszero\n      tag_54\n      jumpi\n        /* \"#utility.yul\":1205:1223   */\n      tag_55\n      tag_56\n      jump\t// in\n    tag_55:\n        /* \"#utility.yul\":1118:1225   */\n    tag_54:\n        /* \"#utility.yul\":1249:1250   */\n      dup3\n        /* \"#utility.yul\":1246:1247   */\n      dup3\n        /* \"#utility.yul\":1242:1251   */\n      add\n        /* \"#utility.yul\":1235:1251   */\n      swap1\n      pop\n        /* \"#utility.yul\":952:1257   */\n      swap3\n      swap2\n      pop\n      pop\n      jump\t// out\n        /* \"#utility.yul\":1263:1367   */\n    tag_57:\n        /* \"#utility.yul\":1308:1315   */\n      0x00\n        /* \"#utility.yul\":1337:1361   */\n      tag_59\n        /* \"#utility.yul\":1355:1360   */\n      dup3\n        /* \"#utility.yul\":1337:1361   */\n      tag_60\n      jump\t// in\n    tag_59:\n        /* \"#utility.yul\":1326:1361   */\n      swap1\n      pop\n        /* \"#utility.yul\":1263:1367   */\n      swap2\n      swap1\n      pop\n      jump\t// out\n        /* \"#utility.yul\":1373:1499   */\n    tag_60:\n        /* \"#utility.yul\":1410:1417   */\n      0x00\n        /* \"#utility.yul\":1450:1492   */\n      0xffffffffffffffffffffffffffffffffffffffff\n        /* \"#utility.yul\":1443:1448   */\n      dup3\n        /* \"#utility.yul\":1439:1493   */\n      and\n        /* \"#utility.yul\":1428:1493   */\n      swap1\n      pop\n        /* \"#utility.yul\":1373:1499   */\n      swap2\n      swap1\n      pop\n      jump\t// out\n        /* \"#utility.yul\":1505:1582   */\n    tag_46:\n        /* \"#utility.yul\":1542:1549   */\n      0x00\n        /* \"#utility.yul\":1571:1576   */\n      dup2\n        /* \"#utility.yul\":1560:1576   */\n      swap1\n      pop\n        /* \"#utility.yul\":1505:1582   */\n      swap2\n      swap1\n      pop\n      jump\t// out\n        /* \"#utility.yul\":1588:1768   */\n    tag_56:\n        /* \"#utility.yul\":1636:1713   */\n      0x4e487b7100000000000000000000000000000000000000000000000000000000\n        /* \"#utility.yul\":1633:1634   */\n      0x00\n        /* \"#utility.yul\":1626:1714   */\n      mstore\n        /* \"#utility.yul\":1733:1737   */\n      0x11\n        /* \"#utility.yul\":1730:1731   */\n      0x04\n        /* \"#utility.yul\":1723:1738   */\n      mstore\n        /* \"#utility.yul\":1757:1761   */\n      0x24\n        /* \"#utility.yul\":1754:1755   */\n      0x00\n        /* \"#utility.yul\":1747:1762   */\n      revert\n        /* \"#utility.yul\":1897:2014   */\n    tag_41:\n        /* \"#utility.yul\":2006:2007   */\n      0x00\n        /* \"#utility.yul\":2003:2004   */\n      dup1\n        /* \"#utility.yul\":1996:2008   */\n      revert\n        /* \"#utility.yul\":2020:2158   */\n    tag_37:\n        /* \"#utility.yul\":2101:2133   */\n      tag_68\n        /* \"#utility.yul\":2127:2132   */\n      dup2\n        /* \"#utility.yul\":2101:2133   */\n      tag_57\n      jump\t// in\n    tag_68:\n        /* \"#utility.yul\":2094:2099   */\n      dup2\n        /* \"#utility.yul\":2091:2134   */\n      eq\n        /* \"#utility.yul\":2081:2152   */\n      tag_69\n      jumpi\n        /* \"#utility.yul\":2148:2149   */\n      0x00\n        /* \"#utility.yul\":2145:2146   */\n      dup1\n        /* \"#utility.yul\":2138:2150   */\n      revert\n        /* \"#utility.yul\":2081:2152   */\n    tag_69:\n        /* \"#utility.yul\":2020:2158   */\n      pop\n      jump\t// out\n\n    auxdata: 0xa26469706673582212201d7829866b2300889ce18c0bf934f9e3cca593cf605535d53459758d2bd98fe764736f6c63430008070033\n}\n",
				"bytecode": {
					"linkReferences": {},
					"object": "608060405234801561001057600080fd5b506102fb806100206000396000f3fe60806040526004361061003f5760003560e01c806312065fe01461004457806372b0d90c1461006f578063853828b614610098578063d0e30db0146100af575b600080fd5b34801561005057600080fd5b506100596100b9565b60405161006691906101cd565b60405180910390f35b34801561007b57600080fd5b5061009660048036038101906100919190610191565b6100c1565b005b3480156100a457600080fd5b506100ad610112565b005b6100b7610162565b005b600047905090565b8073ffffffffffffffffffffffffffffffffffffffff166108fc6100e36100b9565b9081150290604051600060405180830381858888f1935050505015801561010e573d6000803e3d6000fd5b5050565b3373ffffffffffffffffffffffffffffffffffffffff166108fc6101346100b9565b9081150290604051600060405180830381858888f1935050505015801561015f573d6000803e3d6000fd5b50565b3460008082825461017391906101e8565b92505081905550565b60008135905061018b816102ae565b92915050565b6000602082840312156101a7576101a66102a9565b5b60006101b58482850161017c565b91505092915050565b6101c781610270565b82525050565b60006020820190506101e260008301846101be565b92915050565b60006101f382610270565b91506101fe83610270565b9250827fffffffffffffffffffffffffffffffffffffffffffffffffffffffffffffffff038211156102335761023261027a565b5b828201905092915050565b600061024982610250565b9050919050565b600073ffffffffffffffffffffffffffffffffffffffff82169050919050565b6000819050919050565b7f4e487b7100000000000000000000000000000000000000000000000000000000600052601160045260246000fd5b600080fd5b6102b78161023e565b81146102c257600080fd5b5056fea26469706673582212201d7829866b2300889ce18c0bf934f9e3cca593cf605535d53459758d2bd98fe764736f6c63430008070033",
					"opcodes": "PUSH1 0x80 PUSH1 0x40 MSTORE CALLVALUE DUP1 ISZERO PUSH2 0x10 JUMPI PUSH1 0x0 DUP1 REVERT JUMPDEST POP PUSH2 0x2FB DUP1 PUSH2 0x20 PUSH1 0x0 CODECOPY PUSH1 0x0 RETURN INVALID PUSH1 0x80 PUSH1 0x40 MSTORE PUSH1 0x4 CALLDATASIZE LT PUSH2 0x3F JUMPI PUSH1 0x0 CALLDATALOAD PUSH1 0xE0 SHR DUP1 PUSH4 0x12065FE0 EQ PUSH2 0x44 JUMPI DUP1 PUSH4 0x72B0D90C EQ PUSH2 0x6F JUMPI DUP1 PUSH4 0x853828B6 EQ PUSH2 0x98 JUMPI DUP1 PUSH4 0xD0E30DB0 EQ PUSH2 0xAF JUMPI JUMPDEST PUSH1 0x0 DUP1 REVERT JUMPDEST CALLVALUE DUP1 ISZERO PUSH2 0x50 JUMPI PUSH1 0x0 DUP1 REVERT JUMPDEST POP PUSH2 0x59 PUSH2 0xB9 JUMP JUMPDEST PUSH1 0x40 MLOAD PUSH2 0x66 SWAP2 SWAP1 PUSH2 0x1CD JUMP JUMPDEST PUSH1 0x40 MLOAD DUP1 SWAP2 SUB SWAP1 RETURN JUMPDEST CALLVALUE DUP1 ISZERO PUSH2 0x7B JUMPI PUSH1 0x0 DUP1 REVERT JUMPDEST POP PUSH2 0x96 PUSH1 0x4 DUP1 CALLDATASIZE SUB DUP2 ADD SWAP1 PUSH2 0x91 SWAP2 SWAP1 PUSH2 0x191 JUMP JUMPDEST PUSH2 0xC1 JUMP JUMPDEST STOP JUMPDEST CALLVALUE DUP1 ISZERO PUSH2 0xA4 JUMPI PUSH1 0x0 DUP1 REVERT JUMPDEST POP PUSH2 0xAD PUSH2 0x112 JUMP JUMPDEST STOP JUMPDEST PUSH2 0xB7 PUSH2 0x162 JUMP JUMPDEST STOP JUMPDEST PUSH1 0x0 SELFBALANCE SWAP1 POP SWAP1 JUMP JUMPDEST DUP1 PUSH20 0xFFFFFFFFFFFFFFFFFFFFFFFFFFFFFFFFFFFFFFFF AND PUSH2 0x8FC PUSH2 0xE3 PUSH2 0xB9 JUMP JUMPDEST SWAP1 DUP2 ISZERO MUL SWAP1 PUSH1 0x40 MLOAD PUSH1 0x0 PUSH1 0x40 MLOAD DUP1 DUP4 SUB DUP2 DUP6 DUP9 DUP9 CALL SWAP4 POP POP POP POP ISZERO DUP1 ISZERO PUSH2 0x10E JUMPI RETURNDATASIZE PUSH1 0x0 DUP1 RETURNDATACOPY RETURNDATASIZE PUSH1 0x0 REVERT JUMPDEST POP POP JUMP JUMPDEST CALLER PUSH20 0xFFFFFFFFFFFFFFFFFFFFFFFFFFFFFFFFFFFFFFFF AND PUSH2 0x8FC PUSH2 0x134 PUSH2 0xB9 JUMP JUMPDEST SWAP1 DUP2 ISZERO MUL SWAP1 PUSH1 0x40 MLOAD PUSH1 0x0 PUSH1 0x40 MLOAD DUP1 DUP4 SUB DUP2 DUP6 DUP9 DUP9 CALL SWAP4 POP POP POP POP ISZERO DUP1 ISZERO PUSH2 0x15F JUMPI RETURNDATASIZE PUSH1 0x0 DUP1 RETURNDATACOPY RETURNDATASIZE PUSH1 0x0 REVERT JUMPDEST POP JUMP JUMPDEST CALLVALUE PUSH1 0x0 DUP1 DUP3 DUP3 SLOAD PUSH2 0x173 SWAP2 SWAP1 PUSH2 0x1E8 JUMP JUMPDEST SWAP3 POP POP DUP2 SWAP1 SSTORE POP JUMP JUMPDEST PUSH1 0x0 DUP2 CALLDATALOAD SWAP1 POP PUSH2 0x18B DUP2 PUSH2 0x2AE JUMP JUMPDEST SWAP3 SWAP2 POP POP JUMP JUMPDEST PUSH1 0x0 PUSH1 0x20 DUP3 DUP5 SUB SLT ISZERO PUSH2 0x1A7 JUMPI PUSH2 0x1A6 PUSH2 0x2A9 JUMP JUMPDEST JUMPDEST PUSH1 0x0 PUSH2 0x1B5 DUP5 DUP3 DUP6 ADD PUSH2 0x17C JUMP JUMPDEST SWAP2 POP POP SWAP3 SWAP2 POP POP JUMP JUMPDEST PUSH2 0x1C7 DUP2 PUSH2 0x270 JUMP JUMPDEST DUP3 MSTORE POP POP JUMP JUMPDEST PUSH1 0x0 PUSH1 0x20 DUP3 ADD SWAP1 POP PUSH2 0x1E2 PUSH1 0x0 DUP4 ADD DUP5 PUSH2 0x1BE JUMP JUMPDEST SWAP3 SWAP2 POP POP JUMP JUMPDEST PUSH1 0x0 PUSH2 0x1F3 DUP3 PUSH2 0x270 JUMP JUMPDEST SWAP2 POP PUSH2 0x1FE DUP4 PUSH2 0x270 JUMP JUMPDEST SWAP3 POP DUP3 PUSH32 0xFFFFFFFFFFFFFFFFFFFFFFFFFFFFFFFFFFFFFFFFFFFFFFFFFFFFFFFFFFFFFFFF SUB DUP3 GT ISZERO PUSH2 0x233 JUMPI PUSH2 0x232 PUSH2 0x27A JUMP JUMPDEST JUMPDEST DUP3 DUP3 ADD SWAP1 POP SWAP3 SWAP2 POP POP JUMP JUMPDEST PUSH1 0x0 PUSH2 0x249 DUP3 PUSH2 0x250 JUMP JUMPDEST SWAP1 POP SWAP2 SWAP1 POP JUMP JUMPDEST PUSH1 0x0 PUSH20 0xFFFFFFFFFFFFFFFFFFFFFFFFFFFFFFFFFFFFFFFF DUP3 AND SWAP1 POP SWAP2 SWAP1 POP JUMP JUMPDEST PUSH1 0x0 DUP2 SWAP1 POP SWAP2 SWAP1 POP JUMP JUMPDEST PUSH32 0x4E487B7100000000000000000000000000000000000000000000000000000000 PUSH1 0x0 MSTORE PUSH1 0x11 PUSH1 0x4 MSTORE PUSH1 0x24 PUSH1 0x0 REVERT JUMPDEST PUSH1 0x0 DUP1 REVERT JUMPDEST PUSH2 0x2B7 DUP2 PUSH2 0x23E JUMP JUMPDEST DUP2 EQ PUSH2 0x2C2 JUMPI PUSH1 0x0 DUP1 REVERT JUMPDEST POP JUMP INVALID LOG2 PUSH5 0x6970667358 0x22 SLT KECCAK256 SAR PUSH25 0x29866B2300889CE18C0BF934F9E3CCA593CF605535D5345975 DUP14 0x2B 0xD9 DUP16 0xE7 PUSH5 0x736F6C6343 STOP ADDMOD SMOD STOP CALLER "
				},
				"gasEstimates": {
					"creation": {
						"codeDepositCost": "152600",
						"executionCost": "196",
						"totalCost": "152796"
					},
					"external": {
						"deposit()": "infinite",
						"getBalance()": "317",
						"withdrawAll()": "infinite",
						"withdrawTo(address)": "infinite"
					}
				},
				"methodIdentifiers": {
					"deposit()": "d0e30db0",
					"getBalance()": "12065fe0",
					"withdrawAll()": "853828b6",
					"withdrawTo(address)": "72b0d90c"
				}
			},
			"storageLayout": {
				"storage": [
					{
						"astId": 3,
						"contract": "contracts/BasicWalletExample.sol:BasicWalletExample",
						"label": "balance",
						"offset": 0,
						"slot": "0",
						"type": "t_uint256"
					}
				],
				"types": {
					"t_uint256": {
						"encoding": "inplace",
						"label": "uint256",
						"numberOfBytes": "32"
					}
				}
			},
			"userdoc": {
				"kind": "user",
				"methods": {},
				"version": 1
			}
		}
	}
}