{
	"contracts/SampleTokenSale.sol": {
		"TokenSale": {
			"abi": [
				{
					"inputs": [
						{
							"internalType": "address",
							"name": "_token",
							"type": "address"
						}
					],
					"stateMutability": "nonpayable",
					"type": "constructor"
				},
				{
					"inputs": [],
					"name": "purchaseACoffe",
					"outputs": [],
					"stateMutability": "payable",
					"type": "function"
				},
				{
					"inputs": [],
					"name": "tokenOwner",
					"outputs": [
						{
							"internalType": "address",
							"name": "",
							"type": "address"
						}
					],
					"stateMutability": "view",
					"type": "function"
				}
			],
			"devdoc": {
				"kind": "dev",
				"methods": {},
				"version": 1
			},
			"evm": {
				"assembly": "    /* \"contracts/SampleTokenSale.sol\":416:1050  contract TokenSale {... */\n  mstore(0x40, 0x80)\n    /* \"contracts/SampleTokenSale.sol\":467:474  1 ether */\n  0x0de0b6b3a7640000\n    /* \"contracts/SampleTokenSale.sol\":444:474  uint tokenPriceInWei = 1 ether */\n  0x00\n  sstore\n    /* \"contracts/SampleTokenSale.sol\":533:635  constructor(address _token) {... */\n  callvalue\n  dup1\n  iszero\n  tag_1\n  jumpi\n  0x00\n  dup1\n  revert\ntag_1:\n  pop\n  mload(0x40)\n  sub(codesize, bytecodeSize)\n  dup1\n  bytecodeSize\n  dup4\n  codecopy\n  dup2\n  dup2\n  add\n  0x40\n  mstore\n  dup2\n  add\n  swap1\n  tag_2\n  swap2\n  swap1\n  tag_3\n  jump\t// in\ntag_2:\n    /* \"contracts/SampleTokenSale.sol\":585:595  msg.sender */\n  caller\n    /* \"contracts/SampleTokenSale.sol\":572:582  tokenOwner */\n  0x02\n  0x00\n    /* \"contracts/SampleTokenSale.sol\":572:595  tokenOwner = msg.sender */\n  0x0100\n  exp\n  dup2\n  sload\n  dup2\n  0xffffffffffffffffffffffffffffffffffffffff\n  mul\n  not\n  and\n  swap1\n  dup4\n  0xffffffffffffffffffffffffffffffffffffffff\n  and\n  mul\n  or\n  swap1\n  sstore\n  pop\n    /* \"contracts/SampleTokenSale.sol\":620:626  _token */\n  dup1\n    /* \"contracts/SampleTokenSale.sol\":606:611  token */\n  0x01\n  0x00\n    /* \"contracts/SampleTokenSale.sol\":606:627  token = ERC20(_token) */\n  0x0100\n  exp\n  dup2\n  sload\n  dup2\n  0xffffffffffffffffffffffffffffffffffffffff\n  mul\n  not\n  and\n  swap1\n  dup4\n  0xffffffffffffffffffffffffffffffffffffffff\n  and\n  mul\n  or\n  swap1\n  sstore\n  pop\n    /* \"contracts/SampleTokenSale.sol\":533:635  constructor(address _token) {... */\n  pop\n    /* \"contracts/SampleTokenSale.sol\":416:1050  contract TokenSale {... */\n  jump(tag_6)\n    /* \"#utility.yul\":88:205   */\ntag_8:\n    /* \"#utility.yul\":197:198   */\n  0x00\n    /* \"#utility.yul\":194:195   */\n  dup1\n    /* \"#utility.yul\":187:199   */\n  revert\n    /* \"#utility.yul\":334:460   */\ntag_10:\n    /* \"#utility.yul\":371:378   */\n  0x00\n    /* \"#utility.yul\":411:453   */\n  0xffffffffffffffffffffffffffffffffffffffff\n    /* \"#utility.yul\":404:409   */\n  dup3\n    /* \"#utility.yul\":400:454   */\n  and\n    /* \"#utility.yul\":389:454   */\n  swap1\n  pop\n    /* \"#utility.yul\":334:460   */\n  swap2\n  swap1\n  pop\n  jump\t// out\n    /* \"#utility.yul\":466:562   */\ntag_11:\n    /* \"#utility.yul\":503:510   */\n  0x00\n    /* \"#utility.yul\":532:556   */\n  tag_20\n    /* \"#utility.yul\":550:555   */\n  dup3\n    /* \"#utility.yul\":532:556   */\n  tag_10\n  jump\t// in\ntag_20:\n    /* \"#utility.yul\":521:556   */\n  swap1\n  pop\n    /* \"#utility.yul\":466:562   */\n  swap2\n  swap1\n  pop\n  jump\t// out\n    /* \"#utility.yul\":568:690   */\ntag_12:\n    /* \"#utility.yul\":641:665   */\n  tag_22\n    /* \"#utility.yul\":659:664   */\n  dup2\n    /* \"#utility.yul\":641:665   */\n  tag_11\n  jump\t// in\ntag_22:\n    /* \"#utility.yul\":634:639   */\n  dup2\n    /* \"#utility.yul\":631:666   */\n  eq\n    /* \"#utility.yul\":621:684   */\n  tag_23\n  jumpi\n    /* \"#utility.yul\":680:681   */\n  0x00\n    /* \"#utility.yul\":677:678   */\n  dup1\n    /* \"#utility.yul\":670:682   */\n  revert\n    /* \"#utility.yul\":621:684   */\ntag_23:\n    /* \"#utility.yul\":568:690   */\n  pop\n  jump\t// out\n    /* \"#utility.yul\":696:839   */\ntag_13:\n    /* \"#utility.yul\":753:758   */\n  0x00\n    /* \"#utility.yul\":784:790   */\n  dup2\n    /* \"#utility.yul\":778:791   */\n  mload\n    /* \"#utility.yul\":769:791   */\n  swap1\n  pop\n    /* \"#utility.yul\":800:833   */\n  tag_25\n    /* \"#utility.yul\":827:832   */\n  dup2\n    /* \"#utility.yul\":800:833   */\n  tag_12\n  jump\t// in\ntag_25:\n    /* \"#utility.yul\":696:839   */\n  swap3\n  swap2\n  pop\n  pop\n  jump\t// out\n    /* \"#utility.yul\":845:1196   */\ntag_3:\n    /* \"#utility.yul\":915:921   */\n  0x00\n    /* \"#utility.yul\":964:966   */\n  0x20\n    /* \"#utility.yul\":952:961   */\n  dup3\n    /* \"#utility.yul\":943:950   */\n  dup5\n    /* \"#utility.yul\":939:962   */\n  sub\n    /* \"#utility.yul\":935:967   */\n  slt\n    /* \"#utility.yul\":932:1051   */\n  iszero\n  tag_27\n  jumpi\n    /* \"#utility.yul\":970:1049   */\n  tag_28\n  tag_8\n  jump\t// in\ntag_28:\n    /* \"#utility.yul\":932:1051   */\ntag_27:\n    /* \"#utility.yul\":1090:1091   */\n  0x00\n    /* \"#utility.yul\":1115:1179   */\n  tag_29\n    /* \"#utility.yul\":1171:1178   */\n  dup5\n    /* \"#utility.yul\":1162:1168   */\n  dup3\n    /* \"#utility.yul\":1151:1160   */\n  dup6\n    /* \"#utility.yul\":1147:1169   */\n  add\n    /* \"#utility.yul\":1115:1179   */\n  tag_13\n  jump\t// in\ntag_29:\n    /* \"#utility.yul\":1105:1179   */\n  swap2\n  pop\n    /* \"#utility.yul\":1061:1189   */\n  pop\n    /* \"#utility.yul\":845:1196   */\n  swap3\n  swap2\n  pop\n  pop\n  jump\t// out\n    /* \"contracts/SampleTokenSale.sol\":416:1050  contract TokenSale {... */\ntag_6:\n  dataSize(sub_0)\n  dup1\n  dataOffset(sub_0)\n  0x00\n  codecopy\n  0x00\n  return\nstop\n\nsub_0: assembly {\n        /* \"contracts/SampleTokenSale.sol\":416:1050  contract TokenSale {... */\n      mstore(0x40, 0x80)\n      jumpi(tag_1, lt(calldatasize, 0x04))\n      shr(0xe0, calldataload(0x00))\n      dup1\n      0xa3e67610\n      eq\n      tag_2\n      jumpi\n      dup1\n      0xe7e78652\n      eq\n      tag_3\n      jumpi\n    tag_1:\n      0x00\n      dup1\n      revert\n        /* \"contracts/SampleTokenSale.sol\":499:524  address public tokenOwner */\n    tag_2:\n      callvalue\n      dup1\n      iszero\n      tag_4\n      jumpi\n      0x00\n      dup1\n      revert\n    tag_4:\n      pop\n      tag_5\n      tag_6\n      jump\t// in\n    tag_5:\n      mload(0x40)\n      tag_7\n      swap2\n      swap1\n      tag_8\n      jump\t// in\n    tag_7:\n      mload(0x40)\n      dup1\n      swap2\n      sub\n      swap1\n      return\n        /* \"contracts/SampleTokenSale.sol\":643:1045  function purchaseACoffe() public payable {... */\n    tag_3:\n      tag_9\n      tag_10\n      jump\t// in\n    tag_9:\n      stop\n        /* \"contracts/SampleTokenSale.sol\":499:524  address public tokenOwner */\n    tag_6:\n      0x02\n      0x00\n      swap1\n      sload\n      swap1\n      0x0100\n      exp\n      swap1\n      div\n      0xffffffffffffffffffffffffffffffffffffffff\n      and\n      dup2\n      jump\t// out\n        /* \"contracts/SampleTokenSale.sol\":643:1045  function purchaseACoffe() public payable {... */\n    tag_10:\n        /* \"contracts/SampleTokenSale.sol\":716:731  tokenPriceInWei */\n      sload(0x00)\n        /* \"contracts/SampleTokenSale.sol\":703:712  msg.value */\n      callvalue\n        /* \"contracts/SampleTokenSale.sol\":703:731  msg.value >= tokenPriceInWei */\n      lt\n      iszero\n        /* \"contracts/SampleTokenSale.sol\":695:757  require(msg.value >= tokenPriceInWei, \"Not enough money sent\") */\n      tag_12\n      jumpi\n      mload(0x40)\n      0x08c379a000000000000000000000000000000000000000000000000000000000\n      dup2\n      mstore\n      0x04\n      add\n      tag_13\n      swap1\n      tag_14\n      jump\t// in\n    tag_13:\n      mload(0x40)\n      dup1\n      swap2\n      sub\n      swap1\n      revert\n    tag_12:\n        /* \"contracts/SampleTokenSale.sol\":768:789  uint tokensToTransfer */\n      0x00\n        /* \"contracts/SampleTokenSale.sol\":804:819  tokenPriceInWei */\n      dup1\n      sload\n        /* \"contracts/SampleTokenSale.sol\":792:801  msg.value */\n      callvalue\n        /* \"contracts/SampleTokenSale.sol\":792:819  msg.value / tokenPriceInWei */\n      tag_15\n      swap2\n      swap1\n      tag_16\n      jump\t// in\n    tag_15:\n        /* \"contracts/SampleTokenSale.sol\":768:819  uint tokensToTransfer = msg.value / tokenPriceInWei */\n      swap1\n      pop\n        /* \"contracts/SampleTokenSale.sol\":830:843  uint reminder */\n      0x00\n        /* \"contracts/SampleTokenSale.sol\":877:892  tokenPriceInWei */\n      dup1\n      sload\n        /* \"contracts/SampleTokenSale.sol\":858:874  tokensToTransfer */\n      dup3\n        /* \"contracts/SampleTokenSale.sol\":858:892  tokensToTransfer * tokenPriceInWei */\n      tag_17\n      swap2\n      swap1\n      tag_18\n      jump\t// in\n    tag_17:\n        /* \"contracts/SampleTokenSale.sol\":846:855  msg.value */\n      callvalue\n        /* \"contracts/SampleTokenSale.sol\":846:892  msg.value - tokensToTransfer * tokenPriceInWei */\n      tag_19\n      swap2\n      swap1\n      tag_20\n      jump\t// in\n    tag_19:\n        /* \"contracts/SampleTokenSale.sol\":830:892  uint reminder = msg.value - tokensToTransfer * tokenPriceInWei */\n      swap1\n      pop\n        /* \"contracts/SampleTokenSale.sol\":903:908  token */\n      0x01\n      0x00\n      swap1\n      sload\n      swap1\n      0x0100\n      exp\n      swap1\n      div\n      0xffffffffffffffffffffffffffffffffffffffff\n      and\n        /* \"contracts/SampleTokenSale.sol\":903:921  token.transferFrom */\n      0xffffffffffffffffffffffffffffffffffffffff\n      and\n      0x23b872dd\n        /* \"contracts/SampleTokenSale.sol\":922:932  tokenOwner */\n      0x02\n      0x00\n      swap1\n      sload\n      swap1\n      0x0100\n      exp\n      swap1\n      div\n      0xffffffffffffffffffffffffffffffffffffffff\n      and\n        /* \"contracts/SampleTokenSale.sol\":934:944  msg.sender */\n      caller\n        /* \"contracts/SampleTokenSale.sol\":971:976  token */\n      0x01\n      0x00\n      swap1\n      sload\n      swap1\n      0x0100\n      exp\n      swap1\n      div\n      0xffffffffffffffffffffffffffffffffffffffff\n      and\n        /* \"contracts/SampleTokenSale.sol\":971:985  token.decimals */\n      0xffffffffffffffffffffffffffffffffffffffff\n      and\n      0x313ce567\n        /* \"contracts/SampleTokenSale.sol\":971:987  token.decimals() */\n      mload(0x40)\n      dup2\n      0xffffffff\n      and\n      0xe0\n      shl\n      dup2\n      mstore\n      0x04\n      add\n      0x20\n      mload(0x40)\n      dup1\n      dup4\n      sub\n      dup2\n      dup7\n      gas\n      staticcall\n      iszero\n      dup1\n      iszero\n      tag_22\n      jumpi\n      returndatasize\n      0x00\n      dup1\n      returndatacopy\n      revert(0x00, returndatasize)\n    tag_22:\n      pop\n      pop\n      pop\n      pop\n      mload(0x40)\n      returndatasize\n      not(0x1f)\n      0x1f\n      dup3\n      add\n      and\n      dup3\n      add\n      dup1\n      0x40\n      mstore\n      pop\n      dup2\n      add\n      swap1\n      tag_23\n      swap2\n      swap1\n      tag_24\n      jump\t// in\n    tag_23:\n        /* \"contracts/SampleTokenSale.sol\":965:967  10 */\n      0x0a\n        /* \"contracts/SampleTokenSale.sol\":965:987  10 ** token.decimals() */\n      tag_25\n      swap2\n      swap1\n      tag_26\n      jump\t// in\n    tag_25:\n        /* \"contracts/SampleTokenSale.sol\":946:962  tokensToTransfer */\n      dup7\n        /* \"contracts/SampleTokenSale.sol\":946:987  tokensToTransfer * 10 ** token.decimals() */\n      tag_27\n      swap2\n      swap1\n      tag_18\n      jump\t// in\n    tag_27:\n        /* \"contracts/SampleTokenSale.sol\":903:988  token.transferFrom(tokenOwner, msg.sender, tokensToTransfer * 10 ** token.decimals()) */\n      mload(0x40)\n      dup5\n      0xffffffff\n      and\n      0xe0\n      shl\n      dup2\n      mstore\n      0x04\n      add\n      tag_28\n      swap4\n      swap3\n      swap2\n      swap1\n      tag_29\n      jump\t// in\n    tag_28:\n      0x20\n      mload(0x40)\n      dup1\n      dup4\n      sub\n      dup2\n      0x00\n      dup8\n      gas\n      call\n      iszero\n      dup1\n      iszero\n      tag_31\n      jumpi\n      returndatasize\n      0x00\n      dup1\n      returndatacopy\n      revert(0x00, returndatasize)\n    tag_31:\n      pop\n      pop\n      pop\n      pop\n      mload(0x40)\n      returndatasize\n      not(0x1f)\n      0x1f\n      dup3\n      add\n      and\n      dup3\n      add\n      dup1\n      0x40\n      mstore\n      pop\n      dup2\n      add\n      swap1\n      tag_32\n      swap2\n      swap1\n      tag_33\n      jump\t// in\n    tag_32:\n      pop\n        /* \"contracts/SampleTokenSale.sol\":1007:1017  msg.sender */\n      caller\n        /* \"contracts/SampleTokenSale.sol\":999:1027  payable(msg.sender).transfer */\n      0xffffffffffffffffffffffffffffffffffffffff\n      and\n        /* \"contracts/SampleTokenSale.sol\":999:1037  payable(msg.sender).transfer(reminder) */\n      0x08fc\n        /* \"contracts/SampleTokenSale.sol\":1028:1036  reminder */\n      dup3\n        /* \"contracts/SampleTokenSale.sol\":999:1037  payable(msg.sender).transfer(reminder) */\n      swap1\n      dup2\n      iszero\n      mul\n      swap1\n      mload(0x40)\n      0x00\n      mload(0x40)\n      dup1\n      dup4\n      sub\n      dup2\n      dup6\n      dup9\n      dup9\n      call\n      swap4\n      pop\n      pop\n      pop\n      pop\n      iszero\n      dup1\n      iszero\n      tag_35\n      jumpi\n      returndatasize\n      0x00\n      dup1\n      returndatacopy\n      revert(0x00, returndatasize)\n    tag_35:\n      pop\n        /* \"contracts/SampleTokenSale.sol\":684:1045  {... */\n      pop\n      pop\n        /* \"contracts/SampleTokenSale.sol\":643:1045  function purchaseACoffe() public payable {... */\n      jump\t// out\n        /* \"#utility.yul\":7:133   */\n    tag_36:\n        /* \"#utility.yul\":44:51   */\n      0x00\n        /* \"#utility.yul\":84:126   */\n      0xffffffffffffffffffffffffffffffffffffffff\n        /* \"#utility.yul\":77:82   */\n      dup3\n        /* \"#utility.yul\":73:127   */\n      and\n        /* \"#utility.yul\":62:127   */\n      swap1\n      pop\n        /* \"#utility.yul\":7:133   */\n      swap2\n      swap1\n      pop\n      jump\t// out\n        /* \"#utility.yul\":139:235   */\n    tag_37:\n        /* \"#utility.yul\":176:183   */\n      0x00\n        /* \"#utility.yul\":205:229   */\n      tag_61\n        /* \"#utility.yul\":223:228   */\n      dup3\n        /* \"#utility.yul\":205:229   */\n      tag_36\n      jump\t// in\n    tag_61:\n        /* \"#utility.yul\":194:229   */\n      swap1\n      pop\n        /* \"#utility.yul\":139:235   */\n      swap2\n      swap1\n      pop\n      jump\t// out\n        /* \"#utility.yul\":241:359   */\n    tag_38:\n        /* \"#utility.yul\":328:352   */\n      tag_63\n        /* \"#utility.yul\":346:351   */\n      dup2\n        /* \"#utility.yul\":328:352   */\n      tag_37\n      jump\t// in\n    tag_63:\n        /* \"#utility.yul\":323:326   */\n      dup3\n        /* \"#utility.yul\":316:353   */\n      mstore\n        /* \"#utility.yul\":241:359   */\n      pop\n      pop\n      jump\t// out\n        /* \"#utility.yul\":365:587   */\n    tag_8:\n        /* \"#utility.yul\":458:462   */\n      0x00\n        /* \"#utility.yul\":496:498   */\n      0x20\n        /* \"#utility.yul\":485:494   */\n      dup3\n        /* \"#utility.yul\":481:499   */\n      add\n        /* \"#utility.yul\":473:499   */\n      swap1\n      pop\n        /* \"#utility.yul\":509:580   */\n      tag_65\n        /* \"#utility.yul\":577:578   */\n      0x00\n        /* \"#utility.yul\":566:575   */\n      dup4\n        /* \"#utility.yul\":562:579   */\n      add\n        /* \"#utility.yul\":553:559   */\n      dup5\n        /* \"#utility.yul\":509:580   */\n      tag_38\n      jump\t// in\n    tag_65:\n        /* \"#utility.yul\":365:587   */\n      swap3\n      swap2\n      pop\n      pop\n      jump\t// out\n        /* \"#utility.yul\":593:762   */\n    tag_39:\n        /* \"#utility.yul\":677:688   */\n      0x00\n        /* \"#utility.yul\":711:717   */\n      dup3\n        /* \"#utility.yul\":706:709   */\n      dup3\n        /* \"#utility.yul\":699:718   */\n      mstore\n        /* \"#utility.yul\":751:755   */\n      0x20\n        /* \"#utility.yul\":746:749   */\n      dup3\n        /* \"#utility.yul\":742:756   */\n      add\n        /* \"#utility.yul\":727:756   */\n      swap1\n      pop\n        /* \"#utility.yul\":593:762   */\n      swap3\n      swap2\n      pop\n      pop\n      jump\t// out\n        /* \"#utility.yul\":768:939   */\n    tag_40:\n        /* \"#utility.yul\":908:931   */\n      0x4e6f7420656e6f756768206d6f6e65792073656e740000000000000000000000\n        /* \"#utility.yul\":904:905   */\n      0x00\n        /* \"#utility.yul\":896:902   */\n      dup3\n        /* \"#utility.yul\":892:906   */\n      add\n        /* \"#utility.yul\":885:932   */\n      mstore\n        /* \"#utility.yul\":768:939   */\n      pop\n      jump\t// out\n        /* \"#utility.yul\":945:1311   */\n    tag_41:\n        /* \"#utility.yul\":1087:1090   */\n      0x00\n        /* \"#utility.yul\":1108:1175   */\n      tag_69\n        /* \"#utility.yul\":1172:1174   */\n      0x15\n        /* \"#utility.yul\":1167:1170   */\n      dup4\n        /* \"#utility.yul\":1108:1175   */\n      tag_39\n      jump\t// in\n    tag_69:\n        /* \"#utility.yul\":1101:1175   */\n      swap2\n      pop\n        /* \"#utility.yul\":1184:1277   */\n      tag_70\n        /* \"#utility.yul\":1273:1276   */\n      dup3\n        /* \"#utility.yul\":1184:1277   */\n      tag_40\n      jump\t// in\n    tag_70:\n        /* \"#utility.yul\":1302:1304   */\n      0x20\n        /* \"#utility.yul\":1297:1300   */\n      dup3\n        /* \"#utility.yul\":1293:1305   */\n      add\n        /* \"#utility.yul\":1286:1305   */\n      swap1\n      pop\n        /* \"#utility.yul\":945:1311   */\n      swap2\n      swap1\n      pop\n      jump\t// out\n        /* \"#utility.yul\":1317:1736   */\n    tag_14:\n        /* \"#utility.yul\":1483:1487   */\n      0x00\n        /* \"#utility.yul\":1521:1523   */\n      0x20\n        /* \"#utility.yul\":1510:1519   */\n      dup3\n        /* \"#utility.yul\":1506:1524   */\n      add\n        /* \"#utility.yul\":1498:1524   */\n      swap1\n      pop\n        /* \"#utility.yul\":1570:1579   */\n      dup2\n        /* \"#utility.yul\":1564:1568   */\n      dup2\n        /* \"#utility.yul\":1560:1580   */\n      sub\n        /* \"#utility.yul\":1556:1557   */\n      0x00\n        /* \"#utility.yul\":1545:1554   */\n      dup4\n        /* \"#utility.yul\":1541:1558   */\n      add\n        /* \"#utility.yul\":1534:1581   */\n      mstore\n        /* \"#utility.yul\":1598:1729   */\n      tag_72\n        /* \"#utility.yul\":1724:1728   */\n      dup2\n        /* \"#utility.yul\":1598:1729   */\n      tag_41\n      jump\t// in\n    tag_72:\n        /* \"#utility.yul\":1590:1729   */\n      swap1\n      pop\n        /* \"#utility.yul\":1317:1736   */\n      swap2\n      swap1\n      pop\n      jump\t// out\n        /* \"#utility.yul\":1742:1819   */\n    tag_42:\n        /* \"#utility.yul\":1779:1786   */\n      0x00\n        /* \"#utility.yul\":1808:1813   */\n      dup2\n        /* \"#utility.yul\":1797:1813   */\n      swap1\n      pop\n        /* \"#utility.yul\":1742:1819   */\n      swap2\n      swap1\n      pop\n      jump\t// out\n        /* \"#utility.yul\":1825:2005   */\n    tag_43:\n        /* \"#utility.yul\":1873:1950   */\n      0x4e487b7100000000000000000000000000000000000000000000000000000000\n        /* \"#utility.yul\":1870:1871   */\n      0x00\n        /* \"#utility.yul\":1863:1951   */\n      mstore\n        /* \"#utility.yul\":1970:1974   */\n      0x12\n        /* \"#utility.yul\":1967:1968   */\n      0x04\n        /* \"#utility.yul\":1960:1975   */\n      mstore\n        /* \"#utility.yul\":1994:1998   */\n      0x24\n        /* \"#utility.yul\":1991:1992   */\n      0x00\n        /* \"#utility.yul\":1984:1999   */\n      revert\n        /* \"#utility.yul\":2011:2191   */\n    tag_44:\n        /* \"#utility.yul\":2059:2136   */\n      0x4e487b7100000000000000000000000000000000000000000000000000000000\n        /* \"#utility.yul\":2056:2057   */\n      0x00\n        /* \"#utility.yul\":2049:2137   */\n      mstore\n        /* \"#utility.yul\":2156:2160   */\n      0x11\n        /* \"#utility.yul\":2153:2154   */\n      0x04\n        /* \"#utility.yul\":2146:2161   */\n      mstore\n        /* \"#utility.yul\":2180:2184   */\n      0x24\n        /* \"#utility.yul\":2177:2178   */\n      0x00\n        /* \"#utility.yul\":2170:2185   */\n      revert\n        /* \"#utility.yul\":2197:2382   */\n    tag_16:\n        /* \"#utility.yul\":2237:2238   */\n      0x00\n        /* \"#utility.yul\":2254:2274   */\n      tag_77\n        /* \"#utility.yul\":2272:2273   */\n      dup3\n        /* \"#utility.yul\":2254:2274   */\n      tag_42\n      jump\t// in\n    tag_77:\n        /* \"#utility.yul\":2249:2274   */\n      swap2\n      pop\n        /* \"#utility.yul\":2288:2308   */\n      tag_78\n        /* \"#utility.yul\":2306:2307   */\n      dup4\n        /* \"#utility.yul\":2288:2308   */\n      tag_42\n      jump\t// in\n    tag_78:\n        /* \"#utility.yul\":2283:2308   */\n      swap3\n      pop\n        /* \"#utility.yul\":2327:2328   */\n      dup3\n        /* \"#utility.yul\":2317:2352   */\n      tag_79\n      jumpi\n        /* \"#utility.yul\":2332:2350   */\n      tag_80\n      tag_43\n      jump\t// in\n    tag_80:\n        /* \"#utility.yul\":2317:2352   */\n    tag_79:\n        /* \"#utility.yul\":2374:2375   */\n      dup3\n        /* \"#utility.yul\":2371:2372   */\n      dup3\n        /* \"#utility.yul\":2367:2376   */\n      div\n        /* \"#utility.yul\":2362:2376   */\n      swap1\n      pop\n        /* \"#utility.yul\":2197:2382   */\n      swap3\n      swap2\n      pop\n      pop\n      jump\t// out\n        /* \"#utility.yul\":2388:2736   */\n    tag_18:\n        /* \"#utility.yul\":2428:2435   */\n      0x00\n        /* \"#utility.yul\":2451:2471   */\n      tag_82\n        /* \"#utility.yul\":2469:2470   */\n      dup3\n        /* \"#utility.yul\":2451:2471   */\n      tag_42\n      jump\t// in\n    tag_82:\n        /* \"#utility.yul\":2446:2471   */\n      swap2\n      pop\n        /* \"#utility.yul\":2485:2505   */\n      tag_83\n        /* \"#utility.yul\":2503:2504   */\n      dup4\n        /* \"#utility.yul\":2485:2505   */\n      tag_42\n      jump\t// in\n    tag_83:\n        /* \"#utility.yul\":2480:2505   */\n      swap3\n      pop\n        /* \"#utility.yul\":2673:2674   */\n      dup2\n        /* \"#utility.yul\":2605:2671   */\n      0xffffffffffffffffffffffffffffffffffffffffffffffffffffffffffffffff\n        /* \"#utility.yul\":2601:2675   */\n      div\n        /* \"#utility.yul\":2598:2599   */\n      dup4\n        /* \"#utility.yul\":2595:2676   */\n      gt\n        /* \"#utility.yul\":2590:2591   */\n      dup3\n        /* \"#utility.yul\":2583:2592   */\n      iszero\n        /* \"#utility.yul\":2576:2593   */\n      iszero\n        /* \"#utility.yul\":2572:2677   */\n      and\n        /* \"#utility.yul\":2569:2700   */\n      iszero\n      tag_84\n      jumpi\n        /* \"#utility.yul\":2680:2698   */\n      tag_85\n      tag_44\n      jump\t// in\n    tag_85:\n        /* \"#utility.yul\":2569:2700   */\n    tag_84:\n        /* \"#utility.yul\":2728:2729   */\n      dup3\n        /* \"#utility.yul\":2725:2726   */\n      dup3\n        /* \"#utility.yul\":2721:2730   */\n      mul\n        /* \"#utility.yul\":2710:2730   */\n      swap1\n      pop\n        /* \"#utility.yul\":2388:2736   */\n      swap3\n      swap2\n      pop\n      pop\n      jump\t// out\n        /* \"#utility.yul\":2742:2936   */\n    tag_20:\n        /* \"#utility.yul\":2782:2786   */\n      0x00\n        /* \"#utility.yul\":2802:2822   */\n      tag_87\n        /* \"#utility.yul\":2820:2821   */\n      dup3\n        /* \"#utility.yul\":2802:2822   */\n      tag_42\n      jump\t// in\n    tag_87:\n        /* \"#utility.yul\":2797:2822   */\n      swap2\n      pop\n        /* \"#utility.yul\":2836:2856   */\n      tag_88\n        /* \"#utility.yul\":2854:2855   */\n      dup4\n        /* \"#utility.yul\":2836:2856   */\n      tag_42\n      jump\t// in\n    tag_88:\n        /* \"#utility.yul\":2831:2856   */\n      swap3\n      pop\n        /* \"#utility.yul\":2880:2881   */\n      dup3\n        /* \"#utility.yul\":2877:2878   */\n      dup3\n        /* \"#utility.yul\":2873:2882   */\n      sub\n        /* \"#utility.yul\":2865:2882   */\n      swap1\n      pop\n        /* \"#utility.yul\":2904:2905   */\n      dup2\n        /* \"#utility.yul\":2898:2902   */\n      dup2\n        /* \"#utility.yul\":2895:2906   */\n      gt\n        /* \"#utility.yul\":2892:2929   */\n      iszero\n      tag_89\n      jumpi\n        /* \"#utility.yul\":2909:2927   */\n      tag_90\n      tag_44\n      jump\t// in\n    tag_90:\n        /* \"#utility.yul\":2892:2929   */\n    tag_89:\n        /* \"#utility.yul\":2742:2936   */\n      swap3\n      swap2\n      pop\n      pop\n      jump\t// out\n        /* \"#utility.yul\":3023:3140   */\n    tag_46:\n        /* \"#utility.yul\":3132:3133   */\n      0x00\n        /* \"#utility.yul\":3129:3130   */\n      dup1\n        /* \"#utility.yul\":3122:3134   */\n      revert\n        /* \"#utility.yul\":3269:3355   */\n    tag_48:\n        /* \"#utility.yul\":3304:3311   */\n      0x00\n        /* \"#utility.yul\":3344:3348   */\n      0xff\n        /* \"#utility.yul\":3337:3342   */\n      dup3\n        /* \"#utility.yul\":3333:3349   */\n      and\n        /* \"#utility.yul\":3322:3349   */\n      swap1\n      pop\n        /* \"#utility.yul\":3269:3355   */\n      swap2\n      swap1\n      pop\n      jump\t// out\n        /* \"#utility.yul\":3361:3479   */\n    tag_49:\n        /* \"#utility.yul\":3432:3454   */\n      tag_96\n        /* \"#utility.yul\":3448:3453   */\n      dup2\n        /* \"#utility.yul\":3432:3454   */\n      tag_48\n      jump\t// in\n    tag_96:\n        /* \"#utility.yul\":3425:3430   */\n      dup2\n        /* \"#utility.yul\":3422:3455   */\n      eq\n        /* \"#utility.yul\":3412:3473   */\n      tag_97\n      jumpi\n        /* \"#utility.yul\":3469:3470   */\n      0x00\n        /* \"#utility.yul\":3466:3467   */\n      dup1\n        /* \"#utility.yul\":3459:3471   */\n      revert\n        /* \"#utility.yul\":3412:3473   */\n    tag_97:\n        /* \"#utility.yul\":3361:3479   */\n      pop\n      jump\t// out\n        /* \"#utility.yul\":3485:3624   */\n    tag_50:\n        /* \"#utility.yul\":3540:3545   */\n      0x00\n        /* \"#utility.yul\":3571:3577   */\n      dup2\n        /* \"#utility.yul\":3565:3578   */\n      mload\n        /* \"#utility.yul\":3556:3578   */\n      swap1\n      pop\n        /* \"#utility.yul\":3587:3618   */\n      tag_99\n        /* \"#utility.yul\":3612:3617   */\n      dup2\n        /* \"#utility.yul\":3587:3618   */\n      tag_49\n      jump\t// in\n    tag_99:\n        /* \"#utility.yul\":3485:3624   */\n      swap3\n      swap2\n      pop\n      pop\n      jump\t// out\n        /* \"#utility.yul\":3630:3977   */\n    tag_24:\n        /* \"#utility.yul\":3698:3704   */\n      0x00\n        /* \"#utility.yul\":3747:3749   */\n      0x20\n        /* \"#utility.yul\":3735:3744   */\n      dup3\n        /* \"#utility.yul\":3726:3733   */\n      dup5\n        /* \"#utility.yul\":3722:3745   */\n      sub\n        /* \"#utility.yul\":3718:3750   */\n      slt\n        /* \"#utility.yul\":3715:3834   */\n      iszero\n      tag_101\n      jumpi\n        /* \"#utility.yul\":3753:3832   */\n      tag_102\n      tag_46\n      jump\t// in\n    tag_102:\n        /* \"#utility.yul\":3715:3834   */\n    tag_101:\n        /* \"#utility.yul\":3873:3874   */\n      0x00\n        /* \"#utility.yul\":3898:3960   */\n      tag_103\n        /* \"#utility.yul\":3952:3959   */\n      dup5\n        /* \"#utility.yul\":3943:3949   */\n      dup3\n        /* \"#utility.yul\":3932:3941   */\n      dup6\n        /* \"#utility.yul\":3928:3950   */\n      add\n        /* \"#utility.yul\":3898:3960   */\n      tag_50\n      jump\t// in\n    tag_103:\n        /* \"#utility.yul\":3888:3960   */\n      swap2\n      pop\n        /* \"#utility.yul\":3844:3970   */\n      pop\n        /* \"#utility.yul\":3630:3977   */\n      swap3\n      swap2\n      pop\n      pop\n      jump\t// out\n        /* \"#utility.yul\":3983:4085   */\n    tag_51:\n        /* \"#utility.yul\":4025:4033   */\n      0x00\n        /* \"#utility.yul\":4072:4077   */\n      dup2\n        /* \"#utility.yul\":4069:4070   */\n      0x01\n        /* \"#utility.yul\":4065:4078   */\n      shr\n        /* \"#utility.yul\":4044:4078   */\n      swap1\n      pop\n        /* \"#utility.yul\":3983:4085   */\n      swap2\n      swap1\n      pop\n      jump\t// out\n        /* \"#utility.yul\":4091:4939   */\n    tag_52:\n        /* \"#utility.yul\":4152:4157   */\n      0x00\n        /* \"#utility.yul\":4159:4163   */\n      dup1\n        /* \"#utility.yul\":4183:4189   */\n      dup3\n        /* \"#utility.yul\":4174:4189   */\n      swap2\n      pop\n        /* \"#utility.yul\":4207:4212   */\n      dup4\n        /* \"#utility.yul\":4198:4212   */\n      swap1\n      pop\n        /* \"#utility.yul\":4221:4933   */\n    tag_106:\n        /* \"#utility.yul\":4242:4243   */\n      0x01\n        /* \"#utility.yul\":4232:4240   */\n      dup6\n        /* \"#utility.yul\":4229:4244   */\n      gt\n        /* \"#utility.yul\":4221:4933   */\n      iszero\n      tag_108\n      jumpi\n        /* \"#utility.yul\":4337:4341   */\n      dup1\n        /* \"#utility.yul\":4332:4335   */\n      dup7\n        /* \"#utility.yul\":4328:4342   */\n      div\n        /* \"#utility.yul\":4322:4326   */\n      dup2\n        /* \"#utility.yul\":4319:4343   */\n      gt\n        /* \"#utility.yul\":4316:4366   */\n      iszero\n      tag_109\n      jumpi\n        /* \"#utility.yul\":4346:4364   */\n      tag_110\n      tag_44\n      jump\t// in\n    tag_110:\n        /* \"#utility.yul\":4316:4366   */\n    tag_109:\n        /* \"#utility.yul\":4396:4397   */\n      0x01\n        /* \"#utility.yul\":4386:4394   */\n      dup6\n        /* \"#utility.yul\":4382:4398   */\n      and\n        /* \"#utility.yul\":4379:4830   */\n      iszero\n      tag_111\n      jumpi\n        /* \"#utility.yul\":4811:4815   */\n      dup1\n        /* \"#utility.yul\":4804:4809   */\n      dup3\n        /* \"#utility.yul\":4800:4816   */\n      mul\n        /* \"#utility.yul\":4791:4816   */\n      swap2\n      pop\n        /* \"#utility.yul\":4379:4830   */\n    tag_111:\n        /* \"#utility.yul\":4861:4865   */\n      dup1\n        /* \"#utility.yul\":4855:4859   */\n      dup2\n        /* \"#utility.yul\":4851:4866   */\n      mul\n        /* \"#utility.yul\":4843:4866   */\n      swap1\n      pop\n        /* \"#utility.yul\":4891:4923   */\n      tag_112\n        /* \"#utility.yul\":4914:4922   */\n      dup6\n        /* \"#utility.yul\":4891:4923   */\n      tag_51\n      jump\t// in\n    tag_112:\n        /* \"#utility.yul\":4879:4923   */\n      swap5\n      pop\n        /* \"#utility.yul\":4221:4933   */\n      jump(tag_106)\n    tag_108:\n        /* \"#utility.yul\":4091:4939   */\n      swap5\n      pop\n      swap5\n      swap3\n      pop\n      pop\n      pop\n      jump\t// out\n        /* \"#utility.yul\":4945:6018   */\n    tag_53:\n        /* \"#utility.yul\":4999:5004   */\n      0x00\n        /* \"#utility.yul\":5190:5198   */\n      dup3\n        /* \"#utility.yul\":5180:5220   */\n      tag_114\n      jumpi\n        /* \"#utility.yul\":5211:5212   */\n      0x01\n        /* \"#utility.yul\":5202:5212   */\n      swap1\n      pop\n        /* \"#utility.yul\":5213:5218   */\n      jump(tag_113)\n        /* \"#utility.yul\":5180:5220   */\n    tag_114:\n        /* \"#utility.yul\":5239:5243   */\n      dup2\n        /* \"#utility.yul\":5229:5265   */\n      tag_115\n      jumpi\n        /* \"#utility.yul\":5256:5257   */\n      0x00\n        /* \"#utility.yul\":5247:5257   */\n      swap1\n      pop\n        /* \"#utility.yul\":5258:5263   */\n      jump(tag_113)\n        /* \"#utility.yul\":5229:5265   */\n    tag_115:\n        /* \"#utility.yul\":5325:5329   */\n      dup2\n        /* \"#utility.yul\":5373:5374   */\n      0x01\n        /* \"#utility.yul\":5368:5395   */\n      dup2\n      eq\n      tag_117\n      jumpi\n        /* \"#utility.yul\":5409:5410   */\n      0x02\n        /* \"#utility.yul\":5404:5595   */\n      dup2\n      eq\n      tag_118\n      jumpi\n        /* \"#utility.yul\":5318:5595   */\n      jump(tag_116)\n        /* \"#utility.yul\":5368:5395   */\n    tag_117:\n        /* \"#utility.yul\":5386:5387   */\n      0x01\n        /* \"#utility.yul\":5377:5387   */\n      swap2\n      pop\n        /* \"#utility.yul\":5388:5393   */\n      pop\n      jump(tag_113)\n        /* \"#utility.yul\":5404:5595   */\n    tag_118:\n        /* \"#utility.yul\":5449:5452   */\n      0xff\n        /* \"#utility.yul\":5439:5447   */\n      dup5\n        /* \"#utility.yul\":5436:5453   */\n      gt\n        /* \"#utility.yul\":5433:5476   */\n      iszero\n      tag_119\n      jumpi\n        /* \"#utility.yul\":5456:5474   */\n      tag_120\n      tag_44\n      jump\t// in\n    tag_120:\n        /* \"#utility.yul\":5433:5476   */\n    tag_119:\n        /* \"#utility.yul\":5505:5513   */\n      dup4\n        /* \"#utility.yul\":5502:5503   */\n      0x02\n        /* \"#utility.yul\":5498:5514   */\n      exp\n        /* \"#utility.yul\":5489:5514   */\n      swap2\n      pop\n        /* \"#utility.yul\":5540:5543   */\n      dup5\n        /* \"#utility.yul\":5533:5538   */\n      dup3\n        /* \"#utility.yul\":5530:5544   */\n      gt\n        /* \"#utility.yul\":5527:5567   */\n      iszero\n      tag_121\n      jumpi\n        /* \"#utility.yul\":5547:5565   */\n      tag_122\n      tag_44\n      jump\t// in\n    tag_122:\n        /* \"#utility.yul\":5527:5567   */\n    tag_121:\n        /* \"#utility.yul\":5580:5585   */\n      pop\n      jump(tag_113)\n        /* \"#utility.yul\":5318:5595   */\n    tag_116:\n      pop\n        /* \"#utility.yul\":5704:5706   */\n      0x20\n        /* \"#utility.yul\":5694:5702   */\n      dup4\n        /* \"#utility.yul\":5691:5707   */\n      lt\n        /* \"#utility.yul\":5685:5688   */\n      0x0133\n        /* \"#utility.yul\":5679:5683   */\n      dup4\n        /* \"#utility.yul\":5676:5689   */\n      lt\n        /* \"#utility.yul\":5672:5708   */\n      and\n        /* \"#utility.yul\":5654:5656   */\n      0x4e\n        /* \"#utility.yul\":5644:5652   */\n      dup5\n        /* \"#utility.yul\":5641:5657   */\n      lt\n        /* \"#utility.yul\":5636:5638   */\n      0x0b\n        /* \"#utility.yul\":5630:5634   */\n      dup5\n        /* \"#utility.yul\":5627:5639   */\n      lt\n        /* \"#utility.yul\":5623:5658   */\n      and\n        /* \"#utility.yul\":5607:5718   */\n      or\n        /* \"#utility.yul\":5604:5850   */\n      iszero\n      tag_123\n      jumpi\n        /* \"#utility.yul\":5760:5768   */\n      dup3\n        /* \"#utility.yul\":5754:5758   */\n      dup3\n        /* \"#utility.yul\":5750:5769   */\n      exp\n        /* \"#utility.yul\":5741:5769   */\n      swap1\n      pop\n        /* \"#utility.yul\":5795:5798   */\n      dup4\n        /* \"#utility.yul\":5788:5793   */\n      dup2\n        /* \"#utility.yul\":5785:5799   */\n      gt\n        /* \"#utility.yul\":5782:5822   */\n      iszero\n      tag_124\n      jumpi\n        /* \"#utility.yul\":5802:5820   */\n      tag_125\n      tag_44\n      jump\t// in\n    tag_125:\n        /* \"#utility.yul\":5782:5822   */\n    tag_124:\n        /* \"#utility.yul\":5835:5840   */\n      jump(tag_113)\n        /* \"#utility.yul\":5604:5850   */\n    tag_123:\n        /* \"#utility.yul\":5875:5917   */\n      tag_126\n        /* \"#utility.yul\":5913:5916   */\n      dup5\n        /* \"#utility.yul\":5903:5911   */\n      dup5\n        /* \"#utility.yul\":5897:5901   */\n      dup5\n        /* \"#utility.yul\":5894:5895   */\n      0x01\n        /* \"#utility.yul\":5875:5917   */\n      tag_52\n      jump\t// in\n    tag_126:\n        /* \"#utility.yul\":5860:5917   */\n      swap3\n      pop\n      swap1\n      pop\n        /* \"#utility.yul\":5949:5953   */\n      dup2\n        /* \"#utility.yul\":5944:5947   */\n      dup5\n        /* \"#utility.yul\":5940:5954   */\n      div\n        /* \"#utility.yul\":5933:5938   */\n      dup2\n        /* \"#utility.yul\":5930:5955   */\n      gt\n        /* \"#utility.yul\":5927:5978   */\n      iszero\n      tag_127\n      jumpi\n        /* \"#utility.yul\":5958:5976   */\n      tag_128\n      tag_44\n      jump\t// in\n    tag_128:\n        /* \"#utility.yul\":5927:5978   */\n    tag_127:\n        /* \"#utility.yul\":6007:6011   */\n      dup2\n        /* \"#utility.yul\":6000:6005   */\n      dup2\n        /* \"#utility.yul\":5996:6012   */\n      mul\n        /* \"#utility.yul\":5987:6012   */\n      swap1\n      pop\n        /* \"#utility.yul\":4945:6018   */\n    tag_113:\n      swap4\n      swap3\n      pop\n      pop\n      pop\n      jump\t// out\n        /* \"#utility.yul\":6024:6305   */\n    tag_26:\n        /* \"#utility.yul\":6082:6087   */\n      0x00\n        /* \"#utility.yul\":6106:6129   */\n      tag_130\n        /* \"#utility.yul\":6124:6128   */\n      dup3\n        /* \"#utility.yul\":6106:6129   */\n      tag_42\n      jump\t// in\n    tag_130:\n        /* \"#utility.yul\":6098:6129   */\n      swap2\n      pop\n        /* \"#utility.yul\":6150:6175   */\n      tag_131\n        /* \"#utility.yul\":6166:6174   */\n      dup4\n        /* \"#utility.yul\":6150:6175   */\n      tag_48\n      jump\t// in\n    tag_131:\n        /* \"#utility.yul\":6138:6175   */\n      swap3\n      pop\n        /* \"#utility.yul\":6194:6298   */\n      tag_132\n        /* \"#utility.yul\":6231:6297   */\n      0xffffffffffffffffffffffffffffffffffffffffffffffffffffffffffffffff\n        /* \"#utility.yul\":6221:6229   */\n      dup5\n        /* \"#utility.yul\":6215:6219   */\n      dup5\n        /* \"#utility.yul\":6194:6298   */\n      tag_53\n      jump\t// in\n    tag_132:\n        /* \"#utility.yul\":6185:6298   */\n      swap1\n      pop\n        /* \"#utility.yul\":6024:6305   */\n      swap3\n      swap2\n      pop\n      pop\n      jump\t// out\n        /* \"#utility.yul\":6311:6429   */\n    tag_54:\n        /* \"#utility.yul\":6398:6422   */\n      tag_134\n        /* \"#utility.yul\":6416:6421   */\n      dup2\n        /* \"#utility.yul\":6398:6422   */\n      tag_42\n      jump\t// in\n    tag_134:\n        /* \"#utility.yul\":6393:6396   */\n      dup3\n        /* \"#utility.yul\":6386:6423   */\n      mstore\n        /* \"#utility.yul\":6311:6429   */\n      pop\n      pop\n      jump\t// out\n        /* \"#utility.yul\":6435:6877   */\n    tag_29:\n        /* \"#utility.yul\":6584:6588   */\n      0x00\n        /* \"#utility.yul\":6622:6624   */\n      0x60\n        /* \"#utility.yul\":6611:6620   */\n      dup3\n        /* \"#utility.yul\":6607:6625   */\n      add\n        /* \"#utility.yul\":6599:6625   */\n      swap1\n      pop\n        /* \"#utility.yul\":6635:6706   */\n      tag_136\n        /* \"#utility.yul\":6703:6704   */\n      0x00\n        /* \"#utility.yul\":6692:6701   */\n      dup4\n        /* \"#utility.yul\":6688:6705   */\n      add\n        /* \"#utility.yul\":6679:6685   */\n      dup7\n        /* \"#utility.yul\":6635:6706   */\n      tag_38\n      jump\t// in\n    tag_136:\n        /* \"#utility.yul\":6716:6788   */\n      tag_137\n        /* \"#utility.yul\":6784:6786   */\n      0x20\n        /* \"#utility.yul\":6773:6782   */\n      dup4\n        /* \"#utility.yul\":6769:6787   */\n      add\n        /* \"#utility.yul\":6760:6766   */\n      dup6\n        /* \"#utility.yul\":6716:6788   */\n      tag_38\n      jump\t// in\n    tag_137:\n        /* \"#utility.yul\":6798:6870   */\n      tag_138\n        /* \"#utility.yul\":6866:6868   */\n      0x40\n        /* \"#utility.yul\":6855:6864   */\n      dup4\n        /* \"#utility.yul\":6851:6869   */\n      add\n        /* \"#utility.yul\":6842:6848   */\n      dup5\n        /* \"#utility.yul\":6798:6870   */\n      tag_54\n      jump\t// in\n    tag_138:\n        /* \"#utility.yul\":6435:6877   */\n      swap5\n      swap4\n      pop\n      pop\n      pop\n      pop\n      jump\t// out\n        /* \"#utility.yul\":6883:6973   */\n    tag_55:\n        /* \"#utility.yul\":6917:6924   */\n      0x00\n        /* \"#utility.yul\":6960:6965   */\n      dup2\n        /* \"#utility.yul\":6953:6966   */\n      iszero\n        /* \"#utility.yul\":6946:6967   */\n      iszero\n        /* \"#utility.yul\":6935:6967   */\n      swap1\n      pop\n        /* \"#utility.yul\":6883:6973   */\n      swap2\n      swap1\n      pop\n      jump\t// out\n        /* \"#utility.yul\":6979:7095   */\n    tag_56:\n        /* \"#utility.yul\":7049:7070   */\n      tag_141\n        /* \"#utility.yul\":7064:7069   */\n      dup2\n        /* \"#utility.yul\":7049:7070   */\n      tag_55\n      jump\t// in\n    tag_141:\n        /* \"#utility.yul\":7042:7047   */\n      dup2\n        /* \"#utility.yul\":7039:7071   */\n      eq\n        /* \"#utility.yul\":7029:7089   */\n      tag_142\n      jumpi\n        /* \"#utility.yul\":7085:7086   */\n      0x00\n        /* \"#utility.yul\":7082:7083   */\n      dup1\n        /* \"#utility.yul\":7075:7087   */\n      revert\n        /* \"#utility.yul\":7029:7089   */\n    tag_142:\n        /* \"#utility.yul\":6979:7095   */\n      pop\n      jump\t// out\n        /* \"#utility.yul\":7101:7238   */\n    tag_57:\n        /* \"#utility.yul\":7155:7160   */\n      0x00\n        /* \"#utility.yul\":7186:7192   */\n      dup2\n        /* \"#utility.yul\":7180:7193   */\n      mload\n        /* \"#utility.yul\":7171:7193   */\n      swap1\n      pop\n        /* \"#utility.yul\":7202:7232   */\n      tag_144\n        /* \"#utility.yul\":7226:7231   */\n      dup2\n        /* \"#utility.yul\":7202:7232   */\n      tag_56\n      jump\t// in\n    tag_144:\n        /* \"#utility.yul\":7101:7238   */\n      swap3\n      swap2\n      pop\n      pop\n      jump\t// out\n        /* \"#utility.yul\":7244:7589   */\n    tag_33:\n        /* \"#utility.yul\":7311:7317   */\n      0x00\n        /* \"#utility.yul\":7360:7362   */\n      0x20\n        /* \"#utility.yul\":7348:7357   */\n      dup3\n        /* \"#utility.yul\":7339:7346   */\n      dup5\n        /* \"#utility.yul\":7335:7358   */\n      sub\n        /* \"#utility.yul\":7331:7363   */\n      slt\n        /* \"#utility.yul\":7328:7447   */\n      iszero\n      tag_146\n      jumpi\n        /* \"#utility.yul\":7366:7445   */\n      tag_147\n      tag_46\n      jump\t// in\n    tag_147:\n        /* \"#utility.yul\":7328:7447   */\n    tag_146:\n        /* \"#utility.yul\":7486:7487   */\n      0x00\n        /* \"#utility.yul\":7511:7572   */\n      tag_148\n        /* \"#utility.yul\":7564:7571   */\n      dup5\n        /* \"#utility.yul\":7555:7561   */\n      dup3\n        /* \"#utility.yul\":7544:7553   */\n      dup6\n        /* \"#utility.yul\":7540:7562   */\n      add\n        /* \"#utility.yul\":7511:7572   */\n      tag_57\n      jump\t// in\n    tag_148:\n        /* \"#utility.yul\":7501:7572   */\n      swap2\n      pop\n        /* \"#utility.yul\":7457:7582   */\n      pop\n        /* \"#utility.yul\":7244:7589   */\n      swap3\n      swap2\n      pop\n      pop\n      jump\t// out\n\n    auxdata: 0xa264697066735822122023e10816e7f8f316160c84f622391195d4eb2ecdb01a410ed5870b05bacc3aaa64736f6c63430008100033\n}\n",
				"bytecode": {
					"linkReferences": {},
					"object": "6080604052670de0b6b3a764000060005534801561001c57600080fd5b506040516108e13803806108e1833981810160405281019061003e9190610129565b33600260006101000a81548173ffffffffffffffffffffffffffffffffffffffff021916908373ffffffffffffffffffffffffffffffffffffffff16021790555080600160006101000a81548173ffffffffffffffffffffffffffffffffffffffff021916908373ffffffffffffffffffffffffffffffffffffffff16021790555050610156565b600080fd5b600073ffffffffffffffffffffffffffffffffffffffff82169050919050565b60006100f6826100cb565b9050919050565b610106816100eb565b811461011157600080fd5b50565b600081519050610123816100fd565b92915050565b60006020828403121561013f5761013e6100c6565b5b600061014d84828501610114565b91505092915050565b61077c806101656000396000f3fe6080604052600436106100295760003560e01c8063a3e676101461002e578063e7e7865214610059575b600080fd5b34801561003a57600080fd5b50610043610063565b60405161005091906102f3565b60405180910390f35b610061610089565b005b600260009054906101000a900473ffffffffffffffffffffffffffffffffffffffff1681565b6000543410156100ce576040517f08c379a00000000000000000000000000000000000000000000000000000000081526004016100c59061036b565b60405180910390fd5b60008054346100dd91906103f3565b905060008054826100ee9190610424565b346100f9919061047e565b9050600160009054906101000a900473ffffffffffffffffffffffffffffffffffffffff1673ffffffffffffffffffffffffffffffffffffffff166323b872dd600260009054906101000a900473ffffffffffffffffffffffffffffffffffffffff1633600160009054906101000a900473ffffffffffffffffffffffffffffffffffffffff1673ffffffffffffffffffffffffffffffffffffffff1663313ce5676040518163ffffffff1660e01b8152600401602060405180830381865afa1580156101ca573d6000803e3d6000fd5b505050506040513d601f19601f820116820180604052508101906101ee91906104f0565b600a6101fa9190610650565b866102059190610424565b6040518463ffffffff1660e01b8152600401610223939291906106aa565b6020604051808303816000875af1158015610242573d6000803e3d6000fd5b505050506040513d601f19601f820116820180604052508101906102669190610719565b503373ffffffffffffffffffffffffffffffffffffffff166108fc829081150290604051600060405180830381858888f193505050501580156102ad573d6000803e3d6000fd5b505050565b600073ffffffffffffffffffffffffffffffffffffffff82169050919050565b60006102dd826102b2565b9050919050565b6102ed816102d2565b82525050565b600060208201905061030860008301846102e4565b92915050565b600082825260208201905092915050565b7f4e6f7420656e6f756768206d6f6e65792073656e740000000000000000000000600082015250565b600061035560158361030e565b91506103608261031f565b602082019050919050565b6000602082019050818103600083015261038481610348565b9050919050565b6000819050919050565b7f4e487b7100000000000000000000000000000000000000000000000000000000600052601260045260246000fd5b7f4e487b7100000000000000000000000000000000000000000000000000000000600052601160045260246000fd5b60006103fe8261038b565b91506104098361038b565b92508261041957610418610395565b5b828204905092915050565b600061042f8261038b565b915061043a8361038b565b9250817fffffffffffffffffffffffffffffffffffffffffffffffffffffffffffffffff0483118215151615610473576104726103c4565b5b828202905092915050565b60006104898261038b565b91506104948361038b565b92508282039050818111156104ac576104ab6103c4565b5b92915050565b600080fd5b600060ff82169050919050565b6104cd816104b7565b81146104d857600080fd5b50565b6000815190506104ea816104c4565b92915050565b600060208284031215610506576105056104b2565b5b6000610514848285016104db565b91505092915050565b60008160011c9050919050565b6000808291508390505b6001851115610574578086048111156105505761054f6103c4565b5b600185161561055f5780820291505b808102905061056d8561051d565b9450610534565b94509492505050565b60008261058d5760019050610649565b8161059b5760009050610649565b81600181146105b157600281146105bb576105ea565b6001915050610649565b60ff8411156105cd576105cc6103c4565b5b8360020a9150848211156105e4576105e36103c4565b5b50610649565b5060208310610133831016604e8410600b841016171561061f5782820a90508381111561061a576106196103c4565b5b610649565b61062c848484600161052a565b92509050818404811115610643576106426103c4565b5b81810290505b9392505050565b600061065b8261038b565b9150610666836104b7565b92506106937fffffffffffffffffffffffffffffffffffffffffffffffffffffffffffffffff848461057d565b905092915050565b6106a48161038b565b82525050565b60006060820190506106bf60008301866102e4565b6106cc60208301856102e4565b6106d9604083018461069b565b949350505050565b60008115159050919050565b6106f6816106e1565b811461070157600080fd5b50565b600081519050610713816106ed565b92915050565b60006020828403121561072f5761072e6104b2565b5b600061073d84828501610704565b9150509291505056fea264697066735822122023e10816e7f8f316160c84f622391195d4eb2ecdb01a410ed5870b05bacc3aaa64736f6c63430008100033",
					"opcodes": "PUSH1 0x80 PUSH1 0x40 MSTORE PUSH8 0xDE0B6B3A7640000 PUSH1 0x0 SSTORE CALLVALUE DUP1 ISZERO PUSH2 0x1C JUMPI PUSH1 0x0 DUP1 REVERT JUMPDEST POP PUSH1 0x40 MLOAD PUSH2 0x8E1 CODESIZE SUB DUP1 PUSH2 0x8E1 DUP4 CODECOPY DUP2 DUP2 ADD PUSH1 0x40 MSTORE DUP2 ADD SWAP1 PUSH2 0x3E SWAP2 SWAP1 PUSH2 0x129 JUMP JUMPDEST CALLER PUSH1 0x2 PUSH1 0x0 PUSH2 0x100 EXP DUP2 SLOAD DUP2 PUSH20 0xFFFFFFFFFFFFFFFFFFFFFFFFFFFFFFFFFFFFFFFF MUL NOT AND SWAP1 DUP4 PUSH20 0xFFFFFFFFFFFFFFFFFFFFFFFFFFFFFFFFFFFFFFFF AND MUL OR SWAP1 SSTORE POP DUP1 PUSH1 0x1 PUSH1 0x0 PUSH2 0x100 EXP DUP2 SLOAD DUP2 PUSH20 0xFFFFFFFFFFFFFFFFFFFFFFFFFFFFFFFFFFFFFFFF MUL NOT AND SWAP1 DUP4 PUSH20 0xFFFFFFFFFFFFFFFFFFFFFFFFFFFFFFFFFFFFFFFF AND MUL OR SWAP1 SSTORE POP POP PUSH2 0x156 JUMP JUMPDEST PUSH1 0x0 DUP1 REVERT JUMPDEST PUSH1 0x0 PUSH20 0xFFFFFFFFFFFFFFFFFFFFFFFFFFFFFFFFFFFFFFFF DUP3 AND SWAP1 POP SWAP2 SWAP1 POP JUMP JUMPDEST PUSH1 0x0 PUSH2 0xF6 DUP3 PUSH2 0xCB JUMP JUMPDEST SWAP1 POP SWAP2 SWAP1 POP JUMP JUMPDEST PUSH2 0x106 DUP2 PUSH2 0xEB JUMP JUMPDEST DUP2 EQ PUSH2 0x111 JUMPI PUSH1 0x0 DUP1 REVERT JUMPDEST POP JUMP JUMPDEST PUSH1 0x0 DUP2 MLOAD SWAP1 POP PUSH2 0x123 DUP2 PUSH2 0xFD JUMP JUMPDEST SWAP3 SWAP2 POP POP JUMP JUMPDEST PUSH1 0x0 PUSH1 0x20 DUP3 DUP5 SUB SLT ISZERO PUSH2 0x13F JUMPI PUSH2 0x13E PUSH2 0xC6 JUMP JUMPDEST JUMPDEST PUSH1 0x0 PUSH2 0x14D DUP5 DUP3 DUP6 ADD PUSH2 0x114 JUMP JUMPDEST SWAP2 POP POP SWAP3 SWAP2 POP POP JUMP JUMPDEST PUSH2 0x77C DUP1 PUSH2 0x165 PUSH1 0x0 CODECOPY PUSH1 0x0 RETURN INVALID PUSH1 0x80 PUSH1 0x40 MSTORE PUSH1 0x4 CALLDATASIZE LT PUSH2 0x29 JUMPI PUSH1 0x0 CALLDATALOAD PUSH1 0xE0 SHR DUP1 PUSH4 0xA3E67610 EQ PUSH2 0x2E JUMPI DUP1 PUSH4 0xE7E78652 EQ PUSH2 0x59 JUMPI JUMPDEST PUSH1 0x0 DUP1 REVERT JUMPDEST CALLVALUE DUP1 ISZERO PUSH2 0x3A JUMPI PUSH1 0x0 DUP1 REVERT JUMPDEST POP PUSH2 0x43 PUSH2 0x63 JUMP JUMPDEST PUSH1 0x40 MLOAD PUSH2 0x50 SWAP2 SWAP1 PUSH2 0x2F3 JUMP JUMPDEST PUSH1 0x40 MLOAD DUP1 SWAP2 SUB SWAP1 RETURN JUMPDEST PUSH2 0x61 PUSH2 0x89 JUMP JUMPDEST STOP JUMPDEST PUSH1 0x2 PUSH1 0x0 SWAP1 SLOAD SWAP1 PUSH2 0x100 EXP SWAP1 DIV PUSH20 0xFFFFFFFFFFFFFFFFFFFFFFFFFFFFFFFFFFFFFFFF AND DUP2 JUMP JUMPDEST PUSH1 0x0 SLOAD CALLVALUE LT ISZERO PUSH2 0xCE JUMPI PUSH1 0x40 MLOAD PUSH32 0x8C379A000000000000000000000000000000000000000000000000000000000 DUP2 MSTORE PUSH1 0x4 ADD PUSH2 0xC5 SWAP1 PUSH2 0x36B JUMP JUMPDEST PUSH1 0x40 MLOAD DUP1 SWAP2 SUB SWAP1 REVERT JUMPDEST PUSH1 0x0 DUP1 SLOAD CALLVALUE PUSH2 0xDD SWAP2 SWAP1 PUSH2 0x3F3 JUMP JUMPDEST SWAP1 POP PUSH1 0x0 DUP1 SLOAD DUP3 PUSH2 0xEE SWAP2 SWAP1 PUSH2 0x424 JUMP JUMPDEST CALLVALUE PUSH2 0xF9 SWAP2 SWAP1 PUSH2 0x47E JUMP JUMPDEST SWAP1 POP PUSH1 0x1 PUSH1 0x0 SWAP1 SLOAD SWAP1 PUSH2 0x100 EXP SWAP1 DIV PUSH20 0xFFFFFFFFFFFFFFFFFFFFFFFFFFFFFFFFFFFFFFFF AND PUSH20 0xFFFFFFFFFFFFFFFFFFFFFFFFFFFFFFFFFFFFFFFF AND PUSH4 0x23B872DD PUSH1 0x2 PUSH1 0x0 SWAP1 SLOAD SWAP1 PUSH2 0x100 EXP SWAP1 DIV PUSH20 0xFFFFFFFFFFFFFFFFFFFFFFFFFFFFFFFFFFFFFFFF AND CALLER PUSH1 0x1 PUSH1 0x0 SWAP1 SLOAD SWAP1 PUSH2 0x100 EXP SWAP1 DIV PUSH20 0xFFFFFFFFFFFFFFFFFFFFFFFFFFFFFFFFFFFFFFFF AND PUSH20 0xFFFFFFFFFFFFFFFFFFFFFFFFFFFFFFFFFFFFFFFF AND PUSH4 0x313CE567 PUSH1 0x40 MLOAD DUP2 PUSH4 0xFFFFFFFF AND PUSH1 0xE0 SHL DUP2 MSTORE PUSH1 0x4 ADD PUSH1 0x20 PUSH1 0x40 MLOAD DUP1 DUP4 SUB DUP2 DUP7 GAS STATICCALL ISZERO DUP1 ISZERO PUSH2 0x1CA JUMPI RETURNDATASIZE PUSH1 0x0 DUP1 RETURNDATACOPY RETURNDATASIZE PUSH1 0x0 REVERT JUMPDEST POP POP POP POP PUSH1 0x40 MLOAD RETURNDATASIZE PUSH1 0x1F NOT PUSH1 0x1F DUP3 ADD AND DUP3 ADD DUP1 PUSH1 0x40 MSTORE POP DUP2 ADD SWAP1 PUSH2 0x1EE SWAP2 SWAP1 PUSH2 0x4F0 JUMP JUMPDEST PUSH1 0xA PUSH2 0x1FA SWAP2 SWAP1 PUSH2 0x650 JUMP JUMPDEST DUP7 PUSH2 0x205 SWAP2 SWAP1 PUSH2 0x424 JUMP JUMPDEST PUSH1 0x40 MLOAD DUP5 PUSH4 0xFFFFFFFF AND PUSH1 0xE0 SHL DUP2 MSTORE PUSH1 0x4 ADD PUSH2 0x223 SWAP4 SWAP3 SWAP2 SWAP1 PUSH2 0x6AA JUMP JUMPDEST PUSH1 0x20 PUSH1 0x40 MLOAD DUP1 DUP4 SUB DUP2 PUSH1 0x0 DUP8 GAS CALL ISZERO DUP1 ISZERO PUSH2 0x242 JUMPI RETURNDATASIZE PUSH1 0x0 DUP1 RETURNDATACOPY RETURNDATASIZE PUSH1 0x0 REVERT JUMPDEST POP POP POP POP PUSH1 0x40 MLOAD RETURNDATASIZE PUSH1 0x1F NOT PUSH1 0x1F DUP3 ADD AND DUP3 ADD DUP1 PUSH1 0x40 MSTORE POP DUP2 ADD SWAP1 PUSH2 0x266 SWAP2 SWAP1 PUSH2 0x719 JUMP JUMPDEST POP CALLER PUSH20 0xFFFFFFFFFFFFFFFFFFFFFFFFFFFFFFFFFFFFFFFF AND PUSH2 0x8FC DUP3 SWAP1 DUP2 ISZERO MUL SWAP1 PUSH1 0x40 MLOAD PUSH1 0x0 PUSH1 0x40 MLOAD DUP1 DUP4 SUB DUP2 DUP6 DUP9 DUP9 CALL SWAP4 POP POP POP POP ISZERO DUP1 ISZERO PUSH2 0x2AD JUMPI RETURNDATASIZE PUSH1 0x0 DUP1 RETURNDATACOPY RETURNDATASIZE PUSH1 0x0 REVERT JUMPDEST POP POP POP JUMP JUMPDEST PUSH1 0x0 PUSH20 0xFFFFFFFFFFFFFFFFFFFFFFFFFFFFFFFFFFFFFFFF DUP3 AND SWAP1 POP SWAP2 SWAP1 POP JUMP JUMPDEST PUSH1 0x0 PUSH2 0x2DD DUP3 PUSH2 0x2B2 JUMP JUMPDEST SWAP1 POP SWAP2 SWAP1 POP JUMP JUMPDEST PUSH2 0x2ED DUP2 PUSH2 0x2D2 JUMP JUMPDEST DUP3 MSTORE POP POP JUMP JUMPDEST PUSH1 0x0 PUSH1 0x20 DUP3 ADD SWAP1 POP PUSH2 0x308 PUSH1 0x0 DUP4 ADD DUP5 PUSH2 0x2E4 JUMP JUMPDEST SWAP3 SWAP2 POP POP JUMP JUMPDEST PUSH1 0x0 DUP3 DUP3 MSTORE PUSH1 0x20 DUP3 ADD SWAP1 POP SWAP3 SWAP2 POP POP JUMP JUMPDEST PUSH32 0x4E6F7420656E6F756768206D6F6E65792073656E740000000000000000000000 PUSH1 0x0 DUP3 ADD MSTORE POP JUMP JUMPDEST PUSH1 0x0 PUSH2 0x355 PUSH1 0x15 DUP4 PUSH2 0x30E JUMP JUMPDEST SWAP2 POP PUSH2 0x360 DUP3 PUSH2 0x31F JUMP JUMPDEST PUSH1 0x20 DUP3 ADD SWAP1 POP SWAP2 SWAP1 POP JUMP JUMPDEST PUSH1 0x0 PUSH1 0x20 DUP3 ADD SWAP1 POP DUP2 DUP2 SUB PUSH1 0x0 DUP4 ADD MSTORE PUSH2 0x384 DUP2 PUSH2 0x348 JUMP JUMPDEST SWAP1 POP SWAP2 SWAP1 POP JUMP JUMPDEST PUSH1 0x0 DUP2 SWAP1 POP SWAP2 SWAP1 POP JUMP JUMPDEST PUSH32 0x4E487B7100000000000000000000000000000000000000000000000000000000 PUSH1 0x0 MSTORE PUSH1 0x12 PUSH1 0x4 MSTORE PUSH1 0x24 PUSH1 0x0 REVERT JUMPDEST PUSH32 0x4E487B7100000000000000000000000000000000000000000000000000000000 PUSH1 0x0 MSTORE PUSH1 0x11 PUSH1 0x4 MSTORE PUSH1 0x24 PUSH1 0x0 REVERT JUMPDEST PUSH1 0x0 PUSH2 0x3FE DUP3 PUSH2 0x38B JUMP JUMPDEST SWAP2 POP PUSH2 0x409 DUP4 PUSH2 0x38B JUMP JUMPDEST SWAP3 POP DUP3 PUSH2 0x419 JUMPI PUSH2 0x418 PUSH2 0x395 JUMP JUMPDEST JUMPDEST DUP3 DUP3 DIV SWAP1 POP SWAP3 SWAP2 POP POP JUMP JUMPDEST PUSH1 0x0 PUSH2 0x42F DUP3 PUSH2 0x38B JUMP JUMPDEST SWAP2 POP PUSH2 0x43A DUP4 PUSH2 0x38B JUMP JUMPDEST SWAP3 POP DUP2 PUSH32 0xFFFFFFFFFFFFFFFFFFFFFFFFFFFFFFFFFFFFFFFFFFFFFFFFFFFFFFFFFFFFFFFF DIV DUP4 GT DUP3 ISZERO ISZERO AND ISZERO PUSH2 0x473 JUMPI PUSH2 0x472 PUSH2 0x3C4 JUMP JUMPDEST JUMPDEST DUP3 DUP3 MUL SWAP1 POP SWAP3 SWAP2 POP POP JUMP JUMPDEST PUSH1 0x0 PUSH2 0x489 DUP3 PUSH2 0x38B JUMP JUMPDEST SWAP2 POP PUSH2 0x494 DUP4 PUSH2 0x38B JUMP JUMPDEST SWAP3 POP DUP3 DUP3 SUB SWAP1 POP DUP2 DUP2 GT ISZERO PUSH2 0x4AC JUMPI PUSH2 0x4AB PUSH2 0x3C4 JUMP JUMPDEST JUMPDEST SWAP3 SWAP2 POP POP JUMP JUMPDEST PUSH1 0x0 DUP1 REVERT JUMPDEST PUSH1 0x0 PUSH1 0xFF DUP3 AND SWAP1 POP SWAP2 SWAP1 POP JUMP JUMPDEST PUSH2 0x4CD DUP2 PUSH2 0x4B7 JUMP JUMPDEST DUP2 EQ PUSH2 0x4D8 JUMPI PUSH1 0x0 DUP1 REVERT JUMPDEST POP JUMP JUMPDEST PUSH1 0x0 DUP2 MLOAD SWAP1 POP PUSH2 0x4EA DUP2 PUSH2 0x4C4 JUMP JUMPDEST SWAP3 SWAP2 POP POP JUMP JUMPDEST PUSH1 0x0 PUSH1 0x20 DUP3 DUP5 SUB SLT ISZERO PUSH2 0x506 JUMPI PUSH2 0x505 PUSH2 0x4B2 JUMP JUMPDEST JUMPDEST PUSH1 0x0 PUSH2 0x514 DUP5 DUP3 DUP6 ADD PUSH2 0x4DB JUMP JUMPDEST SWAP2 POP POP SWAP3 SWAP2 POP POP JUMP JUMPDEST PUSH1 0x0 DUP2 PUSH1 0x1 SHR SWAP1 POP SWAP2 SWAP1 POP JUMP JUMPDEST PUSH1 0x0 DUP1 DUP3 SWAP2 POP DUP4 SWAP1 POP JUMPDEST PUSH1 0x1 DUP6 GT ISZERO PUSH2 0x574 JUMPI DUP1 DUP7 DIV DUP2 GT ISZERO PUSH2 0x550 JUMPI PUSH2 0x54F PUSH2 0x3C4 JUMP JUMPDEST JUMPDEST PUSH1 0x1 DUP6 AND ISZERO PUSH2 0x55F JUMPI DUP1 DUP3 MUL SWAP2 POP JUMPDEST DUP1 DUP2 MUL SWAP1 POP PUSH2 0x56D DUP6 PUSH2 0x51D JUMP JUMPDEST SWAP5 POP PUSH2 0x534 JUMP JUMPDEST SWAP5 POP SWAP5 SWAP3 POP POP POP JUMP JUMPDEST PUSH1 0x0 DUP3 PUSH2 0x58D JUMPI PUSH1 0x1 SWAP1 POP PUSH2 0x649 JUMP JUMPDEST DUP2 PUSH2 0x59B JUMPI PUSH1 0x0 SWAP1 POP PUSH2 0x649 JUMP JUMPDEST DUP2 PUSH1 0x1 DUP2 EQ PUSH2 0x5B1 JUMPI PUSH1 0x2 DUP2 EQ PUSH2 0x5BB JUMPI PUSH2 0x5EA JUMP JUMPDEST PUSH1 0x1 SWAP2 POP POP PUSH2 0x649 JUMP JUMPDEST PUSH1 0xFF DUP5 GT ISZERO PUSH2 0x5CD JUMPI PUSH2 0x5CC PUSH2 0x3C4 JUMP JUMPDEST JUMPDEST DUP4 PUSH1 0x2 EXP SWAP2 POP DUP5 DUP3 GT ISZERO PUSH2 0x5E4 JUMPI PUSH2 0x5E3 PUSH2 0x3C4 JUMP JUMPDEST JUMPDEST POP PUSH2 0x649 JUMP JUMPDEST POP PUSH1 0x20 DUP4 LT PUSH2 0x133 DUP4 LT AND PUSH1 0x4E DUP5 LT PUSH1 0xB DUP5 LT AND OR ISZERO PUSH2 0x61F JUMPI DUP3 DUP3 EXP SWAP1 POP DUP4 DUP2 GT ISZERO PUSH2 0x61A JUMPI PUSH2 0x619 PUSH2 0x3C4 JUMP JUMPDEST JUMPDEST PUSH2 0x649 JUMP JUMPDEST PUSH2 0x62C DUP5 DUP5 DUP5 PUSH1 0x1 PUSH2 0x52A JUMP JUMPDEST SWAP3 POP SWAP1 POP DUP2 DUP5 DIV DUP2 GT ISZERO PUSH2 0x643 JUMPI PUSH2 0x642 PUSH2 0x3C4 JUMP JUMPDEST JUMPDEST DUP2 DUP2 MUL SWAP1 POP JUMPDEST SWAP4 SWAP3 POP POP POP JUMP JUMPDEST PUSH1 0x0 PUSH2 0x65B DUP3 PUSH2 0x38B JUMP JUMPDEST SWAP2 POP PUSH2 0x666 DUP4 PUSH2 0x4B7 JUMP JUMPDEST SWAP3 POP PUSH2 0x693 PUSH32 0xFFFFFFFFFFFFFFFFFFFFFFFFFFFFFFFFFFFFFFFFFFFFFFFFFFFFFFFFFFFFFFFF DUP5 DUP5 PUSH2 0x57D JUMP JUMPDEST SWAP1 POP SWAP3 SWAP2 POP POP JUMP JUMPDEST PUSH2 0x6A4 DUP2 PUSH2 0x38B JUMP JUMPDEST DUP3 MSTORE POP POP JUMP JUMPDEST PUSH1 0x0 PUSH1 0x60 DUP3 ADD SWAP1 POP PUSH2 0x6BF PUSH1 0x0 DUP4 ADD DUP7 PUSH2 0x2E4 JUMP JUMPDEST PUSH2 0x6CC PUSH1 0x20 DUP4 ADD DUP6 PUSH2 0x2E4 JUMP JUMPDEST PUSH2 0x6D9 PUSH1 0x40 DUP4 ADD DUP5 PUSH2 0x69B JUMP JUMPDEST SWAP5 SWAP4 POP POP POP POP JUMP JUMPDEST PUSH1 0x0 DUP2 ISZERO ISZERO SWAP1 POP SWAP2 SWAP1 POP JUMP JUMPDEST PUSH2 0x6F6 DUP2 PUSH2 0x6E1 JUMP JUMPDEST DUP2 EQ PUSH2 0x701 JUMPI PUSH1 0x0 DUP1 REVERT JUMPDEST POP JUMP JUMPDEST PUSH1 0x0 DUP2 MLOAD SWAP1 POP PUSH2 0x713 DUP2 PUSH2 0x6ED JUMP JUMPDEST SWAP3 SWAP2 POP POP JUMP JUMPDEST PUSH1 0x0 PUSH1 0x20 DUP3 DUP5 SUB SLT ISZERO PUSH2 0x72F JUMPI PUSH2 0x72E PUSH2 0x4B2 JUMP JUMPDEST JUMPDEST PUSH1 0x0 PUSH2 0x73D DUP5 DUP3 DUP6 ADD PUSH2 0x704 JUMP JUMPDEST SWAP2 POP POP SWAP3 SWAP2 POP POP JUMP INVALID LOG2 PUSH5 0x6970667358 0x22 SLT KECCAK256 0x23 0xE1 ADDMOD AND 0xE7 0xF8 RETURN AND AND 0xC DUP5 0xF6 0x22 CODECOPY GT SWAP6 0xD4 0xEB 0x2E 0xCD 0xB0 BYTE COINBASE 0xE 0xD5 DUP8 SIGNEXTEND SDIV 0xBA 0xCC GASPRICE 0xAA PUSH5 0x736F6C6343 STOP ADDMOD LT STOP CALLER "
				},
				"gasEstimates": {
					"creation": {
						"codeDepositCost": "383200",
						"executionCost": "infinite",
						"totalCost": "infinite"
					},
					"external": {
						"purchaseACoffe()": "infinite",
						"tokenOwner()": "2492"
					}
				},
				"methodIdentifiers": {
					"purchaseACoffe()": "e7e78652",
					"tokenOwner()": "a3e67610"
				}
			},
			"storageLayout": {
				"storage": [
					{
						"astId": 21,
						"contract": "contracts/SampleTokenSale.sol:TokenSale",
						"label": "tokenPriceInWei",
						"offset": 0,
						"slot": "0",
						"type": "t_uint256"
					},
					{
						"astId": 24,
						"contract": "contracts/SampleTokenSale.sol:TokenSale",
						"label": "token",
						"offset": 0,
						"slot": "1",
						"type": "t_contract(ERC20)18"
					},
					{
						"astId": 26,
						"contract": "contracts/SampleTokenSale.sol:TokenSale",
						"label": "tokenOwner",
						"offset": 0,
						"slot": "2",
						"type": "t_address"
					}
				],
				"types": {
					"t_address": {
						"encoding": "inplace",
						"label": "address",
						"numberOfBytes": "20"
					},
					"t_contract(ERC20)18": {
						"encoding": "inplace",
						"label": "contract ERC20",
						"numberOfBytes": "20"
					},
					"t_uint256": {
						"encoding": "inplace",
						"label": "uint256",
						"numberOfBytes": "32"
					}
				}
			},
			"userdoc": {
				"kind": "user",
				"methods": {},
				"version": 1
			}
		}
	}
}