{
	"data": {
		"bytecode": {
			"linkReferences": {},
			"object": "6080604052348015600f57600080fd5b50608d8061001e6000396000f3fe608060405260043610601f5760003560e01c80638547472814602a576025565b36602557005b600080fd5b348015603557600080fd5b50603c603e565b005b3373ffffffffffffffffffffffffffffffffffffffff16fffea264697066735822122009c0def7fa036aa5550d657f3b949b35001784da7115e933cac09a14964f19bc64736f6c63430008100033",
			"opcodes": "PUSH1 0x80 PUSH1 0x40 MSTORE CALLVALUE DUP1 ISZERO PUSH1 0xF JUMPI PUSH1 0x0 DUP1 REVERT JUMPDEST POP PUSH1 0x8D DUP1 PUSH2 0x1E PUSH1 0x0 CODECOPY PUSH1 0x0 RETURN INVALID PUSH1 0x80 PUSH1 0x40 MSTORE PUSH1 0x4 CALLDATASIZE LT PUSH1 0x1F JUMPI PUSH1 0x0 CALLDATALOAD PUSH1 0xE0 SHR DUP1 PUSH4 0x85474728 EQ PUSH1 0x2A JUMPI PUSH1 0x25 JUMP JUMPDEST CALLDATASIZE PUSH1 0x25 JUMPI STOP JUMPDEST PUSH1 0x0 DUP1 REVERT JUMPDEST CALLVALUE DUP1 ISZERO PUSH1 0x35 JUMPI PUSH1 0x0 DUP1 REVERT JUMPDEST POP PUSH1 0x3C PUSH1 0x3E JUMP JUMPDEST STOP JUMPDEST CALLER PUSH20 0xFFFFFFFFFFFFFFFFFFFFFFFFFFFFFFFFFFFFFFFF AND SELFDESTRUCT INVALID LOG2 PUSH5 0x6970667358 0x22 SLT KECCAK256 MULMOD 0xC0 0xDE 0xF7 STATICCALL SUB PUSH11 0xA5550D657F3B949B350017 DUP5 0xDA PUSH18 0x15E933CAC09A14964F19BC64736F6C634300 ADDMOD LT STOP CALLER "
		},
		"gasEstimates": {
			"creation": {
				"codeDepositCost": "28200",
				"executionCost": "81",
				"totalCost": "28281"
			},
			"external": {
				"destroySmartContract()": "27721"
			}
		},
		"methodIdentifiers": {
			"destroySmartContract()": "85474728"
		}
	},
	"abi": [
		{
			"inputs": [],
			"name": "destroySmartContract",
			"outputs": [],
			"stateMutability": "nonpayable",
			"type": "function"
		},
		{
			"stateMutability": "payable",
			"type": "receive"
		}
	]
}